{
  "contractName": "Badges",
  "abi": [
    {
      "constant": true,
      "inputs": [],
      "name": "name",
      "outputs": [
        {
          "name": "",
          "type": "string"
        }
      ],
      "payable": false,
      "stateMutability": "view",
      "type": "function"
    },
    {
      "constant": true,
      "inputs": [
        {
          "name": "_tokenId",
          "type": "uint256"
        }
      ],
      "name": "getApproved",
      "outputs": [
        {
          "name": "",
          "type": "address"
        }
      ],
      "payable": false,
      "stateMutability": "view",
      "type": "function"
    },
    {
      "constant": false,
      "inputs": [
        {
          "name": "_to",
          "type": "address"
        },
        {
          "name": "_tokenId",
          "type": "uint256"
        }
      ],
      "name": "approve",
      "outputs": [],
      "payable": false,
      "stateMutability": "nonpayable",
      "type": "function"
    },
    {
      "constant": true,
      "inputs": [],
      "name": "totalSupply",
      "outputs": [
        {
          "name": "",
          "type": "uint256"
        }
      ],
      "payable": false,
      "stateMutability": "view",
      "type": "function"
    },
    {
      "constant": false,
      "inputs": [
        {
          "name": "_from",
          "type": "address"
        },
        {
          "name": "_to",
          "type": "address"
        },
        {
          "name": "_tokenId",
          "type": "uint256"
        }
      ],
      "name": "transferFrom",
      "outputs": [],
      "payable": false,
      "stateMutability": "nonpayable",
      "type": "function"
    },
    {
      "constant": true,
      "inputs": [
        {
          "name": "_owner",
          "type": "address"
        },
        {
          "name": "_index",
          "type": "uint256"
        }
      ],
      "name": "tokenOfOwnerByIndex",
      "outputs": [
        {
          "name": "",
          "type": "uint256"
        }
      ],
      "payable": false,
      "stateMutability": "view",
      "type": "function"
    },
    {
      "constant": false,
      "inputs": [
        {
          "name": "_from",
          "type": "address"
        },
        {
          "name": "_to",
          "type": "address"
        },
        {
          "name": "_tokenId",
          "type": "uint256"
        }
      ],
      "name": "safeTransferFrom",
      "outputs": [],
      "payable": false,
      "stateMutability": "nonpayable",
      "type": "function"
    },
    {
      "constant": true,
      "inputs": [
        {
          "name": "_tokenId",
          "type": "uint256"
        }
      ],
      "name": "exists",
      "outputs": [
        {
          "name": "",
          "type": "bool"
        }
      ],
      "payable": false,
      "stateMutability": "view",
      "type": "function"
    },
    {
      "constant": true,
      "inputs": [
        {
          "name": "_index",
          "type": "uint256"
        }
      ],
      "name": "tokenByIndex",
      "outputs": [
        {
          "name": "",
          "type": "uint256"
        }
      ],
      "payable": false,
      "stateMutability": "view",
      "type": "function"
    },
    {
      "constant": true,
      "inputs": [
        {
          "name": "_tokenId",
          "type": "uint256"
        }
      ],
      "name": "ownerOf",
      "outputs": [
        {
          "name": "",
          "type": "address"
        }
      ],
      "payable": false,
      "stateMutability": "view",
      "type": "function"
    },
    {
      "constant": true,
      "inputs": [
        {
          "name": "_owner",
          "type": "address"
        }
      ],
      "name": "balanceOf",
      "outputs": [
        {
          "name": "",
          "type": "uint256"
        }
      ],
      "payable": false,
      "stateMutability": "view",
      "type": "function"
    },
    {
      "constant": true,
      "inputs": [],
      "name": "owner",
      "outputs": [
        {
          "name": "",
          "type": "address"
        }
      ],
      "payable": false,
      "stateMutability": "view",
      "type": "function"
    },
    {
      "constant": true,
      "inputs": [],
      "name": "symbol",
      "outputs": [
        {
          "name": "",
          "type": "string"
        }
      ],
      "payable": false,
      "stateMutability": "view",
      "type": "function"
    },
    {
      "constant": false,
      "inputs": [
        {
          "name": "_to",
          "type": "address"
        },
        {
          "name": "_approved",
          "type": "bool"
        }
      ],
      "name": "setApprovalForAll",
      "outputs": [],
      "payable": false,
      "stateMutability": "nonpayable",
      "type": "function"
    },
    {
      "constant": false,
      "inputs": [
        {
          "name": "_from",
          "type": "address"
        },
        {
          "name": "_to",
          "type": "address"
        },
        {
          "name": "_tokenId",
          "type": "uint256"
        },
        {
          "name": "_data",
          "type": "bytes"
        }
      ],
      "name": "safeTransferFrom",
      "outputs": [],
      "payable": false,
      "stateMutability": "nonpayable",
      "type": "function"
    },
    {
      "constant": true,
      "inputs": [
        {
          "name": "_owner",
          "type": "address"
        },
        {
          "name": "_operator",
          "type": "address"
        }
      ],
      "name": "isApprovedForAll",
      "outputs": [
        {
          "name": "",
          "type": "bool"
        }
      ],
      "payable": false,
      "stateMutability": "view",
      "type": "function"
    },
    {
      "constant": false,
      "inputs": [
        {
          "name": "newOwner",
          "type": "address"
        }
      ],
      "name": "transferOwnership",
      "outputs": [],
      "payable": false,
      "stateMutability": "nonpayable",
      "type": "function"
    },
    {
      "inputs": [
        {
          "name": "name",
          "type": "string"
        },
        {
          "name": "symbol",
          "type": "string"
        }
      ],
      "payable": false,
      "stateMutability": "nonpayable",
      "type": "constructor"
    },
    {
      "payable": true,
      "stateMutability": "payable",
      "type": "fallback"
    },
    {
      "anonymous": false,
      "inputs": [
        {
          "indexed": true,
          "name": "previousOwner",
          "type": "address"
        },
        {
          "indexed": true,
          "name": "newOwner",
          "type": "address"
        }
      ],
      "name": "OwnershipTransferred",
      "type": "event"
    },
    {
      "anonymous": false,
      "inputs": [
        {
          "indexed": true,
          "name": "_from",
          "type": "address"
        },
        {
          "indexed": true,
          "name": "_to",
          "type": "address"
        },
        {
          "indexed": false,
          "name": "_tokenId",
          "type": "uint256"
        }
      ],
      "name": "Transfer",
      "type": "event"
    },
    {
      "anonymous": false,
      "inputs": [
        {
          "indexed": true,
          "name": "_owner",
          "type": "address"
        },
        {
          "indexed": true,
          "name": "_approved",
          "type": "address"
        },
        {
          "indexed": false,
          "name": "_tokenId",
          "type": "uint256"
        }
      ],
      "name": "Approval",
      "type": "event"
    },
    {
      "anonymous": false,
      "inputs": [
        {
          "indexed": true,
          "name": "_owner",
          "type": "address"
        },
        {
          "indexed": true,
          "name": "_operator",
          "type": "address"
        },
        {
          "indexed": false,
          "name": "_approved",
          "type": "bool"
        }
      ],
      "name": "ApprovalForAll",
      "type": "event"
    },
    {
      "constant": true,
      "inputs": [],
      "name": "implementation",
      "outputs": [
        {
          "name": "",
          "type": "address"
        }
      ],
      "payable": false,
      "stateMutability": "view",
      "type": "function"
    },
    {
      "constant": true,
      "inputs": [
        {
          "name": "_tokenId",
          "type": "uint256"
        }
      ],
      "name": "tokenURI",
      "outputs": [
        {
          "name": "_infoUrl",
          "type": "string"
        }
      ],
      "payable": false,
      "stateMutability": "view",
      "type": "function"
    },
    {
      "constant": true,
      "inputs": [
        {
          "name": "_tokenId",
          "type": "uint256"
        }
      ],
      "name": "getWorkFromToken",
      "outputs": [
        {
          "name": "",
          "type": "uint256"
        }
      ],
      "payable": false,
      "stateMutability": "pure",
      "type": "function"
    },
    {
      "constant": true,
      "inputs": [],
      "name": "getController",
      "outputs": [
        {
          "name": "",
          "type": "address"
        }
      ],
      "payable": false,
      "stateMutability": "view",
      "type": "function"
    },
    {
      "constant": true,
      "inputs": [],
      "name": "getMetadata",
      "outputs": [
        {
          "name": "",
          "type": "address"
        }
      ],
      "payable": false,
      "stateMutability": "view",
      "type": "function"
    },
    {
      "constant": true,
      "inputs": [],
      "name": "getWallet",
      "outputs": [
        {
          "name": "",
          "type": "address"
        }
      ],
      "payable": false,
      "stateMutability": "view",
      "type": "function"
    },
    {
      "constant": true,
      "inputs": [],
      "name": "getBilly",
      "outputs": [
        {
          "name": "",
          "type": "address"
        }
      ],
      "payable": false,
      "stateMutability": "view",
      "type": "function"
    },
    {
      "constant": true,
      "inputs": [
        {
          "name": "_workId",
          "type": "uint256"
        }
      ],
      "name": "workExists",
      "outputs": [
        {
          "name": "",
          "type": "bool"
        }
      ],
      "payable": false,
      "stateMutability": "view",
      "type": "function"
    },
    {
      "constant": true,
      "inputs": [
        {
          "name": "_workId",
          "type": "uint256"
        }
      ],
      "name": "workArtist",
      "outputs": [
        {
          "name": "",
          "type": "address"
        }
      ],
      "payable": false,
      "stateMutability": "view",
      "type": "function"
    },
    {
      "constant": true,
      "inputs": [
        {
          "name": "_workId",
          "type": "uint256"
        }
      ],
      "name": "workSold",
      "outputs": [
        {
          "name": "",
          "type": "uint256"
        }
      ],
      "payable": false,
      "stateMutability": "view",
      "type": "function"
    },
    {
      "constant": false,
      "inputs": [
        {
          "name": "_workId",
          "type": "uint256"
        },
        {
          "name": "_artist",
          "type": "address"
        }
      ],
      "name": "addWork",
      "outputs": [
        {
          "name": "",
          "type": "bool"
        }
      ],
      "payable": false,
      "stateMutability": "nonpayable",
      "type": "function"
    },
    {
      "constant": false,
      "inputs": [
        {
          "name": "_to",
          "type": "address"
        },
        {
          "name": "amount",
          "type": "uint256"
        }
      ],
      "name": "moveEth",
      "outputs": [
        {
          "name": "",
          "type": "bool"
        }
      ],
      "payable": false,
      "stateMutability": "nonpayable",
      "type": "function"
    },
    {
      "constant": false,
      "inputs": [
        {
          "name": "amount",
          "type": "uint256"
        },
        {
          "name": "_to",
          "type": "address"
        },
        {
          "name": "token",
          "type": "address"
        }
      ],
      "name": "moveToken",
      "outputs": [
        {
          "name": "",
          "type": "bool"
        }
      ],
      "payable": false,
      "stateMutability": "nonpayable",
      "type": "function"
    },
    {
      "constant": false,
      "inputs": [
        {
          "name": "amount",
          "type": "uint256"
        },
        {
          "name": "_to",
          "type": "address"
        },
        {
          "name": "token",
          "type": "address"
        }
      ],
      "name": "approveToken",
      "outputs": [
        {
          "name": "",
          "type": "bool"
        }
      ],
      "payable": false,
      "stateMutability": "nonpayable",
      "type": "function"
    },
    {
      "constant": false,
      "inputs": [
        {
          "name": "_workId",
          "type": "uint256"
        },
        {
          "name": "_artist",
          "type": "address"
        }
      ],
      "name": "updateArtistAddress",
      "outputs": [],
      "payable": false,
      "stateMutability": "nonpayable",
      "type": "function"
    },
    {
      "constant": false,
      "inputs": [
        {
          "name": "_wallet",
          "type": "address"
        }
      ],
      "name": "updateWalletAddress",
      "outputs": [],
      "payable": false,
      "stateMutability": "nonpayable",
      "type": "function"
    },
    {
      "constant": false,
      "inputs": [
        {
          "name": "_billy",
          "type": "address"
        }
      ],
      "name": "updateBillyAddress",
      "outputs": [],
      "payable": false,
      "stateMutability": "nonpayable",
      "type": "function"
    },
    {
      "constant": false,
      "inputs": [
        {
          "name": "_controller",
          "type": "address"
        }
      ],
      "name": "updateControllerAddress",
      "outputs": [],
      "payable": false,
      "stateMutability": "nonpayable",
      "type": "function"
    },
    {
      "constant": false,
      "inputs": [
        {
          "name": "_metadata",
          "type": "address"
        }
      ],
      "name": "updateMetadataAddress",
      "outputs": [],
      "payable": false,
      "stateMutability": "nonpayable",
      "type": "function"
    },
    {
      "constant": false,
      "inputs": [
        {
          "name": "_to",
          "type": "address"
        },
        {
          "name": "_tokenId",
          "type": "uint256"
        }
      ],
      "name": "mint",
      "outputs": [],
      "payable": false,
      "stateMutability": "nonpayable",
      "type": "function"
    },
    {
      "constant": false,
      "inputs": [
        {
          "name": "_tokenId",
          "type": "uint256"
        }
      ],
      "name": "unmint",
      "outputs": [],
      "payable": false,
      "stateMutability": "nonpayable",
      "type": "function"
    }
  ],
  "bytecode": "0x606060405234156200001057600080fd5b6040516200364038038062003640833981016040526200003a9067800000000000000090620001c6565b8181816004908051906020019062000054929190620000b9565b5080600590805190602001906200006d929190620000b9565b50505033600b60006101000a81548173ffffffffffffffffffffffffffffffffffffffff021916908373ffffffffffffffffffffffffffffffffffffffff1602179055505050620002ca565b828054600181600116156101000203166002900490600052602060002090601f016020900481019282601f10620000fc57805160ff19168380011785556200012d565b828001600101855582156200012d579182015b828111156200012c5782518255916020019190600101906200010f565b5b5090506200013c919062000140565b5090565b6200016591905b808211156200016157600081600090555060010162000147565b5090565b90565b600082601f83011215156200017c57600080fd5b8151620001936200018d8262000267565b62000239565b91508082526020830160208301858383011115620001b057600080fd5b620001bd83828462000294565b50505092915050565b60008060408385031215620001da57600080fd5b600083015167ffffffffffffffff811115620001f557600080fd5b620002038582860162000168565b925050602083015167ffffffffffffffff8111156200022157600080fd5b6200022f8582860162000168565b9150509250929050565b6000604051905081810181811067ffffffffffffffff821117156200025d57600080fd5b8060405250919050565b600067ffffffffffffffff8211156200027f57600080fd5b601f19601f8301169050602081019050919050565b60005b83811015620002b457808201518184015260208101905062000297565b83811115620002c4576000848401525b50505050565b61336680620002da6000396000f3006060604052600436106101d8576000357c0100000000000000000000000000000000000000000000000000000000900463ffffffff16806306fdde03146101da578063081812fc14610203578063095ea7b314610239578063132996041461025b57806318160ddd146102845780631cc1472d146102ad57806323b872dd146102e35780632f745c59146103055780633018205f1461033b57806340c10f191461036457806342842e0e146103865780634f558e79146103a85780634f6ccce7146103de5780635c60da1b146104145780635d85f3cb1461043d5780636352211e1461047357806364e779b1146104a957806370a08231146104cb5780637a5b4f59146105015780638da5cb5b1461052a57806395d89b4114610553578063a22cb4651461057c578063a466c2cc1461059e578063a4de372f146105d4578063ad11d4a7146105f6578063b7f8aa001461062c578063b88d4fde14610662578063c86e7a1914610684578063c87b56dd146106a6578063c93c266e146106dc578063d75987e4146106fe578063de6ccfa014610727578063e985e9c51461075d578063ed892aae14610793578063f06e8ecc146107b5578063f2fde38b146107d7578063f760a4e2146107f9578063ffcc8d0e1461082f575b005b34156101e557600080fd5b6101ed610865565b6040516101fa91906131af565b60405180910390f35b341561020e57600080fd5b610223600461021e903690612f9b565b61090d565b60405161023091906130f7565b60405180910390f35b341561024457600080fd5b6102596004610254903690612f5f565b61094a565b005b341561026657600080fd5b61026e610b10565b60405161027b91906130f7565b60405180910390f35b341561028f57600080fd5b610297610b3a565b6040516102a491906131d1565b60405180910390f35b34156102b857600080fd5b6102cd60046102c8903690612f5f565b610b47565b6040516102da9190613179565b60405180910390f35b34156102ee57600080fd5b61030360046102fe903690612e59565b610c60565b005b341561031057600080fd5b6103256004610320903690612f5f565b610d77565b60405161033291906131d1565b60405180910390f35b341561034657600080fd5b61034e610def565b60405161035b91906130f7565b60405180910390f35b341561036f57600080fd5b610384600461037f903690612f5f565b610e19565b005b341561039157600080fd5b6103a660046103a1903690612e59565b610f2d565b005b34156103b357600080fd5b6103c860046103c3903690612f9b565b610f65565b6040516103d59190613179565b60405180910390f35b34156103e957600080fd5b6103fe60046103f9903690612f9b565b610fd6565b60405161040b91906131d1565b60405180910390f35b341561041f57600080fd5b61042761100f565b60405161043491906130f7565b60405180910390f35b341561044857600080fd5b61045d6004610458903690612fc4565b611039565b60405161046a9190613179565b60405180910390f35b341561047e57600080fd5b610493600461048e903690612f9b565b6111a9565b6040516104a091906130f7565b60405180910390f35b34156104b457600080fd5b6104c960046104c4903690612f9b565b611226565b005b34156104d657600080fd5b6104eb60046104e6903690612df4565b611341565b6040516104f891906131d1565b60405180910390f35b341561050c57600080fd5b6105146113c5565b60405161052191906130f7565b60405180910390f35b341561053557600080fd5b61053d6113ef565b60405161054a91906130f7565b60405180910390f35b341561055e57600080fd5b610566611415565b60405161057391906131af565b60405180910390f35b341561058757600080fd5b61059c6004610597903690612f23565b6114bd565b005b34156105a957600080fd5b6105be60046105b9903690612f9b565b6115f5565b6040516105cb91906131d1565b60405180910390f35b34156105df57600080fd5b6105f460046105ef903690612df4565b611615565b005b341561060157600080fd5b6106166004610611903690612f9b565b6116db565b60405161062391906130f7565b60405180910390f35b341561063757600080fd5b61064c6004610647903690613000565b61171b565b6040516106599190613179565b60405180910390f35b341561066d57600080fd5b610682600461067d903690612ea8565b611861565b005b341561068f57600080fd5b6106a4600461069f903690612fc4565b6118a0565b005b34156106b157600080fd5b6106c660046106c1903690612f9b565b611984565b6040516106d391906131af565b60405180910390f35b34156106e757600080fd5b6106fc60046106f7903690612df4565b6119fc565b005b341561070957600080fd5b610711611ac2565b60405161071e91906130f7565b60405180910390f35b341561073257600080fd5b6107476004610742903690612f9b565b611aec565b60405161075491906131d1565b60405180910390f35b341561076857600080fd5b61077d6004610778903690612e1d565b611b3d565b60405161078a9190613179565b60405180910390f35b341561079e57600080fd5b6107b360046107ae903690612df4565b611bd1565b005b34156107c057600080fd5b6107d560046107d0903690612df4565b611c97565b005b34156107e257600080fd5b6107f760046107f2903690612df4565b611d5d565b005b341561080457600080fd5b6108196004610814903690613000565b611eb5565b6040516108269190613179565b60405180910390f35b341561083a57600080fd5b61084f600461084a903690612f9b565b61208e565b60405161085c9190613179565b60405180910390f35b61086d612c75565b60048054600181600116156101000203166002900480601f0160208091040260200160405190810160405280929190818152602001828054600181600116156101000203166002900480156109035780601f106108d857610100808354040283529160200191610903565b820191906000526020600020905b8154815290600101906020018083116108e657829003601f168201915b5050505050905090565b60006001600083815260200190815260200160002060009054906101000a900473ffffffffffffffffffffffffffffffffffffffff169050919050565b6000610955826111a9565b90508073ffffffffffffffffffffffffffffffffffffffff168373ffffffffffffffffffffffffffffffffffffffff161415151561099257600080fd5b8073ffffffffffffffffffffffffffffffffffffffff163373ffffffffffffffffffffffffffffffffffffffff1614806109d257506109d18133611b3d565b5b15156109dd57600080fd5b600073ffffffffffffffffffffffffffffffffffffffff166109fe8361090d565b73ffffffffffffffffffffffffffffffffffffffff16141580610a4e5750600073ffffffffffffffffffffffffffffffffffffffff168373ffffffffffffffffffffffffffffffffffffffff1614155b15610b0b57826001600084815260200190815260200160002060006101000a81548173ffffffffffffffffffffffffffffffffffffffff021916908373ffffffffffffffffffffffffffffffffffffffff1602179055508273ffffffffffffffffffffffffffffffffffffffff168173ffffffffffffffffffffffffffffffffffffffff167f8c5be1e5ebec7d5bd14f71427d1e84f3dd0314c0f7b2291e5b200ac8c7c3b92584604051610b0291906131d1565b60405180910390a35b505050565b6000600e60009054906101000a900473ffffffffffffffffffffffffffffffffffffffff16905090565b6000600880549050905090565b6000600d60009054906101000a900473ffffffffffffffffffffffffffffffffffffffff1673ffffffffffffffffffffffffffffffffffffffff163373ffffffffffffffffffffffffffffffffffffffff161480610bf25750600b60009054906101000a900473ffffffffffffffffffffffffffffffffffffffff1673ffffffffffffffffffffffffffffffffffffffff163373ffffffffffffffffffffffffffffffffffffffff16145b1515610bfd57600080fd5b3073ffffffffffffffffffffffffffffffffffffffff16318211151515610c2357600080fd5b8273ffffffffffffffffffffffffffffffffffffffff166108fc839081150290604051600060405180830381858888f19350505050905092915050565b80610c6b33826120bb565b1515610c7657600080fd5b600073ffffffffffffffffffffffffffffffffffffffff168473ffffffffffffffffffffffffffffffffffffffff1614151515610cb257600080fd5b600073ffffffffffffffffffffffffffffffffffffffff168373ffffffffffffffffffffffffffffffffffffffff1614151515610cee57600080fd5b610cf88483612150565b610d0284836122b9565b610d0c83836124d4565b8273ffffffffffffffffffffffffffffffffffffffff168473ffffffffffffffffffffffffffffffffffffffff167fddf252ad1be2c89b69c2b068fc378daa952ba7f163c4a11628f55a4df523b3ef84604051610d6991906131d1565b60405180910390a350505050565b6000610d8283611341565b82101515610d8f57600080fd5b600660008473ffffffffffffffffffffffffffffffffffffffff1673ffffffffffffffffffffffffffffffffffffffff16815260200190815260200160002082815481101515610ddb57fe5b906000526020600020900154905092915050565b6000600d60009054906101000a900473ffffffffffffffffffffffffffffffffffffffff16905090565b6000600d60009054906101000a900473ffffffffffffffffffffffffffffffffffffffff1673ffffffffffffffffffffffffffffffffffffffff163373ffffffffffffffffffffffffffffffffffffffff161480610ec45750600b60009054906101000a900473ffffffffffffffffffffffffffffffffffffffff1673ffffffffffffffffffffffffffffffffffffffff163373ffffffffffffffffffffffffffffffffffffffff16145b1515610ecf57600080fd5b610ed983836125a8565b610ee282611aec565b9050610f0e600160106000848152602001908152602001600020600101546125fc90919063ffffffff16565b6010600083815260200190815260200160002060010181905550505050565b80610f3833826120bb565b1515610f4357600080fd5b610f5f8484846020604051908101604052806000815250611861565b50505050565b60008060008084815260200190815260200160002060009054906101000a900473ffffffffffffffffffffffffffffffffffffffff169050600073ffffffffffffffffffffffffffffffffffffffff168173ffffffffffffffffffffffffffffffffffffffff161415915050919050565b6000610fe0610b3a565b82101515610fed57600080fd5b600882815481101515610ffc57fe5b9060005260206000209001549050919050565b6000600c60009054906101000a900473ffffffffffffffffffffffffffffffffffffffff16905090565b6000600d60009054906101000a900473ffffffffffffffffffffffffffffffffffffffff1673ffffffffffffffffffffffffffffffffffffffff163373ffffffffffffffffffffffffffffffffffffffff1614806110e45750600b60009054906101000a900473ffffffffffffffffffffffffffffffffffffffff1673ffffffffffffffffffffffffffffffffffffffff163373ffffffffffffffffffffffffffffffffffffffff16145b15156110ef57600080fd5b6010600084815260200190815260200160002060000160009054906101000a900460ff1615151561111f57600080fd5b60016010600085815260200190815260200160002060000160006101000a81548160ff021916908315150217905550816010600085815260200190815260200160002060000160016101000a81548173ffffffffffffffffffffffffffffffffffffffff021916908373ffffffffffffffffffffffffffffffffffffffff16021790555092915050565b60008060008084815260200190815260200160002060009054906101000a900473ffffffffffffffffffffffffffffffffffffffff169050600073ffffffffffffffffffffffffffffffffffffffff168173ffffffffffffffffffffffffffffffffffffffff161415151561121d57600080fd5b80915050919050565b6000600d60009054906101000a900473ffffffffffffffffffffffffffffffffffffffff1673ffffffffffffffffffffffffffffffffffffffff163373ffffffffffffffffffffffffffffffffffffffff1614806112d15750600b60009054906101000a900473ffffffffffffffffffffffffffffffffffffffff1673ffffffffffffffffffffffffffffffffffffffff163373ffffffffffffffffffffffffffffffffffffffff16145b15156112dc57600080fd5b6112ee6112e8836111a9565b83612618565b6112f782611aec565b90506113236001601060008481526020019081526020016000206001015461275390919063ffffffff16565b60106000838152602001908152602001600020600101819055505050565b60008073ffffffffffffffffffffffffffffffffffffffff168273ffffffffffffffffffffffffffffffffffffffff161415151561137e57600080fd5b600260008373ffffffffffffffffffffffffffffffffffffffff1673ffffffffffffffffffffffffffffffffffffffff168152602001908152602001600020549050919050565b6000600c60009054906101000a900473ffffffffffffffffffffffffffffffffffffffff16905090565b600b60009054906101000a900473ffffffffffffffffffffffffffffffffffffffff1681565b61141d612c75565b60058054600181600116156101000203166002900480601f0160208091040260200160405190810160405280929190818152602001828054600181600116156101000203166002900480156114b35780601f10611488576101008083540402835291602001916114b3565b820191906000526020600020905b81548152906001019060200180831161149657829003601f168201915b5050505050905090565b3373ffffffffffffffffffffffffffffffffffffffff168273ffffffffffffffffffffffffffffffffffffffff16141515156114f857600080fd5b80600360003373ffffffffffffffffffffffffffffffffffffffff1673ffffffffffffffffffffffffffffffffffffffff16815260200190815260200160002060008473ffffffffffffffffffffffffffffffffffffffff1673ffffffffffffffffffffffffffffffffffffffff16815260200190815260200160002060006101000a81548160ff0219169083151502179055508173ffffffffffffffffffffffffffffffffffffffff163373ffffffffffffffffffffffffffffffffffffffff167f17307eab39ab6107e8899845ad3d59bd9653f200f220920489ca2b5937696c31836040516115e99190613179565b60405180910390a35050565b600060106000838152602001908152602001600020600101549050919050565b600b60009054906101000a900473ffffffffffffffffffffffffffffffffffffffff1673ffffffffffffffffffffffffffffffffffffffff163373ffffffffffffffffffffffffffffffffffffffff1614151561167157600080fd5b60008173ffffffffffffffffffffffffffffffffffffffff161415151561169757600080fd5b80600d60006101000a81548173ffffffffffffffffffffffffffffffffffffffff021916908373ffffffffffffffffffffffffffffffffffffffff16021790555050565b60006010600083815260200190815260200160002060000160019054906101000a900473ffffffffffffffffffffffffffffffffffffffff169050919050565b6000600d60009054906101000a900473ffffffffffffffffffffffffffffffffffffffff1673ffffffffffffffffffffffffffffffffffffffff163373ffffffffffffffffffffffffffffffffffffffff1614806117c65750600b60009054906101000a900473ffffffffffffffffffffffffffffffffffffffff1673ffffffffffffffffffffffffffffffffffffffff163373ffffffffffffffffffffffffffffffffffffffff16145b15156117d157600080fd5b8173ffffffffffffffffffffffffffffffffffffffff1663095ea7b384866040518363ffffffff167c0100000000000000000000000000000000000000000000000000000000028152600401611828929190613112565b602060405180830381600087803b151561184157600080fd5b5af1151561184e57600080fd5b5050506040518051905090509392505050565b8161186c33826120bb565b151561187757600080fd5b611882858585610c60565b61188e8585858561276c565b151561189957600080fd5b5050505050565b600b60009054906101000a900473ffffffffffffffffffffffffffffffffffffffff1673ffffffffffffffffffffffffffffffffffffffff163373ffffffffffffffffffffffffffffffffffffffff161415156118fc57600080fd5b6010600083815260200190815260200160002060000160009054906101000a900460ff16151561192b57600080fd5b806010600084815260200190815260200160002060000160016101000a81548173ffffffffffffffffffffffffffffffffffffffff021916908373ffffffffffffffffffffffffffffffffffffffff1602179055505050565b61198c612c75565b6000611996612c89565b61199e61100f565b91506000368080601f0160208091040260200160405190810160405280939291908181526020018383808284378201915050505050509050600080825160208401855af43d604051816000823e82600081146119f8578282f35b8282fd5b600b60009054906101000a900473ffffffffffffffffffffffffffffffffffffffff1673ffffffffffffffffffffffffffffffffffffffff163373ffffffffffffffffffffffffffffffffffffffff16141515611a5857600080fd5b60008173ffffffffffffffffffffffffffffffffffffffff1614151515611a7e57600080fd5b80600e60006101000a81548173ffffffffffffffffffffffffffffffffffffffff021916908373ffffffffffffffffffffffffffffffffffffffff16021790555050565b6000600f60009054906101000a900473ffffffffffffffffffffffffffffffffffffffff16905090565b6000611b0260018361275390919063ffffffff16565b9150611b366064611b28606485811515611b1857fe5b068561275390919063ffffffff16565b61289890919063ffffffff16565b9050919050565b6000600360008473ffffffffffffffffffffffffffffffffffffffff1673ffffffffffffffffffffffffffffffffffffffff16815260200190815260200160002060008373ffffffffffffffffffffffffffffffffffffffff1673ffffffffffffffffffffffffffffffffffffffff16815260200190815260200160002060009054906101000a900460ff16905092915050565b600b60009054906101000a900473ffffffffffffffffffffffffffffffffffffffff1673ffffffffffffffffffffffffffffffffffffffff163373ffffffffffffffffffffffffffffffffffffffff16141515611c2d57600080fd5b60008173ffffffffffffffffffffffffffffffffffffffff1614151515611c5357600080fd5b80600c60006101000a81548173ffffffffffffffffffffffffffffffffffffffff021916908373ffffffffffffffffffffffffffffffffffffffff16021790555050565b600b60009054906101000a900473ffffffffffffffffffffffffffffffffffffffff1673ffffffffffffffffffffffffffffffffffffffff163373ffffffffffffffffffffffffffffffffffffffff16141515611cf357600080fd5b60008173ffffffffffffffffffffffffffffffffffffffff1614151515611d1957600080fd5b80600f60006101000a81548173ffffffffffffffffffffffffffffffffffffffff021916908373ffffffffffffffffffffffffffffffffffffffff16021790555050565b600b60009054906101000a900473ffffffffffffffffffffffffffffffffffffffff1673ffffffffffffffffffffffffffffffffffffffff163373ffffffffffffffffffffffffffffffffffffffff16141515611db957600080fd5b600073ffffffffffffffffffffffffffffffffffffffff168173ffffffffffffffffffffffffffffffffffffffff1614151515611df557600080fd5b8073ffffffffffffffffffffffffffffffffffffffff16600b60009054906101000a900473ffffffffffffffffffffffffffffffffffffffff1673ffffffffffffffffffffffffffffffffffffffff167f8be0079c531659141344cd1fd0a4f28419497f9722a3daafe3b4186f6b6457e060405160405180910390a380600b60006101000a81548173ffffffffffffffffffffffffffffffffffffffff021916908373ffffffffffffffffffffffffffffffffffffffff16021790555050565b6000600d60009054906101000a900473ffffffffffffffffffffffffffffffffffffffff1673ffffffffffffffffffffffffffffffffffffffff163373ffffffffffffffffffffffffffffffffffffffff161480611f605750600b60009054906101000a900473ffffffffffffffffffffffffffffffffffffffff1673ffffffffffffffffffffffffffffffffffffffff163373ffffffffffffffffffffffffffffffffffffffff16145b1515611f6b57600080fd5b8173ffffffffffffffffffffffffffffffffffffffff166370a08231306040518263ffffffff167c0100000000000000000000000000000000000000000000000000000000028152600401611fc09190613194565b602060405180830381600087803b1515611fd957600080fd5b5af11515611fe657600080fd5b505050604051805190508411151515611ffe57600080fd5b8173ffffffffffffffffffffffffffffffffffffffff1663a9059cbb84866040518363ffffffff167c0100000000000000000000000000000000000000000000000000000000028152600401612055929190613112565b602060405180830381600087803b151561206e57600080fd5b5af1151561207b57600080fd5b5050506040518051905090509392505050565b60006010600083815260200190815260200160002060000160009054906101000a900460ff169050919050565b6000806120c7836111a9565b90508073ffffffffffffffffffffffffffffffffffffffff168473ffffffffffffffffffffffffffffffffffffffff16148061213657508373ffffffffffffffffffffffffffffffffffffffff1661211e8461090d565b73ffffffffffffffffffffffffffffffffffffffff16145b8061214757506121468185611b3d565b5b91505092915050565b8173ffffffffffffffffffffffffffffffffffffffff16612170826111a9565b73ffffffffffffffffffffffffffffffffffffffff1614151561219257600080fd5b600073ffffffffffffffffffffffffffffffffffffffff166001600083815260200190815260200160002060009054906101000a900473ffffffffffffffffffffffffffffffffffffffff1673ffffffffffffffffffffffffffffffffffffffff161415156122b55760006001600083815260200190815260200160002060006101000a81548173ffffffffffffffffffffffffffffffffffffffff021916908373ffffffffffffffffffffffffffffffffffffffff160217905550600073ffffffffffffffffffffffffffffffffffffffff168273ffffffffffffffffffffffffffffffffffffffff167f8c5be1e5ebec7d5bd14f71427d1e84f3dd0314c0f7b2291e5b200ac8c7c3b925836040516122ac91906131d1565b60405180910390a35b5050565b60008060006122c885856128ae565b600760008581526020019081526020016000205492506123346001600660008873ffffffffffffffffffffffffffffffffffffffff1673ffffffffffffffffffffffffffffffffffffffff1681526020019081526020016000208054905061275390919063ffffffff16565b9150600660008673ffffffffffffffffffffffffffffffffffffffff1673ffffffffffffffffffffffffffffffffffffffff1681526020019081526020016000208281548110151561238257fe5b906000526020600020900154905080600660008773ffffffffffffffffffffffffffffffffffffffff1673ffffffffffffffffffffffffffffffffffffffff168152602001908152602001600020848154811015156123dd57fe5b9060005260206000209001819055506000600660008773ffffffffffffffffffffffffffffffffffffffff1673ffffffffffffffffffffffffffffffffffffffff1681526020019081526020016000208381548110151561243a57fe5b906000526020600020900181905550600660008673ffffffffffffffffffffffffffffffffffffffff1673ffffffffffffffffffffffffffffffffffffffff16815260200190815260200160002080548091906001900361249b9190612c9d565b50600060076000868152602001908152602001600020819055508260076000838152602001908152602001600020819055505050505050565b60006124e083836129dc565b600660008473ffffffffffffffffffffffffffffffffffffffff1673ffffffffffffffffffffffffffffffffffffffff168152602001908152602001600020805490509050600660008473ffffffffffffffffffffffffffffffffffffffff1673ffffffffffffffffffffffffffffffffffffffff16815260200190815260200160002080548060010182816125769190612cc9565b916000526020600020900160008490919091505550806007600084815260200190815260200160002081905550505050565b6125b28282612b34565b6008805490506009600083815260200190815260200160002081905550600880548060010182816125e39190612cc9565b9160005260206000209001600083909190915055505050565b6000818301905082811015151561260f57fe5b80905092915050565b60008060006126278585612be4565b6000600a600086815260200190815260200160002080546001816001161561010002031660029004905014151561267857600a600085815260200190815260200160002060006126779190612cf5565b5b600960008581526020019081526020016000205492506126a7600160088054905061275390919063ffffffff16565b91506008828154811015156126b857fe5b9060005260206000209001549050806008848154811015156126d657fe5b90600052602060002090018190555060006008838154811015156126f657fe5b906000526020600020900181905550600880548091906001900361271a9190612c9d565b50600060096000868152602001908152602001600020819055508260096000838152602001908152602001600020819055505050505050565b600082821115151561276157fe5b818303905092915050565b60008061278e8573ffffffffffffffffffffffffffffffffffffffff16612c62565b151561279d576001915061288f565b8473ffffffffffffffffffffffffffffffffffffffff1663f0b9e5ba8786866040518463ffffffff167c01000000000000000000000000000000000000000000000000000000000281526004016127f69392919061313b565b602060405180830381600087803b151561280f57600080fd5b5af1151561281c57600080fd5b50505060405180519050905063f0b9e5ba7c0100000000000000000000000000000000000000000000000000000000027bffffffffffffffffffffffffffffffffffffffffffffffffffffffff1916817bffffffffffffffffffffffffffffffffffffffffffffffffffffffff19161491505b50949350505050565b600081838115156128a557fe5b04905092915050565b8173ffffffffffffffffffffffffffffffffffffffff166128ce826111a9565b73ffffffffffffffffffffffffffffffffffffffff161415156128f057600080fd5b6129436001600260008573ffffffffffffffffffffffffffffffffffffffff1673ffffffffffffffffffffffffffffffffffffffff1681526020019081526020016000205461275390919063ffffffff16565b600260008473ffffffffffffffffffffffffffffffffffffffff1673ffffffffffffffffffffffffffffffffffffffff16815260200190815260200160002081905550600080600083815260200190815260200160002060006101000a81548173ffffffffffffffffffffffffffffffffffffffff021916908373ffffffffffffffffffffffffffffffffffffffff1602179055505050565b600073ffffffffffffffffffffffffffffffffffffffff1660008083815260200190815260200160002060009054906101000a900473ffffffffffffffffffffffffffffffffffffffff1673ffffffffffffffffffffffffffffffffffffffff16141515612a4957600080fd5b8160008083815260200190815260200160002060006101000a81548173ffffffffffffffffffffffffffffffffffffffff021916908373ffffffffffffffffffffffffffffffffffffffff160217905550612aed6001600260008573ffffffffffffffffffffffffffffffffffffffff1673ffffffffffffffffffffffffffffffffffffffff168152602001908152602001600020546125fc90919063ffffffff16565b600260008473ffffffffffffffffffffffffffffffffffffffff1673ffffffffffffffffffffffffffffffffffffffff168152602001908152602001600020819055505050565b600073ffffffffffffffffffffffffffffffffffffffff168273ffffffffffffffffffffffffffffffffffffffff1614151515612b7057600080fd5b612b7a82826124d4565b8173ffffffffffffffffffffffffffffffffffffffff16600073ffffffffffffffffffffffffffffffffffffffff167fddf252ad1be2c89b69c2b068fc378daa952ba7f163c4a11628f55a4df523b3ef83604051612bd891906131d1565b60405180910390a35050565b612bee8282612150565b612bf882826122b9565b600073ffffffffffffffffffffffffffffffffffffffff168273ffffffffffffffffffffffffffffffffffffffff167fddf252ad1be2c89b69c2b068fc378daa952ba7f163c4a11628f55a4df523b3ef83604051612c5691906131d1565b60405180910390a35050565b600080823b905060008111915050919050565b602060405190810160405280600081525090565b602060405190810160405280600081525090565b815481835581811511612cc457818360005260206000209182019101612cc39190612d3d565b5b505050565b815481835581811511612cf057818360005260206000209182019101612cef9190612d3d565b5b505050565b50805460018160011615610100020316600290046000825580601f10612d1b5750612d3a565b601f016020900490600052602060002090810190612d399190612d3d565b5b50565b612d5f91905b80821115612d5b576000816000905550600101612d43565b5090565b90565b6000612d6e8235613291565b905092915050565b6000612d8282356132b1565b905092915050565b600082601f8301121515612d9d57600080fd5b8135612db0612dab82613219565b6131ec565b91508082526020830160208301858383011115612dcc57600080fd5b612dd78382846132d9565b50505092915050565b6000612dec82356132bd565b905092915050565b600060208284031215612e0657600080fd5b6000612e1484828501612d62565b91505092915050565b60008060408385031215612e3057600080fd5b6000612e3e85828601612d62565b9250506020612e4f85828601612d62565b9150509250929050565b600080600060608486031215612e6e57600080fd5b6000612e7c86828701612d62565b9350506020612e8d86828701612d62565b9250506040612e9e86828701612de0565b9150509250925092565b60008060008060808587031215612ebe57600080fd5b6000612ecc87828801612d62565b9450506020612edd87828801612d62565b9350506040612eee87828801612de0565b925050606085013567ffffffffffffffff811115612f0b57600080fd5b612f1787828801612d8a565b91505092959194509250565b60008060408385031215612f3657600080fd5b6000612f4485828601612d62565b9250506020612f5585828601612d76565b9150509250929050565b60008060408385031215612f7257600080fd5b6000612f8085828601612d62565b9250506020612f9185828601612de0565b9150509250929050565b600060208284031215612fad57600080fd5b6000612fbb84828501612de0565b91505092915050565b60008060408385031215612fd757600080fd5b6000612fe585828601612de0565b9250506020612ff685828601612d62565b9150509250929050565b60008060006060848603121561301557600080fd5b600061302386828701612de0565b935050602061303486828701612d62565b925050604061304586828701612d62565b9150509250925092565b6130588161325b565b82525050565b6130678161327b565b82525050565b600061307882613245565b80845261308c8160208601602086016132e8565b6130958161331b565b602085010191505092915050565b6130ac816132c7565b82525050565b60006130bd82613250565b8084526130d18160208601602086016132e8565b6130da8161331b565b602085010191505092915050565b6130f181613287565b82525050565b600060208201905061310c600083018461304f565b92915050565b6000604082019050613127600083018561304f565b61313460208301846130e8565b9392505050565b6000606082019050613150600083018661304f565b61315d60208301856130e8565b818103604083015261316f818461306d565b9050949350505050565b600060208201905061318e600083018461305e565b92915050565b60006020820190506131a960008301846130a3565b92915050565b600060208201905081810360008301526131c981846130b2565b905092915050565b60006020820190506131e660008301846130e8565b92915050565b6000604051905081810181811067ffffffffffffffff8211171561320f57600080fd5b8060405250919050565b600067ffffffffffffffff82111561323057600080fd5b601f19601f8301169050602081019050919050565b600081519050919050565b600081519050919050565b600073ffffffffffffffffffffffffffffffffffffffff82169050919050565b60008115159050919050565b6000819050919050565b600073ffffffffffffffffffffffffffffffffffffffff82169050919050565b60008115159050919050565b6000819050919050565b60006132d28261325b565b9050919050565b82818337600083830152505050565b60005b838110156133065780820151818401526020810190506132eb565b83811115613315576000848401525b50505050565b6000601f19601f83011690509190505600a265627a7a723058207407ce598987acf1d1e14417385c19bcb7579f06321336c90bdf153c6e4bef0f6c6578706572696d656e74616cf50037",
  "source": "pragma solidity ^0.4.18;\npragma experimental ABIEncoderV2;\n\n/**\n * Digital Asset Registry for the Non Fungible Token AnotherCoin\n * with upgradeable contract reference for returning metadata.\n */\nimport \"./Metadata.sol\";\nimport \"zeppelin-solidity/contracts/token/ERC20/ERC20.sol\";\n\nimport \"./IBadges.sol\";\nimport \"zeppelin-solidity/contracts/token/ERC721/ERC721Token.sol\";\nimport \"zeppelin-solidity/contracts/ownership/Ownable.sol\";\n\n\ncontract Badges is IBadges, ERC721Token, Ownable {\n\n\n   modifier onlyOwnerOrController() {\n        require(\n            msg.sender == controller ||\n            msg.sender == owner\n        );\n        _;\n    }\n\n    address metadata;\n    address controller;\n    address wallet;\n    address billy;\n\n    struct Work {\n        bool exists;\n        address artist;\n        uint sold;\n    }\n\n    mapping(uint => Work) works;\n\n    function Badges (string name, string symbol) public\n        ERC721Token(name, symbol)\n    { }\n\n    function () public payable {}\n\n    function implementation() public view returns (address) {\n        return metadata;\n    }\n\n    function tokenURI(uint _tokenId) public view returns (string _infoUrl) {\n        address _impl = implementation();\n        bytes memory data = msg.data;\n        assembly {\n            let result := delegatecall(gas, _impl, add(data, 0x20), mload(data), 0, 0)\n            let size := returndatasize\n            let ptr := mload(0x40)\n            returndatacopy(ptr, 0, size)\n            switch result\n            case 0 { revert(ptr, size) }\n            default { return(ptr, size) }\n        }\n    }\n\n    function getWorkFromToken(uint _tokenId) public pure returns (uint) {\n        _tokenId = _tokenId.sub(1);\n        return (_tokenId.sub(_tokenId % 100)).div(100);\n    }\n\n    function getController() public constant returns (address) {\n        return controller;\n    }\n    function getMetadata() public constant returns (address) {\n        return metadata;\n    }\n    function getWallet() public constant returns (address) {\n        return wallet;\n    }\n    function getBilly() public constant returns (address) {\n        return billy;\n    }\n    function workExists(uint _workId) public constant returns (bool) {\n        return works[_workId].exists;\n    }\n    function workArtist(uint _workId) public constant returns (address) {\n        return works[_workId].artist;\n    }\n    function workSold(uint _workId) public constant returns (uint) {\n        return works[_workId].sold;\n    }\n\n/* ---------------------------------------------------------------------------------------------------------------------- */\n\n    function addWork(uint _workId, address _artist) public onlyOwnerOrController returns (bool) {\n        require(!works[_workId].exists);\n        works[_workId].exists = true;\n        works[_workId].artist = _artist;\n    }    \n\n    function moveEth(address _to, uint256 amount) public onlyOwnerOrController returns (bool) {\n        require(amount <= this.balance);\n        return _to.send(amount);\n    }\n    function moveToken(uint256 amount, address _to, address token) public onlyOwnerOrController returns (bool) {\n        require(amount <= ERC20(token).balanceOf(this));\n        return ERC20(token).transfer(_to, amount);\n    }\n    function approveToken(uint256 amount, address _to, address token) public onlyOwnerOrController returns (bool) {\n        return ERC20(token).approve(_to, amount);\n    }\n\n    function updateArtistAddress(uint _workId, address _artist) public onlyOwner {\n        require(works[_workId].exists);\n       works[_workId].artist = _artist;\n    }\n    function updateWalletAddress(address _wallet) public onlyOwner {\n        require(_wallet != 0);\n        wallet = _wallet;\n    }\n    function updateBillyAddress(address _billy) public onlyOwner {\n        require(_billy != 0);\n        billy = _billy;\n    }\n    function updateControllerAddress(address _controller) public onlyOwner {\n        require(_controller != 0);\n        controller = _controller;\n    }\n    function updateMetadataAddress(address _metadata) public onlyOwner {\n        require(_metadata != 0);\n        metadata = _metadata;\n    }\n\n    function mint (address _to, uint256 _tokenId) public onlyOwnerOrController {\n        super._mint(_to, _tokenId);\n        uint workId = getWorkFromToken(_tokenId);\n        works[workId].sold = works[workId].sold.add(1);\n    }\n    function unmint (uint256 _tokenId) public onlyOwnerOrController {\n        super._burn(ownerOf(_tokenId), _tokenId);\n\n        uint workId = getWorkFromToken(_tokenId);\n        works[workId].sold = works[workId].sold.sub(1);\n    }\n\n}\n",
  "sourcePath": "/Users/billy/sol/new-models/contracts/Badges.sol",
  "compiler": {
    "name": "solc",
    "version": "0.4.21+commit.dfe3193c.Emscripten.clang"
  },
  "schemaVersion": "2.0.0",
  "updatedAt": "2018-05-28T15:36:18.892Z"
}