{
  "contractName": "Controller",
  "abi": [
    {
      "constant": true,
      "inputs": [],
      "name": "owner",
      "outputs": [
        {
          "name": "",
          "type": "address"
        }
      ],
      "payable": false,
      "stateMutability": "view",
      "type": "function"
    },
    {
      "constant": false,
      "inputs": [
        {
          "name": "newOwner",
          "type": "address"
        }
      ],
      "name": "transferOwnership",
      "outputs": [],
      "payable": false,
      "stateMutability": "nonpayable",
      "type": "function"
    },
    {
      "inputs": [
        {
          "name": "_patches",
          "type": "address"
        }
      ],
      "payable": false,
      "stateMutability": "nonpayable",
      "type": "constructor"
    },
    {
      "anonymous": false,
      "inputs": [
        {
          "indexed": false,
          "name": "tokenId",
          "type": "uint256"
        },
        {
          "indexed": false,
          "name": "amountPaid",
          "type": "uint256"
        },
        {
          "indexed": false,
          "name": "boughtBy",
          "type": "address"
        }
      ],
      "name": "Bought",
      "type": "event"
    },
    {
      "anonymous": false,
      "inputs": [
        {
          "indexed": true,
          "name": "previousOwner",
          "type": "address"
        },
        {
          "indexed": true,
          "name": "newOwner",
          "type": "address"
        }
      ],
      "name": "OwnershipTransferred",
      "type": "event"
    },
    {
      "constant": true,
      "inputs": [
        {
          "name": "_workId",
          "type": "uint256"
        }
      ],
      "name": "getPrice",
      "outputs": [
        {
          "name": "",
          "type": "uint256"
        }
      ],
      "payable": false,
      "stateMutability": "view",
      "type": "function"
    },
    {
      "constant": false,
      "inputs": [
        {
          "name": "_to",
          "type": "address"
        },
        {
          "name": "_workId",
          "type": "uint256"
        }
      ],
      "name": "buy",
      "outputs": [
        {
          "name": "",
          "type": "bool"
        }
      ],
      "payable": true,
      "stateMutability": "payable",
      "type": "function"
    },
    {
      "constant": false,
      "inputs": [
        {
          "name": "_to",
          "type": "address"
        },
        {
          "name": "_workId",
          "type": "uint256"
        }
      ],
      "name": "reserved",
      "outputs": [
        {
          "name": "",
          "type": "bool"
        }
      ],
      "payable": false,
      "stateMutability": "nonpayable",
      "type": "function"
    },
    {
      "constant": false,
      "inputs": [
        {
          "name": "_to",
          "type": "address"
        },
        {
          "name": "amount",
          "type": "uint256"
        }
      ],
      "name": "moveEth",
      "outputs": [
        {
          "name": "",
          "type": "bool"
        }
      ],
      "payable": false,
      "stateMutability": "nonpayable",
      "type": "function"
    },
    {
      "constant": false,
      "inputs": [
        {
          "name": "amount",
          "type": "uint256"
        },
        {
          "name": "_to",
          "type": "address"
        },
        {
          "name": "token",
          "type": "address"
        }
      ],
      "name": "moveToken",
      "outputs": [
        {
          "name": "",
          "type": "bool"
        }
      ],
      "payable": false,
      "stateMutability": "nonpayable",
      "type": "function"
    },
    {
      "constant": false,
      "inputs": [
        {
          "name": "amount",
          "type": "uint256"
        },
        {
          "name": "_to",
          "type": "address"
        },
        {
          "name": "token",
          "type": "address"
        }
      ],
      "name": "approveToken",
      "outputs": [
        {
          "name": "",
          "type": "bool"
        }
      ],
      "payable": false,
      "stateMutability": "nonpayable",
      "type": "function"
    }
  ],
  "bytecode": "0x6080604052606460025534801561001557600080fd5b5060405160208062001a1b833981018060405261003591908101906100d0565b336000806101000a81548173ffffffffffffffffffffffffffffffffffffffff021916908373ffffffffffffffffffffffffffffffffffffffff16021790555080600160006101000a81548173ffffffffffffffffffffffffffffffffffffffff021916908373ffffffffffffffffffffffffffffffffffffffff16021790555050610119565b60006100c882516100f9565b905092915050565b6000602082840312156100e257600080fd5b60006100f0848285016100bc565b91505092915050565b600073ffffffffffffffffffffffffffffffffffffffff82169050919050565b6118f280620001296000396000f30060806040526004361061008e576000357c0100000000000000000000000000000000000000000000000000000000900463ffffffff1680631cc1472d14610093578063837119de146100d05780638da5cb5b1461010d578063b7f8aa0014610138578063cce7ec1314610175578063e7572230146101a5578063f2fde38b146101e2578063f760a4e21461020b575b600080fd5b34801561009f57600080fd5b506100ba60048036036100b5919081019061162c565b610248565b6040516100c791906117b2565b60405180910390f35b3480156100dc57600080fd5b506100f760048036036100f2919081019061162c565b610308565b60405161010491906117b2565b60405180910390f35b34801561011957600080fd5b50610122610b9d565b60405161012f919061176e565b60405180910390f35b34801561014457600080fd5b5061015f600480360361015a91908101906116e3565b610bc2565b60405161016c91906117b2565b60405180910390f35b61018f600480360361018a919081019061162c565b610cd1565b60405161019c91906117b2565b60405180910390f35b3480156101b157600080fd5b506101cc60048036036101c79190810190611691565b610fc7565b6040516101d991906117e8565b60405180910390f35b3480156101ee57600080fd5b50610209600480360361020491908101906115da565b6111f0565b005b34801561021757600080fd5b50610232600480360361022d91908101906116e3565b611345565b60405161023f91906117b2565b60405180910390f35b60008060009054906101000a900473ffffffffffffffffffffffffffffffffffffffff1673ffffffffffffffffffffffffffffffffffffffff163373ffffffffffffffffffffffffffffffffffffffff161415156102a557600080fd5b3073ffffffffffffffffffffffffffffffffffffffff163182111515156102cb57600080fd5b8273ffffffffffffffffffffffffffffffffffffffff166108fc839081150290604051600060405180830381858888f19350505050905092915050565b600080600160009054906101000a900473ffffffffffffffffffffffffffffffffffffffff1673ffffffffffffffffffffffffffffffffffffffff1663ad11d4a7846040518263ffffffff167c010000000000000000000000000000000000000000000000000000000002815260040161038291906117e8565b602060405180830381600087803b15801561039c57600080fd5b505af11580156103b0573d6000803e3d6000fd5b505050506040513d601f19601f820116820180604052506103d49190810190611603565b73ffffffffffffffffffffffffffffffffffffffff168473ffffffffffffffffffffffffffffffffffffffff1614156105ec57600190505b60048110156105e757600160009054906101000a900473ffffffffffffffffffffffffffffffffffffffff1673ffffffffffffffffffffffffffffffffffffffff16634f558e796104798361046b60648861150990919063ffffffff16565b61154190919063ffffffff16565b6040518263ffffffff167c01000000000000000000000000000000000000000000000000000000000281526004016104b191906117e8565b602060405180830381600087803b1580156104cb57600080fd5b505af11580156104df573d6000803e3d6000fd5b505050506040513d601f19601f820116820180604052506105039190810190611668565b15156105da57600160009054906101000a900473ffffffffffffffffffffffffffffffffffffffff1673ffffffffffffffffffffffffffffffffffffffff166340c10f198561056e8461056060648961150990919063ffffffff16565b61154190919063ffffffff16565b6040518363ffffffff167c01000000000000000000000000000000000000000000000000000000000281526004016105a7929190611789565b600060405180830381600087803b1580156105c157600080fd5b505af11580156105d5573d6000803e3d6000fd5b505050505b808060010191505061040c565b610b96565b600160009054906101000a900473ffffffffffffffffffffffffffffffffffffffff1673ffffffffffffffffffffffffffffffffffffffff1663d75987e46040518163ffffffff167c0100000000000000000000000000000000000000000000000000000000028152600401602060405180830381600087803b15801561067257600080fd5b505af1158015610686573d6000803e3d6000fd5b505050506040513d601f19601f820116820180604052506106aa9190810190611603565b73ffffffffffffffffffffffffffffffffffffffff168473ffffffffffffffffffffffffffffffffffffffff1614156108c257600490505b60068110156108bd57600160009054906101000a900473ffffffffffffffffffffffffffffffffffffffff1673ffffffffffffffffffffffffffffffffffffffff16634f558e7961074f8361074160648861150990919063ffffffff16565b61154190919063ffffffff16565b6040518263ffffffff167c010000000000000000000000000000000000000000000000000000000002815260040161078791906117e8565b602060405180830381600087803b1580156107a157600080fd5b505af11580156107b5573d6000803e3d6000fd5b505050506040513d601f19601f820116820180604052506107d99190810190611668565b15156108b057600160009054906101000a900473ffffffffffffffffffffffffffffffffffffffff1673ffffffffffffffffffffffffffffffffffffffff166340c10f19856108448461083660648961150990919063ffffffff16565b61154190919063ffffffff16565b6040518363ffffffff167c010000000000000000000000000000000000000000000000000000000002815260040161087d929190611789565b600060405180830381600087803b15801561089757600080fd5b505af11580156108ab573d6000803e3d6000fd5b505050505b80806001019150506106e2565b610b95565b600160009054906101000a900473ffffffffffffffffffffffffffffffffffffffff1673ffffffffffffffffffffffffffffffffffffffff1663132996046040518163ffffffff167c0100000000000000000000000000000000000000000000000000000000028152600401602060405180830381600087803b15801561094857600080fd5b505af115801561095c573d6000803e3d6000fd5b505050506040513d601f19601f820116820180604052506109809190810190611603565b73ffffffffffffffffffffffffffffffffffffffff168473ffffffffffffffffffffffffffffffffffffffff161415610b9457600690505b600b811015610b9357600160009054906101000a900473ffffffffffffffffffffffffffffffffffffffff1673ffffffffffffffffffffffffffffffffffffffff16634f558e79610a2583610a1760648861150990919063ffffffff16565b61154190919063ffffffff16565b6040518263ffffffff167c0100000000000000000000000000000000000000000000000000000000028152600401610a5d91906117e8565b602060405180830381600087803b158015610a7757600080fd5b505af1158015610a8b573d6000803e3d6000fd5b505050506040513d601f19601f82011682018060405250610aaf9190810190611668565b1515610b8657600160009054906101000a900473ffffffffffffffffffffffffffffffffffffffff1673ffffffffffffffffffffffffffffffffffffffff166340c10f1985610b1a84610b0c60648961150990919063ffffffff16565b61154190919063ffffffff16565b6040518363ffffffff167c0100000000000000000000000000000000000000000000000000000000028152600401610b53929190611789565b600060405180830381600087803b158015610b6d57600080fd5b505af1158015610b81573d6000803e3d6000fd5b505050505b80806001019150506109b8565b5b5b5b5092915050565b6000809054906101000a900473ffffffffffffffffffffffffffffffffffffffff1681565b60008060009054906101000a900473ffffffffffffffffffffffffffffffffffffffff1673ffffffffffffffffffffffffffffffffffffffff163373ffffffffffffffffffffffffffffffffffffffff16141515610c1f57600080fd5b8173ffffffffffffffffffffffffffffffffffffffff1663095ea7b384866040518363ffffffff167c0100000000000000000000000000000000000000000000000000000000028152600401610c76929190611789565b602060405180830381600087803b158015610c9057600080fd5b505af1158015610ca4573d6000803e3d6000fd5b505050506040513d601f19601f82011682018060405250610cc89190810190611668565b90509392505050565b600080600080610dc5600a610db760018060009054906101000a900473ffffffffffffffffffffffffffffffffffffffff1673ffffffffffffffffffffffffffffffffffffffff1663a466c2cc8a6040518263ffffffff167c0100000000000000000000000000000000000000000000000000000000028152600401610d5791906117e8565b602060405180830381600087803b158015610d7157600080fd5b505af1158015610d85573d6000803e3d6000fd5b505050506040513d601f19601f82011682018060405250610da991908101906116ba565b61154190919063ffffffff16565b61154190919063ffffffff16565b92506002548311151515610dd857600080fd5b610de185610fc7565b9150813410151515610df257600080fd5b610e1883610e0a60648861150990919063ffffffff16565b61154190919063ffffffff16565b9050600160009054906101000a900473ffffffffffffffffffffffffffffffffffffffff1673ffffffffffffffffffffffffffffffffffffffff166108fc839081150290604051600060405180830381858888f19350505050158015610e82573d6000803e3d6000fd5b5081341115610ed4573373ffffffffffffffffffffffffffffffffffffffff166108fc610eb8843461155d90919063ffffffff16565b9081150290604051600060405180830381858888f19350505050505b600160009054906101000a900473ffffffffffffffffffffffffffffffffffffffff1673ffffffffffffffffffffffffffffffffffffffff166340c10f1987836040518363ffffffff167c0100000000000000000000000000000000000000000000000000000000028152600401610f4d929190611789565b600060405180830381600087803b158015610f6757600080fd5b505af1158015610f7b573d6000803e3d6000fd5b505050507fa2a8034590a15fe810e9813d736096c0a03b3236cecb34b5b9f687ed67a6a624818388604051610fb293929190611803565b60405180910390a16001935050505092915050565b6000806000600160009054906101000a900473ffffffffffffffffffffffffffffffffffffffff1673ffffffffffffffffffffffffffffffffffffffff1663ffcc8d0e856040518263ffffffff167c010000000000000000000000000000000000000000000000000000000002815260040161104391906117e8565b602060405180830381600087803b15801561105d57600080fd5b505af1158015611071573d6000803e3d6000fd5b505050506040513d601f19601f820116820180604052506110959190810190611668565b15156110a057600080fd5b61117c600a600160009054906101000a900473ffffffffffffffffffffffffffffffffffffffff1673ffffffffffffffffffffffffffffffffffffffff1663a466c2cc876040518263ffffffff167c010000000000000000000000000000000000000000000000000000000002815260040161111c91906117e8565b602060405180830381600087803b15801561113657600080fd5b505af115801561114a573d6000803e3d6000fd5b505050506040513d601f19601f8201168201806040525061116e91908101906116ba565b61154190919063ffffffff16565b91506002548210151561118e57600080fd5b66038d7ea4c6800090506111e46111d5600a6111c760016111b9600a8861155d90919063ffffffff16565b61154190919063ffffffff16565b61150990919063ffffffff16565b8261150990919063ffffffff16565b90508092505050919050565b6000809054906101000a900473ffffffffffffffffffffffffffffffffffffffff1673ffffffffffffffffffffffffffffffffffffffff163373ffffffffffffffffffffffffffffffffffffffff1614151561124b57600080fd5b600073ffffffffffffffffffffffffffffffffffffffff168173ffffffffffffffffffffffffffffffffffffffff161415151561128757600080fd5b8073ffffffffffffffffffffffffffffffffffffffff166000809054906101000a900473ffffffffffffffffffffffffffffffffffffffff1673ffffffffffffffffffffffffffffffffffffffff167f8be0079c531659141344cd1fd0a4f28419497f9722a3daafe3b4186f6b6457e060405160405180910390a3806000806101000a81548173ffffffffffffffffffffffffffffffffffffffff021916908373ffffffffffffffffffffffffffffffffffffffff16021790555050565b60008060009054906101000a900473ffffffffffffffffffffffffffffffffffffffff1673ffffffffffffffffffffffffffffffffffffffff163373ffffffffffffffffffffffffffffffffffffffff161415156113a257600080fd5b8173ffffffffffffffffffffffffffffffffffffffff166370a08231306040518263ffffffff167c01000000000000000000000000000000000000000000000000000000000281526004016113f791906117cd565b602060405180830381600087803b15801561141157600080fd5b505af1158015611425573d6000803e3d6000fd5b505050506040513d601f19601f8201168201806040525061144991908101906116ba565b841115151561145757600080fd5b8173ffffffffffffffffffffffffffffffffffffffff1663a9059cbb84866040518363ffffffff167c01000000000000000000000000000000000000000000000000000000000281526004016114ae929190611789565b602060405180830381600087803b1580156114c857600080fd5b505af11580156114dc573d6000803e3d6000fd5b505050506040513d601f19601f820116820180604052506115009190810190611668565b90509392505050565b60008083141561151c576000905061153b565b818302905081838281151561152d57fe5b0414151561153757fe5b8090505b92915050565b6000818301905082811015151561155457fe5b80905092915050565b600082821115151561156b57fe5b818303905092915050565b60006115828235611870565b905092915050565b60006115968251611870565b905092915050565b60006115aa8251611890565b905092915050565b60006115be823561189c565b905092915050565b60006115d2825161189c565b905092915050565b6000602082840312156115ec57600080fd5b60006115fa84828501611576565b91505092915050565b60006020828403121561161557600080fd5b60006116238482850161158a565b91505092915050565b6000806040838503121561163f57600080fd5b600061164d85828601611576565b925050602061165e858286016115b2565b9150509250929050565b60006020828403121561167a57600080fd5b60006116888482850161159e565b91505092915050565b6000602082840312156116a357600080fd5b60006116b1848285016115b2565b91505092915050565b6000602082840312156116cc57600080fd5b60006116da848285016115c6565b91505092915050565b6000806000606084860312156116f857600080fd5b6000611706868287016115b2565b935050602061171786828701611576565b925050604061172886828701611576565b9150509250925092565b61173b8161183a565b82525050565b61174a8161185a565b82525050565b611759816118a6565b82525050565b61176881611866565b82525050565b60006020820190506117836000830184611732565b92915050565b600060408201905061179e6000830185611732565b6117ab602083018461175f565b9392505050565b60006020820190506117c76000830184611741565b92915050565b60006020820190506117e26000830184611750565b92915050565b60006020820190506117fd600083018461175f565b92915050565b6000606082019050611818600083018661175f565b611825602083018561175f565b6118326040830184611732565b949350505050565b600073ffffffffffffffffffffffffffffffffffffffff82169050919050565b60008115159050919050565b6000819050919050565b600073ffffffffffffffffffffffffffffffffffffffff82169050919050565b60008115159050919050565b6000819050919050565b60006118b18261183a565b90509190505600a265627a7a7230582078748af1b7d13606c8c8c23c25de75278ec5f6204385a1ab120d9fba40473f936c6578706572696d656e74616cf50037",
  "source": "pragma solidity ^0.4.18;\npragma experimental ABIEncoderV2;\n\n/**\n * The Controller is a replaceable endpoint for minting and unminting Patch.sol\n */\n\nimport \"./IPatches.sol\";\nimport \"zeppelin-solidity/contracts/token/ERC20/ERC20.sol\";\n\nimport \"zeppelin-solidity/contracts/ownership/Ownable.sol\";\nimport \"zeppelin-solidity/contracts/math/SafeMath.sol\";\n\ncontract Controller is Ownable {\n\n    using SafeMath for uint;\n\n    event Bought(uint tokenId, uint amountPaid, address boughtBy);\n\n\n    address patches;\n    uint editionSize = 100;\n\n    function Controller(address _patches) public {\n        patches = _patches;\n    }    \n\n    function getPrice(uint _workId) public constant returns (uint) {\n        require(IPatches(patches).workExists(_workId));\n        uint soldSoFar = IPatches(patches).workSold(_workId).add(10); // artist, programmer, new models editions\n        require(soldSoFar < editionSize);\n        uint price = 1 finney;\n        price = price.mul(soldSoFar.sub(10).add(1).mul(10));\n        return price;\n    }\n\n/* ------------------------------------------------------------------------------------ */\n\n    /**\n    * @dev Buy an edition of a work.\n    * @param _to The address owning the work.\n    * @param _workId The Id of the work.\n    * @return A boolean representing whether or not the purchase was successful.\n    */\n    function buy(address _to, uint _workId) public payable returns (bool) {\n        uint edition = IPatches(patches).workSold(_workId).add(1).add(10); // artist, programmer, new models editions\n        require(edition <= editionSize);\n        uint price = getPrice(_workId); // reverts if tokenId is out of range\n        require(msg.value >= price);\n        uint _tokenId = _workId.mul(100).add(edition);\n\n        patches.transfer(price);\n        if (msg.value > price) {\n            msg.sender.send(msg.value.sub(price));\n        }\n\n        IPatches(patches).mint(_to, _tokenId);\n        Bought(_tokenId, price, _to);\n        return true;\n    }\n\n    function reserved(address _to, uint _workId) public returns (bool) {\n        if (_to == IPatches(patches).workArtist(_workId)) {\n            // sender is artist of work // 3 works\n            for (uint i = 1; i < 4; i++) {\n                if (!IPatches(patches).exists(_workId.mul(100).add(i))) {\n                    IPatches(patches).mint(_to, _workId.mul(100).add(i));\n                }\n            }\n        } else if (_to == IPatches(patches).getBilly()) {\n            // sender is programmer Billy // 2 works\n            for (i = 4; i < 6; i++) {\n                if (!IPatches(patches).exists(_workId.mul(100).add(i))) {\n                    IPatches(patches).mint(_to, _workId.mul(100).add(i));\n                }\n            }\n        } else if (_to == IPatches(patches).getWallet()) {\n            // sender is new models // 5 works\n            for (i = 6; i < 11; i++) {\n                if (!IPatches(patches).exists(_workId.mul(100).add(i))) {\n                    IPatches(patches).mint(_to, _workId.mul(100).add(i));\n                }\n            }\n        }\n    }\n\n    function moveEth(address _to, uint256 amount) public onlyOwner returns (bool) {\n        require(amount <= this.balance);\n        return _to.send(amount);\n    }\n    function moveToken(uint256 amount, address _to, address token) public onlyOwner returns (bool) {\n        require(amount <= ERC20(token).balanceOf(this));\n        return ERC20(token).transfer(_to, amount);\n    }\n    function approveToken(uint256 amount, address _to, address token) public onlyOwner returns (bool) {\n        return ERC20(token).approve(_to, amount);\n    }\n\n}",
  "sourcePath": "/Users/billy/sol/new-models-contracts/contracts/Controller.sol",
  "compiler": {
    "name": "solc",
    "version": "0.4.24+commit.e67f0147.Emscripten.clang"
  },
  "schemaVersion": "2.0.0",
  "updatedAt": "2018-06-10T19:14:54.643Z"
}