{
  "contractName": "Controller",
  "abi": [
    {
      "constant": true,
      "inputs": [],
      "name": "owner",
      "outputs": [
        {
          "name": "",
          "type": "address"
        }
      ],
      "payable": false,
      "stateMutability": "view",
      "type": "function"
    },
    {
      "constant": false,
      "inputs": [
        {
          "name": "newOwner",
          "type": "address"
        }
      ],
      "name": "transferOwnership",
      "outputs": [],
      "payable": false,
      "stateMutability": "nonpayable",
      "type": "function"
    },
    {
      "inputs": [
        {
          "name": "_badges",
          "type": "address"
        }
      ],
      "payable": false,
      "stateMutability": "nonpayable",
      "type": "constructor"
    },
    {
      "anonymous": false,
      "inputs": [
        {
          "indexed": false,
          "name": "tokenId",
          "type": "uint256"
        },
        {
          "indexed": false,
          "name": "amountPaid",
          "type": "uint256"
        },
        {
          "indexed": false,
          "name": "boughtBy",
          "type": "address"
        }
      ],
      "name": "Bought",
      "type": "event"
    },
    {
      "anonymous": false,
      "inputs": [
        {
          "indexed": true,
          "name": "previousOwner",
          "type": "address"
        },
        {
          "indexed": true,
          "name": "newOwner",
          "type": "address"
        }
      ],
      "name": "OwnershipTransferred",
      "type": "event"
    },
    {
      "constant": true,
      "inputs": [
        {
          "name": "_workId",
          "type": "uint256"
        }
      ],
      "name": "getPrice",
      "outputs": [
        {
          "name": "",
          "type": "uint256"
        }
      ],
      "payable": false,
      "stateMutability": "view",
      "type": "function"
    },
    {
      "constant": false,
      "inputs": [
        {
          "name": "_to",
          "type": "address"
        },
        {
          "name": "_workId",
          "type": "uint256"
        }
      ],
      "name": "buy",
      "outputs": [
        {
          "name": "",
          "type": "bool"
        }
      ],
      "payable": true,
      "stateMutability": "payable",
      "type": "function"
    },
    {
      "constant": false,
      "inputs": [
        {
          "name": "_to",
          "type": "address"
        },
        {
          "name": "_workId",
          "type": "uint256"
        }
      ],
      "name": "reserved",
      "outputs": [
        {
          "name": "",
          "type": "bool"
        }
      ],
      "payable": false,
      "stateMutability": "nonpayable",
      "type": "function"
    },
    {
      "constant": false,
      "inputs": [
        {
          "name": "_to",
          "type": "address"
        },
        {
          "name": "amount",
          "type": "uint256"
        }
      ],
      "name": "moveEth",
      "outputs": [
        {
          "name": "",
          "type": "bool"
        }
      ],
      "payable": false,
      "stateMutability": "nonpayable",
      "type": "function"
    },
    {
      "constant": false,
      "inputs": [
        {
          "name": "amount",
          "type": "uint256"
        },
        {
          "name": "_to",
          "type": "address"
        },
        {
          "name": "token",
          "type": "address"
        }
      ],
      "name": "moveToken",
      "outputs": [
        {
          "name": "",
          "type": "bool"
        }
      ],
      "payable": false,
      "stateMutability": "nonpayable",
      "type": "function"
    },
    {
      "constant": false,
      "inputs": [
        {
          "name": "amount",
          "type": "uint256"
        },
        {
          "name": "_to",
          "type": "address"
        },
        {
          "name": "token",
          "type": "address"
        }
      ],
      "name": "approveToken",
      "outputs": [
        {
          "name": "",
          "type": "bool"
        }
      ],
      "payable": false,
      "stateMutability": "nonpayable",
      "type": "function"
    }
  ],
  "bytecode": "0x60606040526064600255341561001457600080fd5b6040516020806117658339810160405261003790678000000000000000906100d2565b336000806101000a81548173ffffffffffffffffffffffffffffffffffffffff021916908373ffffffffffffffffffffffffffffffffffffffff16021790555080600160006101000a81548173ffffffffffffffffffffffffffffffffffffffff021916908373ffffffffffffffffffffffffffffffffffffffff1602179055505061011b565b60006100ca82516100fb565b905092915050565b6000602082840312156100e457600080fd5b60006100f2848285016100be565b91505092915050565b600073ffffffffffffffffffffffffffffffffffffffff82169050919050565b61163b8061012a6000396000f30060606040526004361061008e576000357c0100000000000000000000000000000000000000000000000000000000900463ffffffff1680631cc1472d14610093578063837119de146100c95780638da5cb5b146100ff578063b7f8aa0014610128578063cce7ec131461015e578063e757223014610189578063f2fde38b146101bf578063f760a4e2146101e1575b600080fd5b341561009e57600080fd5b6100b360046100ae9036906113d3565b610217565b6040516100c09190611507565b60405180910390f35b34156100d457600080fd5b6100e960046100e49036906113d3565b6102d7565b6040516100f69190611507565b60405180910390f35b341561010a57600080fd5b610112610a85565b60405161011f91906114c3565b60405180910390f35b341561013357600080fd5b6101486004610143903690611438565b610aaa565b6040516101559190611507565b60405180910390f35b610173600461016e9036906113d3565b610b97565b6040516101809190611507565b60405180910390f35b341561019457600080fd5b6101a960046101a490369061140f565b610e5b565b6040516101b6919061153d565b60405180910390f35b34156101ca57600080fd5b6101df60046101da9036906113aa565b611040565b005b34156101ec57600080fd5b61020160046101fc903690611438565b611195565b60405161020e9190611507565b60405180910390f35b60008060009054906101000a900473ffffffffffffffffffffffffffffffffffffffff1673ffffffffffffffffffffffffffffffffffffffff163373ffffffffffffffffffffffffffffffffffffffff1614151561027457600080fd5b3073ffffffffffffffffffffffffffffffffffffffff1631821115151561029a57600080fd5b8273ffffffffffffffffffffffffffffffffffffffff166108fc839081150290604051600060405180830381858888f19350505050905092915050565b600080600160009054906101000a900473ffffffffffffffffffffffffffffffffffffffff1673ffffffffffffffffffffffffffffffffffffffff1663ad11d4a7846040518263ffffffff167c0100000000000000000000000000000000000000000000000000000000028152600401610351919061153d565b602060405180830381600087803b151561036a57600080fd5b5af1151561037757600080fd5b5050506040518051905073ffffffffffffffffffffffffffffffffffffffff168473ffffffffffffffffffffffffffffffffffffffff16141561056e57600190505b600481101561056957600160009054906101000a900473ffffffffffffffffffffffffffffffffffffffff1673ffffffffffffffffffffffffffffffffffffffff16634f558e796104268361041860648861131590919063ffffffff16565b61134d90919063ffffffff16565b6040518263ffffffff167c010000000000000000000000000000000000000000000000000000000002815260040161045e919061153d565b602060405180830381600087803b151561047757600080fd5b5af1151561048457600080fd5b50505060405180519050151561055c57600160009054906101000a900473ffffffffffffffffffffffffffffffffffffffff1673ffffffffffffffffffffffffffffffffffffffff166340c10f19856104f9846104eb60648961131590919063ffffffff16565b61134d90919063ffffffff16565b6040518363ffffffff167c01000000000000000000000000000000000000000000000000000000000281526004016105329291906114de565b600060405180830381600087803b151561054b57600080fd5b5af1151561055857600080fd5b5050505b80806001019150506103b9565b610a7e565b600160009054906101000a900473ffffffffffffffffffffffffffffffffffffffff1673ffffffffffffffffffffffffffffffffffffffff1663d75987e46040518163ffffffff167c0100000000000000000000000000000000000000000000000000000000028152600401602060405180830381600087803b15156105f357600080fd5b5af1151561060057600080fd5b5050506040518051905073ffffffffffffffffffffffffffffffffffffffff168473ffffffffffffffffffffffffffffffffffffffff1614156107f757600490505b60068110156107f257600160009054906101000a900473ffffffffffffffffffffffffffffffffffffffff1673ffffffffffffffffffffffffffffffffffffffff16634f558e796106af836106a160648861131590919063ffffffff16565b61134d90919063ffffffff16565b6040518263ffffffff167c01000000000000000000000000000000000000000000000000000000000281526004016106e7919061153d565b602060405180830381600087803b151561070057600080fd5b5af1151561070d57600080fd5b5050506040518051905015156107e557600160009054906101000a900473ffffffffffffffffffffffffffffffffffffffff1673ffffffffffffffffffffffffffffffffffffffff166340c10f19856107828461077460648961131590919063ffffffff16565b61134d90919063ffffffff16565b6040518363ffffffff167c01000000000000000000000000000000000000000000000000000000000281526004016107bb9291906114de565b600060405180830381600087803b15156107d457600080fd5b5af115156107e157600080fd5b5050505b8080600101915050610642565b610a7d565b600160009054906101000a900473ffffffffffffffffffffffffffffffffffffffff1673ffffffffffffffffffffffffffffffffffffffff1663132996046040518163ffffffff167c0100000000000000000000000000000000000000000000000000000000028152600401602060405180830381600087803b151561087c57600080fd5b5af1151561088957600080fd5b5050506040518051905073ffffffffffffffffffffffffffffffffffffffff168473ffffffffffffffffffffffffffffffffffffffff161415610a7c57600690505b600b811015610a7b57600160009054906101000a900473ffffffffffffffffffffffffffffffffffffffff1673ffffffffffffffffffffffffffffffffffffffff16634f558e796109388361092a60648861131590919063ffffffff16565b61134d90919063ffffffff16565b6040518263ffffffff167c0100000000000000000000000000000000000000000000000000000000028152600401610970919061153d565b602060405180830381600087803b151561098957600080fd5b5af1151561099657600080fd5b505050604051805190501515610a6e57600160009054906101000a900473ffffffffffffffffffffffffffffffffffffffff1673ffffffffffffffffffffffffffffffffffffffff166340c10f1985610a0b846109fd60648961131590919063ffffffff16565b61134d90919063ffffffff16565b6040518363ffffffff167c0100000000000000000000000000000000000000000000000000000000028152600401610a449291906114de565b600060405180830381600087803b1515610a5d57600080fd5b5af11515610a6a57600080fd5b5050505b80806001019150506108cb565b5b5b5b5092915050565b6000809054906101000a900473ffffffffffffffffffffffffffffffffffffffff1681565b60008060009054906101000a900473ffffffffffffffffffffffffffffffffffffffff1673ffffffffffffffffffffffffffffffffffffffff163373ffffffffffffffffffffffffffffffffffffffff16141515610b0757600080fd5b8173ffffffffffffffffffffffffffffffffffffffff1663095ea7b384866040518363ffffffff167c0100000000000000000000000000000000000000000000000000000000028152600401610b5e9291906114de565b602060405180830381600087803b1515610b7757600080fd5b5af11515610b8457600080fd5b5050506040518051905090509392505050565b600080600080610c69600a610c5b60018060009054906101000a900473ffffffffffffffffffffffffffffffffffffffff1673ffffffffffffffffffffffffffffffffffffffff1663a466c2cc8a6040518263ffffffff167c0100000000000000000000000000000000000000000000000000000000028152600401610c1d919061153d565b602060405180830381600087803b1515610c3657600080fd5b5af11515610c4357600080fd5b5050506040518051905061134d90919063ffffffff16565b61134d90919063ffffffff16565b92506002548311151515610c7c57600080fd5b610c8585610e5b565b9150813410151515610c9657600080fd5b610cbc83610cae60648861131590919063ffffffff16565b61134d90919063ffffffff16565b9050600160009054906101000a900473ffffffffffffffffffffffffffffffffffffffff1673ffffffffffffffffffffffffffffffffffffffff166108fc839081150290604051600060405180830381858888f193505050501515610d2057600080fd5b81341115610d71573373ffffffffffffffffffffffffffffffffffffffff166108fc610d55843461136990919063ffffffff16565b9081150290604051600060405180830381858888f19350505050505b600160009054906101000a900473ffffffffffffffffffffffffffffffffffffffff1673ffffffffffffffffffffffffffffffffffffffff166340c10f1987836040518363ffffffff167c0100000000000000000000000000000000000000000000000000000000028152600401610dea9291906114de565b600060405180830381600087803b1515610e0357600080fd5b5af11515610e1057600080fd5b5050507fa2a8034590a15fe810e9813d736096c0a03b3236cecb34b5b9f687ed67a6a624818388604051610e4693929190611558565b60405180910390a16001935050505092915050565b6000806000600160009054906101000a900473ffffffffffffffffffffffffffffffffffffffff1673ffffffffffffffffffffffffffffffffffffffff1663ffcc8d0e856040518263ffffffff167c0100000000000000000000000000000000000000000000000000000000028152600401610ed7919061153d565b602060405180830381600087803b1515610ef057600080fd5b5af11515610efd57600080fd5b505050604051805190501515610f1257600080fd5b610fcc600a600160009054906101000a900473ffffffffffffffffffffffffffffffffffffffff1673ffffffffffffffffffffffffffffffffffffffff1663a466c2cc876040518263ffffffff167c0100000000000000000000000000000000000000000000000000000000028152600401610f8e919061153d565b602060405180830381600087803b1515610fa757600080fd5b5af11515610fb457600080fd5b5050506040518051905061134d90919063ffffffff16565b915060025482101515610fde57600080fd5b66038d7ea4c680009050611034611025600a6110176001611009600a8861136990919063ffffffff16565b61134d90919063ffffffff16565b61131590919063ffffffff16565b8261131590919063ffffffff16565b90508092505050919050565b6000809054906101000a900473ffffffffffffffffffffffffffffffffffffffff1673ffffffffffffffffffffffffffffffffffffffff163373ffffffffffffffffffffffffffffffffffffffff1614151561109b57600080fd5b600073ffffffffffffffffffffffffffffffffffffffff168173ffffffffffffffffffffffffffffffffffffffff16141515156110d757600080fd5b8073ffffffffffffffffffffffffffffffffffffffff166000809054906101000a900473ffffffffffffffffffffffffffffffffffffffff1673ffffffffffffffffffffffffffffffffffffffff167f8be0079c531659141344cd1fd0a4f28419497f9722a3daafe3b4186f6b6457e060405160405180910390a3806000806101000a81548173ffffffffffffffffffffffffffffffffffffffff021916908373ffffffffffffffffffffffffffffffffffffffff16021790555050565b60008060009054906101000a900473ffffffffffffffffffffffffffffffffffffffff1673ffffffffffffffffffffffffffffffffffffffff163373ffffffffffffffffffffffffffffffffffffffff161415156111f257600080fd5b8173ffffffffffffffffffffffffffffffffffffffff166370a08231306040518263ffffffff167c01000000000000000000000000000000000000000000000000000000000281526004016112479190611522565b602060405180830381600087803b151561126057600080fd5b5af1151561126d57600080fd5b50505060405180519050841115151561128557600080fd5b8173ffffffffffffffffffffffffffffffffffffffff1663a9059cbb84866040518363ffffffff167c01000000000000000000000000000000000000000000000000000000000281526004016112dc9291906114de565b602060405180830381600087803b15156112f557600080fd5b5af1151561130257600080fd5b5050506040518051905090509392505050565b6000808314156113285760009050611347565b818302905081838281151561133957fe5b0414151561134357fe5b8090505b92915050565b6000818301905082811015151561136057fe5b80905092915050565b600082821115151561137757fe5b818303905092915050565b600061138e82356115c5565b905092915050565b60006113a282356115e5565b905092915050565b6000602082840312156113bc57600080fd5b60006113ca84828501611382565b91505092915050565b600080604083850312156113e657600080fd5b60006113f485828601611382565b925050602061140585828601611396565b9150509250929050565b60006020828403121561142157600080fd5b600061142f84828501611396565b91505092915050565b60008060006060848603121561144d57600080fd5b600061145b86828701611396565b935050602061146c86828701611382565b925050604061147d86828701611382565b9150509250925092565b6114908161158f565b82525050565b61149f816115af565b82525050565b6114ae816115ef565b82525050565b6114bd816115bb565b82525050565b60006020820190506114d86000830184611487565b92915050565b60006040820190506114f36000830185611487565b61150060208301846114b4565b9392505050565b600060208201905061151c6000830184611496565b92915050565b600060208201905061153760008301846114a5565b92915050565b600060208201905061155260008301846114b4565b92915050565b600060608201905061156d60008301866114b4565b61157a60208301856114b4565b6115876040830184611487565b949350505050565b600073ffffffffffffffffffffffffffffffffffffffff82169050919050565b60008115159050919050565b6000819050919050565b600073ffffffffffffffffffffffffffffffffffffffff82169050919050565b6000819050919050565b60006115fa8261158f565b90509190505600a265627a7a723058207903b1b3b3edaeedfa822aaecbb0690012122759dd0b72754726f3ba5f4ff2ed6c6578706572696d656e74616cf50037",
  "source": "pragma solidity ^0.4.18;\npragma experimental ABIEncoderV2;\n\n/**\n * The Controller is a replaceable endpoint for minting and unminting Badge.sol\n */\n\nimport \"./IBadges.sol\";\nimport \"zeppelin-solidity/contracts/token/ERC20/ERC20.sol\";\n\nimport \"zeppelin-solidity/contracts/ownership/Ownable.sol\";\nimport \"zeppelin-solidity/contracts/math/SafeMath.sol\";\n\ncontract Controller is Ownable {\n\n    using SafeMath for uint;\n\n    event Bought(uint tokenId, uint amountPaid, address boughtBy);\n\n\n    address badges;\n    uint editionSize = 100;\n\n    function Controller(address _badges) public {\n        badges = _badges;\n    }    \n\n    function getPrice(uint _workId) public constant returns (uint) {\n        require(IBadges(badges).workExists(_workId));\n        uint soldSoFar = IBadges(badges).workSold(_workId).add(10); // artist, programmer, new models editions\n        require(soldSoFar < editionSize);\n        uint price = 1 finney;\n        price = price.mul(soldSoFar.sub(10).add(1).mul(10));\n        return price;\n    }\n\n/* ------------------------------------------------------------------------------------ */\n\n    /**\n    * @dev Buy an edition of a work.\n    * @param _to The address owning the work.\n    * @param _workId The Id of the work.\n    * @return A boolean representing whether or not the purchase was successful.\n    */\n    function buy(address _to, uint _workId) public payable returns (bool) {\n        uint edition = IBadges(badges).workSold(_workId).add(1).add(10); // artist, programmer, new models editions\n        require(edition <= editionSize);\n        uint price = getPrice(_workId); // reverts if tokenId is out of range\n        require(msg.value >= price);\n        uint _tokenId = _workId.mul(100).add(edition);\n\n        badges.transfer(price);\n        if (msg.value > price) {\n            msg.sender.send(msg.value.sub(price));\n        }\n\n        IBadges(badges).mint(_to, _tokenId);\n        Bought(_tokenId, price, _to);\n        return true;\n    }\n\n    function reserved(address _to, uint _workId) public returns (bool) {\n        if (_to == IBadges(badges).workArtist(_workId)) {\n            // sender is artist of work // 3 works\n            for (uint i = 1; i < 4; i++) {\n                if (!IBadges(badges).exists(_workId.mul(100).add(i))) {\n                    IBadges(badges).mint(_to, _workId.mul(100).add(i));\n                }\n            }\n        } else if (_to == IBadges(badges).getBilly()) {\n            // sender is programmer Billy // 2 works\n            for (i = 4; i < 6; i++) {\n                if (!IBadges(badges).exists(_workId.mul(100).add(i))) {\n                    IBadges(badges).mint(_to, _workId.mul(100).add(i));\n                }\n            }\n        } else if (_to == IBadges(badges).getWallet()) {\n            // sender is new models // 5 works\n            for (i = 6; i < 11; i++) {\n                if (!IBadges(badges).exists(_workId.mul(100).add(i))) {\n                    IBadges(badges).mint(_to, _workId.mul(100).add(i));\n                }\n            }\n        }\n    }\n\n    function moveEth(address _to, uint256 amount) public onlyOwner returns (bool) {\n        require(amount <= this.balance);\n        return _to.send(amount);\n    }\n    function moveToken(uint256 amount, address _to, address token) public onlyOwner returns (bool) {\n        require(amount <= ERC20(token).balanceOf(this));\n        return ERC20(token).transfer(_to, amount);\n    }\n    function approveToken(uint256 amount, address _to, address token) public onlyOwner returns (bool) {\n        return ERC20(token).approve(_to, amount);\n    }\n\n}",
  "sourcePath": "/Users/billy/sol/new-models/contracts/Controller.sol",
  "compiler": {
    "name": "solc",
    "version": "0.4.21+commit.dfe3193c.Emscripten.clang"
  },
  "schemaVersion": "2.0.0",
  "updatedAt": "2018-05-28T15:36:18.911Z"
}