{
  "contractName": "Controller",
  "abi": [
    {
      "constant": false,
      "inputs": [],
      "name": "renounceOwnership",
      "outputs": [],
      "payable": false,
      "stateMutability": "nonpayable",
      "type": "function"
    },
    {
      "constant": true,
      "inputs": [],
      "name": "owner",
      "outputs": [
        {
          "name": "",
          "type": "address"
        }
      ],
      "payable": false,
      "stateMutability": "view",
      "type": "function"
    },
    {
      "constant": false,
      "inputs": [
        {
          "name": "_newOwner",
          "type": "address"
        }
      ],
      "name": "transferOwnership",
      "outputs": [],
      "payable": false,
      "stateMutability": "nonpayable",
      "type": "function"
    },
    {
      "inputs": [
        {
          "name": "_patches",
          "type": "address"
        }
      ],
      "payable": false,
      "stateMutability": "nonpayable",
      "type": "constructor"
    },
    {
      "anonymous": false,
      "inputs": [
        {
          "indexed": false,
          "name": "tokenId",
          "type": "uint256"
        },
        {
          "indexed": false,
          "name": "amountPaid",
          "type": "uint256"
        },
        {
          "indexed": false,
          "name": "boughtBy",
          "type": "address"
        }
      ],
      "name": "Bought",
      "type": "event"
    },
    {
      "anonymous": false,
      "inputs": [
        {
          "indexed": true,
          "name": "previousOwner",
          "type": "address"
        }
      ],
      "name": "OwnershipRenounced",
      "type": "event"
    },
    {
      "anonymous": false,
      "inputs": [
        {
          "indexed": true,
          "name": "previousOwner",
          "type": "address"
        },
        {
          "indexed": true,
          "name": "newOwner",
          "type": "address"
        }
      ],
      "name": "OwnershipTransferred",
      "type": "event"
    },
    {
      "constant": true,
      "inputs": [
        {
          "name": "_workId",
          "type": "uint256"
        }
      ],
      "name": "getPrice",
      "outputs": [
        {
          "name": "",
          "type": "uint256"
        }
      ],
      "payable": false,
      "stateMutability": "view",
      "type": "function"
    },
    {
      "constant": false,
      "inputs": [
        {
          "name": "_to",
          "type": "address"
        },
        {
          "name": "_workId",
          "type": "uint256"
        }
      ],
      "name": "buy",
      "outputs": [
        {
          "name": "",
          "type": "bool"
        }
      ],
      "payable": true,
      "stateMutability": "payable",
      "type": "function"
    },
    {
      "constant": false,
      "inputs": [
        {
          "name": "_workId",
          "type": "uint256"
        }
      ],
      "name": "reserved",
      "outputs": [
        {
          "name": "",
          "type": "bool"
        }
      ],
      "payable": false,
      "stateMutability": "nonpayable",
      "type": "function"
    },
    {
      "constant": false,
      "inputs": [
        {
          "name": "_to",
          "type": "address"
        },
        {
          "name": "amount",
          "type": "uint256"
        }
      ],
      "name": "moveEth",
      "outputs": [
        {
          "name": "",
          "type": "bool"
        }
      ],
      "payable": false,
      "stateMutability": "nonpayable",
      "type": "function"
    },
    {
      "constant": false,
      "inputs": [
        {
          "name": "amount",
          "type": "uint256"
        },
        {
          "name": "_to",
          "type": "address"
        },
        {
          "name": "token",
          "type": "address"
        }
      ],
      "name": "moveToken",
      "outputs": [
        {
          "name": "",
          "type": "bool"
        }
      ],
      "payable": false,
      "stateMutability": "nonpayable",
      "type": "function"
    },
    {
      "constant": false,
      "inputs": [
        {
          "name": "amount",
          "type": "uint256"
        },
        {
          "name": "_to",
          "type": "address"
        },
        {
          "name": "token",
          "type": "address"
        }
      ],
      "name": "approveToken",
      "outputs": [
        {
          "name": "",
          "type": "bool"
        }
      ],
      "payable": false,
      "stateMutability": "nonpayable",
      "type": "function"
    }
  ],
  "bytecode": "0x6080604052606460025534801561001557600080fd5b5060405160208062001a8a833981018060405261003591908101906100d0565b336000806101000a81548173ffffffffffffffffffffffffffffffffffffffff021916908373ffffffffffffffffffffffffffffffffffffffff16021790555080600160006101000a81548173ffffffffffffffffffffffffffffffffffffffff021916908373ffffffffffffffffffffffffffffffffffffffff16021790555050610119565b60006100c882516100f9565b905092915050565b6000602082840312156100e257600080fd5b60006100f0848285016100bc565b91505092915050565b600073ffffffffffffffffffffffffffffffffffffffff82169050919050565b61196180620001296000396000f300608060405260043610610099576000357c0100000000000000000000000000000000000000000000000000000000900463ffffffff1680631cc1472d1461009e57806353f9195e146100db578063715018a6146101185780638da5cb5b1461012f578063b7f8aa001461015a578063cce7ec1314610197578063e7572230146101c7578063f2fde38b14610204578063f760a4e21461022d575b600080fd5b3480156100aa57600080fd5b506100c560048036036100c0919081019061169b565b61026a565b6040516100d29190611821565b60405180910390f35b3480156100e757600080fd5b5061010260048036036100fd9190810190611700565b61032a565b60405161010f9190611821565b60405180910390f35b34801561012457600080fd5b5061012d610aeb565b005b34801561013b57600080fd5b50610144610bed565b60405161015191906117dd565b60405180910390f35b34801561016657600080fd5b50610181600480360361017c9190810190611752565b610c12565b60405161018e9190611821565b60405180910390f35b6101b160048036036101ac919081019061169b565b610d21565b6040516101be9190611821565b60405180910390f35b3480156101d357600080fd5b506101ee60048036036101e99190810190611700565b61102a565b6040516101fb9190611857565b60405180910390f35b34801561021057600080fd5b5061022b60048036036102269190810190611649565b611253565b005b34801561023957600080fd5b50610254600480360361024f9190810190611752565b6112ba565b6040516102619190611821565b60405180910390f35b60008060009054906101000a900473ffffffffffffffffffffffffffffffffffffffff1673ffffffffffffffffffffffffffffffffffffffff163373ffffffffffffffffffffffffffffffffffffffff161415156102c757600080fd5b3073ffffffffffffffffffffffffffffffffffffffff163182111515156102ed57600080fd5b8273ffffffffffffffffffffffffffffffffffffffff166108fc839081150290604051600060405180830381858888f19350505050905092915050565b6000806000600190505b60048110156105c85761037681610368606461035a60018961147e90919063ffffffff16565b61149790919063ffffffff16565b6114cf90919063ffffffff16565b9150600160009054906101000a900473ffffffffffffffffffffffffffffffffffffffff1673ffffffffffffffffffffffffffffffffffffffff16634f558e79836040518263ffffffff167c01000000000000000000000000000000000000000000000000000000000281526004016103ef9190611857565b602060405180830381600087803b15801561040957600080fd5b505af115801561041d573d6000803e3d6000fd5b505050506040513d601f19601f8201168201806040525061044191908101906116d7565b15156105bb57600160009054906101000a900473ffffffffffffffffffffffffffffffffffffffff1673ffffffffffffffffffffffffffffffffffffffff166340c10f19600160009054906101000a900473ffffffffffffffffffffffffffffffffffffffff1673ffffffffffffffffffffffffffffffffffffffff1663ad11d4a7876040518263ffffffff167c01000000000000000000000000000000000000000000000000000000000281526004016104fc9190611857565b602060405180830381600087803b15801561051657600080fd5b505af115801561052a573d6000803e3d6000fd5b505050506040513d601f19601f8201168201806040525061054e9190810190611672565b846040518363ffffffff167c01000000000000000000000000000000000000000000000000000000000281526004016105889291906117f8565b600060405180830381600087803b1580156105a257600080fd5b505af11580156105b6573d6000803e3d6000fd5b505050505b8080600101915050610334565b600490505b60068110156108565761060f8161060160646105f360018961147e90919063ffffffff16565b61149790919063ffffffff16565b6114cf90919063ffffffff16565b9150600160009054906101000a900473ffffffffffffffffffffffffffffffffffffffff1673ffffffffffffffffffffffffffffffffffffffff16634f558e79836040518263ffffffff167c01000000000000000000000000000000000000000000000000000000000281526004016106889190611857565b602060405180830381600087803b1580156106a257600080fd5b505af11580156106b6573d6000803e3d6000fd5b505050506040513d601f19601f820116820180604052506106da91908101906116d7565b151561084957600160009054906101000a900473ffffffffffffffffffffffffffffffffffffffff1673ffffffffffffffffffffffffffffffffffffffff166340c10f19600160009054906101000a900473ffffffffffffffffffffffffffffffffffffffff1673ffffffffffffffffffffffffffffffffffffffff1663d75987e46040518163ffffffff167c0100000000000000000000000000000000000000000000000000000000028152600401602060405180830381600087803b1580156107a457600080fd5b505af11580156107b8573d6000803e3d6000fd5b505050506040513d601f19601f820116820180604052506107dc9190810190611672565b846040518363ffffffff167c01000000000000000000000000000000000000000000000000000000000281526004016108169291906117f8565b600060405180830381600087803b15801561083057600080fd5b505af1158015610844573d6000803e3d6000fd5b505050505b80806001019150506105cd565b600690505b600b811015610ae45761089d8161088f606461088160018961147e90919063ffffffff16565b61149790919063ffffffff16565b6114cf90919063ffffffff16565b9150600160009054906101000a900473ffffffffffffffffffffffffffffffffffffffff1673ffffffffffffffffffffffffffffffffffffffff16634f558e79836040518263ffffffff167c01000000000000000000000000000000000000000000000000000000000281526004016109169190611857565b602060405180830381600087803b15801561093057600080fd5b505af1158015610944573d6000803e3d6000fd5b505050506040513d601f19601f8201168201806040525061096891908101906116d7565b1515610ad757600160009054906101000a900473ffffffffffffffffffffffffffffffffffffffff1673ffffffffffffffffffffffffffffffffffffffff166340c10f19600160009054906101000a900473ffffffffffffffffffffffffffffffffffffffff1673ffffffffffffffffffffffffffffffffffffffff1663132996046040518163ffffffff167c0100000000000000000000000000000000000000000000000000000000028152600401602060405180830381600087803b158015610a3257600080fd5b505af1158015610a46573d6000803e3d6000fd5b505050506040513d601f19601f82011682018060405250610a6a9190810190611672565b846040518363ffffffff167c0100000000000000000000000000000000000000000000000000000000028152600401610aa49291906117f8565b600060405180830381600087803b158015610abe57600080fd5b505af1158015610ad2573d6000803e3d6000fd5b505050505b808060010191505061085b565b5050919050565b6000809054906101000a900473ffffffffffffffffffffffffffffffffffffffff1673ffffffffffffffffffffffffffffffffffffffff163373ffffffffffffffffffffffffffffffffffffffff16141515610b4657600080fd5b6000809054906101000a900473ffffffffffffffffffffffffffffffffffffffff1673ffffffffffffffffffffffffffffffffffffffff167ff8df31144d9c2f0f6b59d69b8b98abd5459d07f2742c4df920b25aae33c6482060405160405180910390a260008060006101000a81548173ffffffffffffffffffffffffffffffffffffffff021916908373ffffffffffffffffffffffffffffffffffffffff160217905550565b6000809054906101000a900473ffffffffffffffffffffffffffffffffffffffff1681565b60008060009054906101000a900473ffffffffffffffffffffffffffffffffffffffff1673ffffffffffffffffffffffffffffffffffffffff163373ffffffffffffffffffffffffffffffffffffffff16141515610c6f57600080fd5b8173ffffffffffffffffffffffffffffffffffffffff1663095ea7b384866040518363ffffffff167c0100000000000000000000000000000000000000000000000000000000028152600401610cc69291906117f8565b602060405180830381600087803b158015610ce057600080fd5b505af1158015610cf4573d6000803e3d6000fd5b505050506040513d601f19601f82011682018060405250610d1891908101906116d7565b90509392505050565b600080600080610e15600a610e0760018060009054906101000a900473ffffffffffffffffffffffffffffffffffffffff1673ffffffffffffffffffffffffffffffffffffffff1663a466c2cc8a6040518263ffffffff167c0100000000000000000000000000000000000000000000000000000000028152600401610da79190611857565b602060405180830381600087803b158015610dc157600080fd5b505af1158015610dd5573d6000803e3d6000fd5b505050506040513d601f19601f82011682018060405250610df99190810190611729565b6114cf90919063ffffffff16565b6114cf90919063ffffffff16565b92506002548311151515610e2857600080fd5b610e318561102a565b9150813410151515610e4257600080fd5b610e7b83610e6d6064610e5f60018a61147e90919063ffffffff16565b61149790919063ffffffff16565b6114cf90919063ffffffff16565b9050600160009054906101000a900473ffffffffffffffffffffffffffffffffffffffff1673ffffffffffffffffffffffffffffffffffffffff166108fc839081150290604051600060405180830381858888f19350505050158015610ee5573d6000803e3d6000fd5b5081341115610f37573373ffffffffffffffffffffffffffffffffffffffff166108fc610f1b843461147e90919063ffffffff16565b9081150290604051600060405180830381858888f19350505050505b600160009054906101000a900473ffffffffffffffffffffffffffffffffffffffff1673ffffffffffffffffffffffffffffffffffffffff166340c10f1987836040518363ffffffff167c0100000000000000000000000000000000000000000000000000000000028152600401610fb09291906117f8565b600060405180830381600087803b158015610fca57600080fd5b505af1158015610fde573d6000803e3d6000fd5b505050507fa2a8034590a15fe810e9813d736096c0a03b3236cecb34b5b9f687ed67a6a62481838860405161101593929190611872565b60405180910390a16001935050505092915050565b6000806000600160009054906101000a900473ffffffffffffffffffffffffffffffffffffffff1673ffffffffffffffffffffffffffffffffffffffff1663ffcc8d0e856040518263ffffffff167c01000000000000000000000000000000000000000000000000000000000281526004016110a69190611857565b602060405180830381600087803b1580156110c057600080fd5b505af11580156110d4573d6000803e3d6000fd5b505050506040513d601f19601f820116820180604052506110f891908101906116d7565b151561110357600080fd5b6111df600a600160009054906101000a900473ffffffffffffffffffffffffffffffffffffffff1673ffffffffffffffffffffffffffffffffffffffff1663a466c2cc876040518263ffffffff167c010000000000000000000000000000000000000000000000000000000002815260040161117f9190611857565b602060405180830381600087803b15801561119957600080fd5b505af11580156111ad573d6000803e3d6000fd5b505050506040513d601f19601f820116820180604052506111d19190810190611729565b6114cf90919063ffffffff16565b9150600254821015156111f157600080fd5b66038d7ea4c680009050611247611238600a61122a600161121c600a8861147e90919063ffffffff16565b6114cf90919063ffffffff16565b61149790919063ffffffff16565b8261149790919063ffffffff16565b90508092505050919050565b6000809054906101000a900473ffffffffffffffffffffffffffffffffffffffff1673ffffffffffffffffffffffffffffffffffffffff163373ffffffffffffffffffffffffffffffffffffffff161415156112ae57600080fd5b6112b7816114eb565b50565b60008060009054906101000a900473ffffffffffffffffffffffffffffffffffffffff1673ffffffffffffffffffffffffffffffffffffffff163373ffffffffffffffffffffffffffffffffffffffff1614151561131757600080fd5b8173ffffffffffffffffffffffffffffffffffffffff166370a08231306040518263ffffffff167c010000000000000000000000000000000000000000000000000000000002815260040161136c919061183c565b602060405180830381600087803b15801561138657600080fd5b505af115801561139a573d6000803e3d6000fd5b505050506040513d601f19601f820116820180604052506113be9190810190611729565b84111515156113cc57600080fd5b8173ffffffffffffffffffffffffffffffffffffffff1663a9059cbb84866040518363ffffffff167c01000000000000000000000000000000000000000000000000000000000281526004016114239291906117f8565b602060405180830381600087803b15801561143d57600080fd5b505af1158015611451573d6000803e3d6000fd5b505050506040513d601f19601f8201168201806040525061147591908101906116d7565b90509392505050565b600082821115151561148c57fe5b818303905092915050565b6000808314156114aa57600090506114c9565b81830290508183828115156114bb57fe5b041415156114c557fe5b8090505b92915050565b600081830190508281101515156114e257fe5b80905092915050565b600073ffffffffffffffffffffffffffffffffffffffff168173ffffffffffffffffffffffffffffffffffffffff161415151561152757600080fd5b8073ffffffffffffffffffffffffffffffffffffffff166000809054906101000a900473ffffffffffffffffffffffffffffffffffffffff1673ffffffffffffffffffffffffffffffffffffffff167f8be0079c531659141344cd1fd0a4f28419497f9722a3daafe3b4186f6b6457e060405160405180910390a3806000806101000a81548173ffffffffffffffffffffffffffffffffffffffff021916908373ffffffffffffffffffffffffffffffffffffffff16021790555050565b60006115f182356118df565b905092915050565b600061160582516118df565b905092915050565b600061161982516118ff565b905092915050565b600061162d823561190b565b905092915050565b6000611641825161190b565b905092915050565b60006020828403121561165b57600080fd5b6000611669848285016115e5565b91505092915050565b60006020828403121561168457600080fd5b6000611692848285016115f9565b91505092915050565b600080604083850312156116ae57600080fd5b60006116bc858286016115e5565b92505060206116cd85828601611621565b9150509250929050565b6000602082840312156116e957600080fd5b60006116f78482850161160d565b91505092915050565b60006020828403121561171257600080fd5b600061172084828501611621565b91505092915050565b60006020828403121561173b57600080fd5b600061174984828501611635565b91505092915050565b60008060006060848603121561176757600080fd5b600061177586828701611621565b9350506020611786868287016115e5565b9250506040611797868287016115e5565b9150509250925092565b6117aa816118a9565b82525050565b6117b9816118c9565b82525050565b6117c881611915565b82525050565b6117d7816118d5565b82525050565b60006020820190506117f260008301846117a1565b92915050565b600060408201905061180d60008301856117a1565b61181a60208301846117ce565b9392505050565b600060208201905061183660008301846117b0565b92915050565b600060208201905061185160008301846117bf565b92915050565b600060208201905061186c60008301846117ce565b92915050565b600060608201905061188760008301866117ce565b61189460208301856117ce565b6118a160408301846117a1565b949350505050565b600073ffffffffffffffffffffffffffffffffffffffff82169050919050565b60008115159050919050565b6000819050919050565b600073ffffffffffffffffffffffffffffffffffffffff82169050919050565b60008115159050919050565b6000819050919050565b6000611920826118a9565b90509190505600a265627a7a72305820a7b8d5a730ff651b29b8cb04970e76e4b3b8093d9eac27bb3bc512a9ed2a80556c6578706572696d656e74616cf50037",
  "source": "pragma solidity ^0.4.18;\npragma experimental ABIEncoderV2;\n\n/**\n * The Controller is a replaceable endpoint for minting and unminting Patch.sol\n */\n\nimport \"./IPatches.sol\";\nimport \"zeppelin-solidity/contracts/token/ERC20/ERC20.sol\";\n\nimport \"zeppelin-solidity/contracts/ownership/Ownable.sol\";\nimport \"zeppelin-solidity/contracts/math/SafeMath.sol\";\n\ncontract Controller is Ownable {\n\n    using SafeMath for uint;\n\n    event Bought(uint tokenId, uint amountPaid, address boughtBy);\n\n\n    address patches;\n    uint editionSize = 100;\n\n    function Controller(address _patches) public {\n        patches = _patches;\n    }    \n\n    function getPrice(uint _workId) public constant returns (uint) {\n        require(IPatches(patches).workExists(_workId));\n        uint soldSoFar = IPatches(patches).workSold(_workId).add(10); // artist, programmer, new models editions\n        require(soldSoFar < editionSize);\n        uint price = 1 finney;\n        price = price.mul(soldSoFar.sub(10).add(1).mul(10));\n        return price;\n    }\n\n/* ------------------------------------------------------------------------------------ */\n\n    /**\n    * @dev Buy an edition of a work.\n    * @param _to The address owning the work.\n    * @param _workId The Id of the work.\n    * @return A boolean representing whether or not the purchase was successful.\n    */\n    function buy(address _to, uint _workId) public payable returns (bool) {\n        uint edition = IPatches(patches).workSold(_workId).add(1).add(10); // artist, programmer, new models editions\n        require(edition <= editionSize);\n        uint price = getPrice(_workId); // reverts if tokenId is out of range\n        require(msg.value >= price);\n        uint _tokenId = _workId.sub(1).mul(100).add(edition);\n\n        patches.transfer(price);\n        if (msg.value > price) {\n            msg.sender.send(msg.value.sub(price));\n        }\n\n        IPatches(patches).mint(_to, _tokenId);\n        Bought(_tokenId, price, _to);\n        return true;\n    }\n\n    function reserved(uint _workId) public returns (bool) {\n        // sender is artist of work // 3 works\n        uint patchId;\n        for (uint i = 1; i < 4; i++) {\n            patchId = _workId.sub(1).mul(100).add(i);\n            if (!IPatches(patches).exists(patchId)) {\n                IPatches(patches).mint(IPatches(patches).workArtist(_workId), patchId);\n            }\n        }\n        // sender is programmer Billy // 2 works\n        for (i = 4; i < 6; i++) {\n            patchId = _workId.sub(1).mul(100).add(i);\n            if (!IPatches(patches).exists(patchId)) {\n                IPatches(patches).mint(IPatches(patches).getBilly(), patchId);\n            }\n        }\n        // sender is new models // 5 works\n        for (i = 6; i < 11; i++) {\n            patchId = _workId.sub(1).mul(100).add(i);\n            if (!IPatches(patches).exists(patchId)) {\n                IPatches(patches).mint(IPatches(patches).getWallet(), patchId);\n            }\n        }\n    }\n\n    function moveEth(address _to, uint256 amount) public onlyOwner returns (bool) {\n        require(amount <= this.balance);\n        return _to.send(amount);\n    }\n    function moveToken(uint256 amount, address _to, address token) public onlyOwner returns (bool) {\n        require(amount <= ERC20(token).balanceOf(this));\n        return ERC20(token).transfer(_to, amount);\n    }\n    function approveToken(uint256 amount, address _to, address token) public onlyOwner returns (bool) {\n        return ERC20(token).approve(_to, amount);\n    }\n\n}",
  "sourcePath": "/Users/billy/sol/new-models-contracts/contracts/Controller.sol",
  "compiler": {
    "name": "solc",
    "version": "0.4.24+commit.e67f0147.Emscripten.clang"
  },
  "schemaVersion": "2.0.0",
  "updatedAt": "2018-06-15T11:16:10.183Z"
}