{
  "contractName": "Controller",
  "abi": [
    {
      "constant": true,
      "inputs": [],
      "name": "owner",
      "outputs": [
        {
          "name": "",
          "type": "address"
        }
      ],
      "payable": false,
      "stateMutability": "view",
      "type": "function"
    },
    {
      "constant": false,
      "inputs": [
        {
          "name": "newOwner",
          "type": "address"
        }
      ],
      "name": "transferOwnership",
      "outputs": [],
      "payable": false,
      "stateMutability": "nonpayable",
      "type": "function"
    },
    {
      "inputs": [
        {
          "name": "_patches",
          "type": "address"
        }
      ],
      "payable": false,
      "stateMutability": "nonpayable",
      "type": "constructor"
    },
    {
      "anonymous": false,
      "inputs": [
        {
          "indexed": false,
          "name": "tokenId",
          "type": "uint256"
        },
        {
          "indexed": false,
          "name": "amountPaid",
          "type": "uint256"
        },
        {
          "indexed": false,
          "name": "boughtBy",
          "type": "address"
        }
      ],
      "name": "Bought",
      "type": "event"
    },
    {
      "anonymous": false,
      "inputs": [
        {
          "indexed": true,
          "name": "previousOwner",
          "type": "address"
        },
        {
          "indexed": true,
          "name": "newOwner",
          "type": "address"
        }
      ],
      "name": "OwnershipTransferred",
      "type": "event"
    },
    {
      "constant": true,
      "inputs": [
        {
          "name": "_workId",
          "type": "uint256"
        }
      ],
      "name": "getPrice",
      "outputs": [
        {
          "name": "",
          "type": "uint256"
        }
      ],
      "payable": false,
      "stateMutability": "view",
      "type": "function"
    },
    {
      "constant": false,
      "inputs": [
        {
          "name": "_to",
          "type": "address"
        },
        {
          "name": "_workId",
          "type": "uint256"
        }
      ],
      "name": "buy",
      "outputs": [
        {
          "name": "",
          "type": "bool"
        }
      ],
      "payable": true,
      "stateMutability": "payable",
      "type": "function"
    },
    {
      "constant": false,
      "inputs": [
        {
          "name": "_workId",
          "type": "uint256"
        }
      ],
      "name": "reserved",
      "outputs": [
        {
          "name": "",
          "type": "bool"
        }
      ],
      "payable": false,
      "stateMutability": "nonpayable",
      "type": "function"
    },
    {
      "constant": false,
      "inputs": [
        {
          "name": "_to",
          "type": "address"
        },
        {
          "name": "amount",
          "type": "uint256"
        }
      ],
      "name": "moveEth",
      "outputs": [
        {
          "name": "",
          "type": "bool"
        }
      ],
      "payable": false,
      "stateMutability": "nonpayable",
      "type": "function"
    },
    {
      "constant": false,
      "inputs": [
        {
          "name": "amount",
          "type": "uint256"
        },
        {
          "name": "_to",
          "type": "address"
        },
        {
          "name": "token",
          "type": "address"
        }
      ],
      "name": "moveToken",
      "outputs": [
        {
          "name": "",
          "type": "bool"
        }
      ],
      "payable": false,
      "stateMutability": "nonpayable",
      "type": "function"
    },
    {
      "constant": false,
      "inputs": [
        {
          "name": "amount",
          "type": "uint256"
        },
        {
          "name": "_to",
          "type": "address"
        },
        {
          "name": "token",
          "type": "address"
        }
      ],
      "name": "approveToken",
      "outputs": [
        {
          "name": "",
          "type": "bool"
        }
      ],
      "payable": false,
      "stateMutability": "nonpayable",
      "type": "function"
    }
  ],
  "bytecode": "0x6080604052606460025534801561001557600080fd5b50604051602080620019bd833981018060405261003591908101906100d0565b336000806101000a81548173ffffffffffffffffffffffffffffffffffffffff021916908373ffffffffffffffffffffffffffffffffffffffff16021790555080600160006101000a81548173ffffffffffffffffffffffffffffffffffffffff021916908373ffffffffffffffffffffffffffffffffffffffff16021790555050610119565b60006100c882516100f9565b905092915050565b6000602082840312156100e257600080fd5b60006100f0848285016100bc565b91505092915050565b600073ffffffffffffffffffffffffffffffffffffffff82169050919050565b61189480620001296000396000f30060806040526004361061008e576000357c0100000000000000000000000000000000000000000000000000000000900463ffffffff1680631cc1472d1461009357806353f9195e146100d05780638da5cb5b1461010d578063b7f8aa0014610138578063cce7ec1314610175578063e7572230146101a5578063f2fde38b146101e2578063f760a4e21461020b575b600080fd5b34801561009f57600080fd5b506100ba60048036036100b591908101906115ce565b610248565b6040516100c79190611754565b60405180910390f35b3480156100dc57600080fd5b506100f760048036036100f29190810190611633565b610308565b6040516101049190611754565b60405180910390f35b34801561011957600080fd5b50610122610b2c565b60405161012f9190611710565b60405180910390f35b34801561014457600080fd5b5061015f600480360361015a9190810190611685565b610b51565b60405161016c9190611754565b60405180910390f35b61018f600480360361018a91908101906115ce565b610c60565b60405161019c9190611754565b60405180910390f35b3480156101b157600080fd5b506101cc60048036036101c79190810190611633565b610f69565b6040516101d9919061178a565b60405180910390f35b3480156101ee57600080fd5b506102096004803603610204919081019061157c565b611192565b005b34801561021757600080fd5b50610232600480360361022d9190810190611685565b6112e7565b60405161023f9190611754565b60405180910390f35b60008060009054906101000a900473ffffffffffffffffffffffffffffffffffffffff1673ffffffffffffffffffffffffffffffffffffffff163373ffffffffffffffffffffffffffffffffffffffff161415156102a557600080fd5b3073ffffffffffffffffffffffffffffffffffffffff163182111515156102cb57600080fd5b8273ffffffffffffffffffffffffffffffffffffffff166108fc839081150290604051600060405180830381858888f19350505050905092915050565b600080600190505b60048110156105c657600160009054906101000a900473ffffffffffffffffffffffffffffffffffffffff1673ffffffffffffffffffffffffffffffffffffffff16634f558e7961039083610382606461037460018a6114ab90919063ffffffff16565b6114c490919063ffffffff16565b6114fc90919063ffffffff16565b6040518263ffffffff167c01000000000000000000000000000000000000000000000000000000000281526004016103c8919061178a565b602060405180830381600087803b1580156103e257600080fd5b505af11580156103f6573d6000803e3d6000fd5b505050506040513d601f19601f8201168201806040525061041a919081019061160a565b15156105b957600160009054906101000a900473ffffffffffffffffffffffffffffffffffffffff1673ffffffffffffffffffffffffffffffffffffffff166340c10f19600160009054906101000a900473ffffffffffffffffffffffffffffffffffffffff1673ffffffffffffffffffffffffffffffffffffffff1663ad11d4a7866040518263ffffffff167c01000000000000000000000000000000000000000000000000000000000281526004016104d5919061178a565b602060405180830381600087803b1580156104ef57600080fd5b505af1158015610503573d6000803e3d6000fd5b505050506040513d601f19601f8201168201806040525061052791908101906115a5565b61054d8461053f6064896114c490919063ffffffff16565b6114fc90919063ffffffff16565b6040518363ffffffff167c010000000000000000000000000000000000000000000000000000000002815260040161058692919061172b565b600060405180830381600087803b1580156105a057600080fd5b505af11580156105b4573d6000803e3d6000fd5b505050505b8080600101915050610310565b600490505b600681101561087657600160009054906101000a900473ffffffffffffffffffffffffffffffffffffffff1673ffffffffffffffffffffffffffffffffffffffff16634f558e7961064b8361063d606461062f60018a6114ab90919063ffffffff16565b6114c490919063ffffffff16565b6114fc90919063ffffffff16565b6040518263ffffffff167c0100000000000000000000000000000000000000000000000000000000028152600401610683919061178a565b602060405180830381600087803b15801561069d57600080fd5b505af11580156106b1573d6000803e3d6000fd5b505050506040513d601f19601f820116820180604052506106d5919081019061160a565b151561086957600160009054906101000a900473ffffffffffffffffffffffffffffffffffffffff1673ffffffffffffffffffffffffffffffffffffffff166340c10f19600160009054906101000a900473ffffffffffffffffffffffffffffffffffffffff1673ffffffffffffffffffffffffffffffffffffffff1663d75987e46040518163ffffffff167c0100000000000000000000000000000000000000000000000000000000028152600401602060405180830381600087803b15801561079f57600080fd5b505af11580156107b3573d6000803e3d6000fd5b505050506040513d601f19601f820116820180604052506107d791908101906115a5565b6107fd846107ef6064896114c490919063ffffffff16565b6114fc90919063ffffffff16565b6040518363ffffffff167c010000000000000000000000000000000000000000000000000000000002815260040161083692919061172b565b600060405180830381600087803b15801561085057600080fd5b505af1158015610864573d6000803e3d6000fd5b505050505b80806001019150506105cb565b600690505b600b811015610b2657600160009054906101000a900473ffffffffffffffffffffffffffffffffffffffff1673ffffffffffffffffffffffffffffffffffffffff16634f558e796108fb836108ed60646108df60018a6114ab90919063ffffffff16565b6114c490919063ffffffff16565b6114fc90919063ffffffff16565b6040518263ffffffff167c0100000000000000000000000000000000000000000000000000000000028152600401610933919061178a565b602060405180830381600087803b15801561094d57600080fd5b505af1158015610961573d6000803e3d6000fd5b505050506040513d601f19601f82011682018060405250610985919081019061160a565b1515610b1957600160009054906101000a900473ffffffffffffffffffffffffffffffffffffffff1673ffffffffffffffffffffffffffffffffffffffff166340c10f19600160009054906101000a900473ffffffffffffffffffffffffffffffffffffffff1673ffffffffffffffffffffffffffffffffffffffff1663132996046040518163ffffffff167c0100000000000000000000000000000000000000000000000000000000028152600401602060405180830381600087803b158015610a4f57600080fd5b505af1158015610a63573d6000803e3d6000fd5b505050506040513d601f19601f82011682018060405250610a8791908101906115a5565b610aad84610a9f6064896114c490919063ffffffff16565b6114fc90919063ffffffff16565b6040518363ffffffff167c0100000000000000000000000000000000000000000000000000000000028152600401610ae692919061172b565b600060405180830381600087803b158015610b0057600080fd5b505af1158015610b14573d6000803e3d6000fd5b505050505b808060010191505061087b565b50919050565b6000809054906101000a900473ffffffffffffffffffffffffffffffffffffffff1681565b60008060009054906101000a900473ffffffffffffffffffffffffffffffffffffffff1673ffffffffffffffffffffffffffffffffffffffff163373ffffffffffffffffffffffffffffffffffffffff16141515610bae57600080fd5b8173ffffffffffffffffffffffffffffffffffffffff1663095ea7b384866040518363ffffffff167c0100000000000000000000000000000000000000000000000000000000028152600401610c0592919061172b565b602060405180830381600087803b158015610c1f57600080fd5b505af1158015610c33573d6000803e3d6000fd5b505050506040513d601f19601f82011682018060405250610c57919081019061160a565b90509392505050565b600080600080610d54600a610d4660018060009054906101000a900473ffffffffffffffffffffffffffffffffffffffff1673ffffffffffffffffffffffffffffffffffffffff1663a466c2cc8a6040518263ffffffff167c0100000000000000000000000000000000000000000000000000000000028152600401610ce6919061178a565b602060405180830381600087803b158015610d0057600080fd5b505af1158015610d14573d6000803e3d6000fd5b505050506040513d601f19601f82011682018060405250610d38919081019061165c565b6114fc90919063ffffffff16565b6114fc90919063ffffffff16565b92506002548311151515610d6757600080fd5b610d7085610f69565b9150813410151515610d8157600080fd5b610dba83610dac6064610d9e60018a6114ab90919063ffffffff16565b6114c490919063ffffffff16565b6114fc90919063ffffffff16565b9050600160009054906101000a900473ffffffffffffffffffffffffffffffffffffffff1673ffffffffffffffffffffffffffffffffffffffff166108fc839081150290604051600060405180830381858888f19350505050158015610e24573d6000803e3d6000fd5b5081341115610e76573373ffffffffffffffffffffffffffffffffffffffff166108fc610e5a84346114ab90919063ffffffff16565b9081150290604051600060405180830381858888f19350505050505b600160009054906101000a900473ffffffffffffffffffffffffffffffffffffffff1673ffffffffffffffffffffffffffffffffffffffff166340c10f1987836040518363ffffffff167c0100000000000000000000000000000000000000000000000000000000028152600401610eef92919061172b565b600060405180830381600087803b158015610f0957600080fd5b505af1158015610f1d573d6000803e3d6000fd5b505050507fa2a8034590a15fe810e9813d736096c0a03b3236cecb34b5b9f687ed67a6a624818388604051610f54939291906117a5565b60405180910390a16001935050505092915050565b6000806000600160009054906101000a900473ffffffffffffffffffffffffffffffffffffffff1673ffffffffffffffffffffffffffffffffffffffff1663ffcc8d0e856040518263ffffffff167c0100000000000000000000000000000000000000000000000000000000028152600401610fe5919061178a565b602060405180830381600087803b158015610fff57600080fd5b505af1158015611013573d6000803e3d6000fd5b505050506040513d601f19601f82011682018060405250611037919081019061160a565b151561104257600080fd5b61111e600a600160009054906101000a900473ffffffffffffffffffffffffffffffffffffffff1673ffffffffffffffffffffffffffffffffffffffff1663a466c2cc876040518263ffffffff167c01000000000000000000000000000000000000000000000000000000000281526004016110be919061178a565b602060405180830381600087803b1580156110d857600080fd5b505af11580156110ec573d6000803e3d6000fd5b505050506040513d601f19601f82011682018060405250611110919081019061165c565b6114fc90919063ffffffff16565b91506002548210151561113057600080fd5b66038d7ea4c680009050611186611177600a611169600161115b600a886114ab90919063ffffffff16565b6114fc90919063ffffffff16565b6114c490919063ffffffff16565b826114c490919063ffffffff16565b90508092505050919050565b6000809054906101000a900473ffffffffffffffffffffffffffffffffffffffff1673ffffffffffffffffffffffffffffffffffffffff163373ffffffffffffffffffffffffffffffffffffffff161415156111ed57600080fd5b600073ffffffffffffffffffffffffffffffffffffffff168173ffffffffffffffffffffffffffffffffffffffff161415151561122957600080fd5b8073ffffffffffffffffffffffffffffffffffffffff166000809054906101000a900473ffffffffffffffffffffffffffffffffffffffff1673ffffffffffffffffffffffffffffffffffffffff167f8be0079c531659141344cd1fd0a4f28419497f9722a3daafe3b4186f6b6457e060405160405180910390a3806000806101000a81548173ffffffffffffffffffffffffffffffffffffffff021916908373ffffffffffffffffffffffffffffffffffffffff16021790555050565b60008060009054906101000a900473ffffffffffffffffffffffffffffffffffffffff1673ffffffffffffffffffffffffffffffffffffffff163373ffffffffffffffffffffffffffffffffffffffff1614151561134457600080fd5b8173ffffffffffffffffffffffffffffffffffffffff166370a08231306040518263ffffffff167c0100000000000000000000000000000000000000000000000000000000028152600401611399919061176f565b602060405180830381600087803b1580156113b357600080fd5b505af11580156113c7573d6000803e3d6000fd5b505050506040513d601f19601f820116820180604052506113eb919081019061165c565b84111515156113f957600080fd5b8173ffffffffffffffffffffffffffffffffffffffff1663a9059cbb84866040518363ffffffff167c010000000000000000000000000000000000000000000000000000000002815260040161145092919061172b565b602060405180830381600087803b15801561146a57600080fd5b505af115801561147e573d6000803e3d6000fd5b505050506040513d601f19601f820116820180604052506114a2919081019061160a565b90509392505050565b60008282111515156114b957fe5b818303905092915050565b6000808314156114d757600090506114f6565b81830290508183828115156114e857fe5b041415156114f257fe5b8090505b92915050565b6000818301905082811015151561150f57fe5b80905092915050565b60006115248235611812565b905092915050565b60006115388251611812565b905092915050565b600061154c8251611832565b905092915050565b6000611560823561183e565b905092915050565b6000611574825161183e565b905092915050565b60006020828403121561158e57600080fd5b600061159c84828501611518565b91505092915050565b6000602082840312156115b757600080fd5b60006115c58482850161152c565b91505092915050565b600080604083850312156115e157600080fd5b60006115ef85828601611518565b925050602061160085828601611554565b9150509250929050565b60006020828403121561161c57600080fd5b600061162a84828501611540565b91505092915050565b60006020828403121561164557600080fd5b600061165384828501611554565b91505092915050565b60006020828403121561166e57600080fd5b600061167c84828501611568565b91505092915050565b60008060006060848603121561169a57600080fd5b60006116a886828701611554565b93505060206116b986828701611518565b92505060406116ca86828701611518565b9150509250925092565b6116dd816117dc565b82525050565b6116ec816117fc565b82525050565b6116fb81611848565b82525050565b61170a81611808565b82525050565b600060208201905061172560008301846116d4565b92915050565b600060408201905061174060008301856116d4565b61174d6020830184611701565b9392505050565b600060208201905061176960008301846116e3565b92915050565b600060208201905061178460008301846116f2565b92915050565b600060208201905061179f6000830184611701565b92915050565b60006060820190506117ba6000830186611701565b6117c76020830185611701565b6117d460408301846116d4565b949350505050565b600073ffffffffffffffffffffffffffffffffffffffff82169050919050565b60008115159050919050565b6000819050919050565b600073ffffffffffffffffffffffffffffffffffffffff82169050919050565b60008115159050919050565b6000819050919050565b6000611853826117dc565b90509190505600a265627a7a72305820b3ae1ca64398f8145957dd5de21ccad32390824ffd49721fa8bc589daf3484686c6578706572696d656e74616cf50037",
  "source": "pragma solidity ^0.4.18;\npragma experimental ABIEncoderV2;\n\n/**\n * The Controller is a replaceable endpoint for minting and unminting Patch.sol\n */\n\nimport \"./IPatches.sol\";\nimport \"zeppelin-solidity/contracts/token/ERC20/ERC20.sol\";\n\nimport \"zeppelin-solidity/contracts/ownership/Ownable.sol\";\nimport \"zeppelin-solidity/contracts/math/SafeMath.sol\";\n\ncontract Controller is Ownable {\n\n    using SafeMath for uint;\n\n    event Bought(uint tokenId, uint amountPaid, address boughtBy);\n\n\n    address patches;\n    uint editionSize = 100;\n\n    function Controller(address _patches) public {\n        patches = _patches;\n    }    \n\n    function getPrice(uint _workId) public constant returns (uint) {\n        require(IPatches(patches).workExists(_workId));\n        uint soldSoFar = IPatches(patches).workSold(_workId).add(10); // artist, programmer, new models editions\n        require(soldSoFar < editionSize);\n        uint price = 1 finney;\n        price = price.mul(soldSoFar.sub(10).add(1).mul(10));\n        return price;\n    }\n\n/* ------------------------------------------------------------------------------------ */\n\n    /**\n    * @dev Buy an edition of a work.\n    * @param _to The address owning the work.\n    * @param _workId The Id of the work.\n    * @return A boolean representing whether or not the purchase was successful.\n    */\n    function buy(address _to, uint _workId) public payable returns (bool) {\n        uint edition = IPatches(patches).workSold(_workId).add(1).add(10); // artist, programmer, new models editions\n        require(edition <= editionSize);\n        uint price = getPrice(_workId); // reverts if tokenId is out of range\n        require(msg.value >= price);\n        uint _tokenId = _workId.sub(1).mul(100).add(edition);\n\n        patches.transfer(price);\n        if (msg.value > price) {\n            msg.sender.send(msg.value.sub(price));\n        }\n\n        IPatches(patches).mint(_to, _tokenId);\n        Bought(_tokenId, price, _to);\n        return true;\n    }\n\n    function reserved(uint _workId) public returns (bool) {\n        // sender is artist of work // 3 works\n        for (uint i = 1; i < 4; i++) {\n            if (!IPatches(patches).exists(_workId.sub(1).mul(100).add(i))) {\n                IPatches(patches).mint(IPatches(patches).workArtist(_workId), _workId.mul(100).add(i));\n            }\n        }\n        // sender is programmer Billy // 2 works\n        for (i = 4; i < 6; i++) {\n            if (!IPatches(patches).exists(_workId.sub(1).mul(100).add(i))) {\n                IPatches(patches).mint(IPatches(patches).getBilly(), _workId.mul(100).add(i));\n            }\n        }\n        // sender is new models // 5 works\n        for (i = 6; i < 11; i++) {\n            if (!IPatches(patches).exists(_workId.sub(1).mul(100).add(i))) {\n                IPatches(patches).mint(IPatches(patches).getWallet(), _workId.mul(100).add(i));\n            }\n        }\n    }\n\n    function moveEth(address _to, uint256 amount) public onlyOwner returns (bool) {\n        require(amount <= this.balance);\n        return _to.send(amount);\n    }\n    function moveToken(uint256 amount, address _to, address token) public onlyOwner returns (bool) {\n        require(amount <= ERC20(token).balanceOf(this));\n        return ERC20(token).transfer(_to, amount);\n    }\n    function approveToken(uint256 amount, address _to, address token) public onlyOwner returns (bool) {\n        return ERC20(token).approve(_to, amount);\n    }\n\n}",
  "sourcePath": "/Users/billy/sol/new-models-contracts/contracts/Controller.sol",
  "compiler": {
    "name": "solc",
    "version": "0.4.24+commit.e67f0147.Emscripten.clang"
  },
  "schemaVersion": "2.0.0",
  "updatedAt": "2018-06-15T10:41:01.091Z"
}