{
  "contractName": "Metadata",
  "abi": [
    {
      "inputs": [],
      "payable": false,
      "stateMutability": "nonpayable",
      "type": "constructor"
    },
    {
      "constant": true,
      "inputs": [
        {
          "name": "_tokenId",
          "type": "uint256"
        }
      ],
      "name": "tokenURI",
      "outputs": [
        {
          "name": "_infoUrl",
          "type": "string"
        }
      ],
      "payable": false,
      "stateMutability": "view",
      "type": "function"
    }
  ],
  "bytecode": "0x6060604052341561000f57600080fd5b61056f8061001e6000396000f300606060405260043610610041576000357c0100000000000000000000000000000000000000000000000000000000900463ffffffff168063c87b56dd14610046575b600080fd5b341561005157600080fd5b610066600461006190369061045b565b61007c565b60405161007391906104ba565b60405180910390f35b610084610405565b61008c610405565b610094610405565b61009c610405565b606060405190810160405280602681526020017f68747470733a2f2f62616467652e6e65776d6f64656c732e696f2f6d6574616481526020017f6174612f3078000000000000000000000000000000000000000000000000000081525092506101048561018d565b91506040805190810160405280600581526020017f2e6a736f6e000000000000000000000000000000000000000000000000000000815250905061018361014a8261030e565b6101756101706101598661030e565b6101628861030e565b61033c90919063ffffffff16565b61030e565b61033c90919063ffffffff16565b9350505050919050565b610195610405565b60008060006101a2610419565b60008060008814156101eb576040805190810160405280600181526020017f30000000000000000000000000000000000000000000000000000000000000008152509650610303565b8795505b6000861415156102115784806001019550506004869060020a900495506101ef565b600f9350846040518059106102235750595b9080825280601f01601f191660200182016040525092506001850391505b6000881415156102ff5783881690506009811161028357806030017f0100000000000000000000000000000000000000000000000000000000000000026102aa565b806037017f0100000000000000000000000000000000000000000000000000000000000000025b8383806001900394508151811015156102bf57fe5b9060200101907effffffffffffffffffffffffffffffffffffffffffffffffffffffffffffff1916908160001a9053506004889060020a90049750610241565b8296505b505050505050919050565b61031661042d565b600060208301905060408051908101604052808451815260200182815250915050919050565b610344610405565b61034c610405565b600083600001518560000151016040518059106103665750595b9080825280601f01601f1916602001820160405250915060208201905061039681866020015187600001516103ba565b6103af85600001518201856020015186600001516103ba565b819250505092915050565b60005b6020821015156103e257825184526020840193506020830192506020820391506103bd565b6001826020036101000a0390508019835116818551168181178652505050505050565b602060405190810160405280600081525090565b602060405190810160405280600081525090565b604080519081016040528060008152602001600081525090565b600061045382356104e7565b905092915050565b60006020828403121561046d57600080fd5b600061047b84828501610447565b91505092915050565b600061048f826104dc565b8084526104a38160208601602086016104f1565b6104ac81610524565b602085010191505092915050565b600060208201905081810360008301526104d48184610484565b905092915050565b600081519050919050565b6000819050919050565b60005b8381101561050f5780820151818401526020810190506104f4565b8381111561051e576000848401525b50505050565b6000601f19601f83011690509190505600a265627a7a723058202e8f18fdd36a407be2ae2f0ca4cd5fe932af9cc840a7f459a1e4b59e952433186c6578706572696d656e74616cf50037",
  "source": "pragma solidity ^0.4.18;\npragma experimental ABIEncoderV2;\n\n/**\n* CloversMetadata contract is upgradeable and returns metadata about Clovers\n*/\n\nimport \"./strings.sol\";\n\ncontract Metadata {\n    using strings for *;\n\n    function Metadata () public {}\n\n    function tokenURI(uint _tokenId) public view returns (string _infoUrl) {\n        string memory base = \"https://badge.newmodels.io/metadata/0x\";\n        string memory id = uint2hexstr(_tokenId);\n        string memory suffix = \".json\";\n        return base.toSlice().concat(id.toSlice()).toSlice().concat(suffix.toSlice());\n    }\n    function uint2hexstr(uint i) internal pure returns (string) {\n        if (i == 0) return \"0\";\n        uint j = i;\n        uint length;\n        while (j != 0) {\n            length++;\n            j = j >> 4;\n        }\n        uint mask = 15;\n        bytes memory bstr = new bytes(length);\n        uint k = length - 1;\n        while (i != 0){\n            uint curr = (i & mask);\n            bstr[k--] = curr > 9 ? byte(55 + curr) : byte(48 + curr); // 55 = 65 - 10\n            i = i >> 4;\n        }\n        return string(bstr);\n    }\n}",
  "sourcePath": "/Users/billy/sol/new-models/contracts/Metadata.sol",
  "compiler": {
    "name": "solc",
    "version": "0.4.21+commit.dfe3193c.Emscripten.clang"
  },
  "schemaVersion": "2.0.0",
  "updatedAt": "2018-05-28T15:36:18.903Z"
}