{
  "contractName": "Metadata",
  "abi": [
    {
      "inputs": [],
      "payable": false,
      "stateMutability": "nonpayable",
      "type": "constructor"
    },
    {
      "constant": true,
      "inputs": [
        {
          "name": "_tokenId",
          "type": "uint256"
        }
      ],
      "name": "tokenURI",
      "outputs": [
        {
          "name": "_infoUrl",
          "type": "string"
        }
      ],
      "payable": false,
      "stateMutability": "view",
      "type": "function"
    }
  ],
  "bytecode": "0x608060405234801561001057600080fd5b5061053d806100206000396000f300608060405260043610610041576000357c0100000000000000000000000000000000000000000000000000000000900463ffffffff168063c87b56dd14610046575b600080fd5b34801561005257600080fd5b5061006d60048036036100689190810190610429565b610083565b60405161007a9190610488565b60405180910390f35b606080606080606060405190810160405280602681526020017f68747470733a2f2f70617463682e6e65776d6f64656c732e696f2f6d6574616481526020017f6174612f3078000000000000000000000000000000000000000000000000000081525092506100f18561017a565b91506040805190810160405280600581526020017f2e6a736f6e000000000000000000000000000000000000000000000000000000815250905061017061013782610300565b61016261015d61014686610300565b61014f88610300565b61032e90919063ffffffff16565b610300565b61032e90919063ffffffff16565b9350505050919050565b60606000806000606060008060008814156101cc576040805190810160405280600181526020017f300000000000000000000000000000000000000000000000000000000000000081525096506102f5565b8795505b6000861415156101f25784806001019550506004869060020a900495506101d0565b600f9350846040519080825280601f01601f1916602001820160405280156102295781602001602082028038833980820191505090505b5092506001850391505b6000881415156102f15783881690506009811161027557806030017f01000000000000000000000000000000000000000000000000000000000000000261029c565b806037017f0100000000000000000000000000000000000000000000000000000000000000025b8383806001900394508151811015156102b157fe5b9060200101907effffffffffffffffffffffffffffffffffffffffffffffffffffffffffffff1916908160001a9053506004889060020a90049750610233565b8296505b505050505050919050565b6103086103fb565b600060208301905060408051908101604052808451815260200182815250915050919050565b606080600083600001518560000151016040519080825280601f01601f1916602001820160405280156103705781602001602082028038833980820191505090505b50915060208201905061038c81866020015187600001516103b0565b6103a585600001518201856020015186600001516103b0565b819250505092915050565b60005b6020821015156103d857825184526020840193506020830192506020820391506103b3565b6001826020036101000a0390508019835116818551168181178652505050505050565b604080519081016040528060008152602001600081525090565b600061042182356104b5565b905092915050565b60006020828403121561043b57600080fd5b600061044984828501610415565b91505092915050565b600061045d826104aa565b8084526104718160208601602086016104bf565b61047a816104f2565b602085010191505092915050565b600060208201905081810360008301526104a28184610452565b905092915050565b600081519050919050565b6000819050919050565b60005b838110156104dd5780820151818401526020810190506104c2565b838111156104ec576000848401525b50505050565b6000601f19601f83011690509190505600a265627a7a7230582083490930178dc03974c932531df8c2220bc4882e0a7417639df0eaac1d1257136c6578706572696d656e74616cf50037",
  "source": "pragma solidity ^0.4.18;\npragma experimental ABIEncoderV2;\n\n/**\n* CloversMetadata contract is upgradeable and returns metadata about Clovers\n*/\n\nimport \"./strings.sol\";\n\ncontract Metadata {\n    using strings for *;\n\n    function Metadata () public {}\n\n    function tokenURI(uint _tokenId) public view returns (string _infoUrl) {\n        string memory base = \"https://patch.newmodels.io/metadata/0x\";\n        string memory id = uint2hexstr(_tokenId);\n        string memory suffix = \".json\";\n        return base.toSlice().concat(id.toSlice()).toSlice().concat(suffix.toSlice());\n    }\n    function uint2hexstr(uint i) internal pure returns (string) {\n        if (i == 0) return \"0\";\n        uint j = i;\n        uint length;\n        while (j != 0) {\n            length++;\n            j = j >> 4;\n        }\n        uint mask = 15;\n        bytes memory bstr = new bytes(length);\n        uint k = length - 1;\n        while (i != 0){\n            uint curr = (i & mask);\n            bstr[k--] = curr > 9 ? byte(55 + curr) : byte(48 + curr); // 55 = 65 - 10\n            i = i >> 4;\n        }\n        return string(bstr);\n    }\n}",
  "sourcePath": "/Users/billy/sol/new-models-contracts/contracts/Metadata.sol",
  "compiler": {
    "name": "solc",
    "version": "0.4.24+commit.e67f0147.Emscripten.clang"
  },
  "schemaVersion": "2.0.0",
  "updatedAt": "2018-06-15T10:41:01.086Z"
}