{
  "contractName": "Patches",
  "abi": [
    {
      "constant": true,
      "inputs": [],
      "name": "name",
      "outputs": [
        {
          "name": "",
          "type": "string"
        }
      ],
      "payable": false,
      "stateMutability": "view",
      "type": "function"
    },
    {
      "constant": true,
      "inputs": [
        {
          "name": "_tokenId",
          "type": "uint256"
        }
      ],
      "name": "getApproved",
      "outputs": [
        {
          "name": "",
          "type": "address"
        }
      ],
      "payable": false,
      "stateMutability": "view",
      "type": "function"
    },
    {
      "constant": false,
      "inputs": [
        {
          "name": "_to",
          "type": "address"
        },
        {
          "name": "_tokenId",
          "type": "uint256"
        }
      ],
      "name": "approve",
      "outputs": [],
      "payable": false,
      "stateMutability": "nonpayable",
      "type": "function"
    },
    {
      "constant": true,
      "inputs": [],
      "name": "totalSupply",
      "outputs": [
        {
          "name": "",
          "type": "uint256"
        }
      ],
      "payable": false,
      "stateMutability": "view",
      "type": "function"
    },
    {
      "constant": false,
      "inputs": [
        {
          "name": "_from",
          "type": "address"
        },
        {
          "name": "_to",
          "type": "address"
        },
        {
          "name": "_tokenId",
          "type": "uint256"
        }
      ],
      "name": "transferFrom",
      "outputs": [],
      "payable": false,
      "stateMutability": "nonpayable",
      "type": "function"
    },
    {
      "constant": true,
      "inputs": [
        {
          "name": "_owner",
          "type": "address"
        },
        {
          "name": "_index",
          "type": "uint256"
        }
      ],
      "name": "tokenOfOwnerByIndex",
      "outputs": [
        {
          "name": "",
          "type": "uint256"
        }
      ],
      "payable": false,
      "stateMutability": "view",
      "type": "function"
    },
    {
      "constant": false,
      "inputs": [
        {
          "name": "_from",
          "type": "address"
        },
        {
          "name": "_to",
          "type": "address"
        },
        {
          "name": "_tokenId",
          "type": "uint256"
        }
      ],
      "name": "safeTransferFrom",
      "outputs": [],
      "payable": false,
      "stateMutability": "nonpayable",
      "type": "function"
    },
    {
      "constant": true,
      "inputs": [
        {
          "name": "_tokenId",
          "type": "uint256"
        }
      ],
      "name": "exists",
      "outputs": [
        {
          "name": "",
          "type": "bool"
        }
      ],
      "payable": false,
      "stateMutability": "view",
      "type": "function"
    },
    {
      "constant": true,
      "inputs": [
        {
          "name": "_index",
          "type": "uint256"
        }
      ],
      "name": "tokenByIndex",
      "outputs": [
        {
          "name": "",
          "type": "uint256"
        }
      ],
      "payable": false,
      "stateMutability": "view",
      "type": "function"
    },
    {
      "constant": true,
      "inputs": [
        {
          "name": "_tokenId",
          "type": "uint256"
        }
      ],
      "name": "ownerOf",
      "outputs": [
        {
          "name": "",
          "type": "address"
        }
      ],
      "payable": false,
      "stateMutability": "view",
      "type": "function"
    },
    {
      "constant": true,
      "inputs": [
        {
          "name": "_owner",
          "type": "address"
        }
      ],
      "name": "balanceOf",
      "outputs": [
        {
          "name": "",
          "type": "uint256"
        }
      ],
      "payable": false,
      "stateMutability": "view",
      "type": "function"
    },
    {
      "constant": false,
      "inputs": [],
      "name": "renounceOwnership",
      "outputs": [],
      "payable": false,
      "stateMutability": "nonpayable",
      "type": "function"
    },
    {
      "constant": true,
      "inputs": [],
      "name": "owner",
      "outputs": [
        {
          "name": "",
          "type": "address"
        }
      ],
      "payable": false,
      "stateMutability": "view",
      "type": "function"
    },
    {
      "constant": true,
      "inputs": [],
      "name": "symbol",
      "outputs": [
        {
          "name": "",
          "type": "string"
        }
      ],
      "payable": false,
      "stateMutability": "view",
      "type": "function"
    },
    {
      "constant": false,
      "inputs": [
        {
          "name": "_to",
          "type": "address"
        },
        {
          "name": "_approved",
          "type": "bool"
        }
      ],
      "name": "setApprovalForAll",
      "outputs": [],
      "payable": false,
      "stateMutability": "nonpayable",
      "type": "function"
    },
    {
      "constant": false,
      "inputs": [
        {
          "name": "_from",
          "type": "address"
        },
        {
          "name": "_to",
          "type": "address"
        },
        {
          "name": "_tokenId",
          "type": "uint256"
        },
        {
          "name": "_data",
          "type": "bytes"
        }
      ],
      "name": "safeTransferFrom",
      "outputs": [],
      "payable": false,
      "stateMutability": "nonpayable",
      "type": "function"
    },
    {
      "constant": true,
      "inputs": [
        {
          "name": "_owner",
          "type": "address"
        },
        {
          "name": "_operator",
          "type": "address"
        }
      ],
      "name": "isApprovedForAll",
      "outputs": [
        {
          "name": "",
          "type": "bool"
        }
      ],
      "payable": false,
      "stateMutability": "view",
      "type": "function"
    },
    {
      "constant": false,
      "inputs": [
        {
          "name": "_newOwner",
          "type": "address"
        }
      ],
      "name": "transferOwnership",
      "outputs": [],
      "payable": false,
      "stateMutability": "nonpayable",
      "type": "function"
    },
    {
      "inputs": [
        {
          "name": "name",
          "type": "string"
        },
        {
          "name": "symbol",
          "type": "string"
        }
      ],
      "payable": false,
      "stateMutability": "nonpayable",
      "type": "constructor"
    },
    {
      "payable": true,
      "stateMutability": "payable",
      "type": "fallback"
    },
    {
      "anonymous": false,
      "inputs": [
        {
          "indexed": true,
          "name": "previousOwner",
          "type": "address"
        }
      ],
      "name": "OwnershipRenounced",
      "type": "event"
    },
    {
      "anonymous": false,
      "inputs": [
        {
          "indexed": true,
          "name": "previousOwner",
          "type": "address"
        },
        {
          "indexed": true,
          "name": "newOwner",
          "type": "address"
        }
      ],
      "name": "OwnershipTransferred",
      "type": "event"
    },
    {
      "anonymous": false,
      "inputs": [
        {
          "indexed": true,
          "name": "_from",
          "type": "address"
        },
        {
          "indexed": true,
          "name": "_to",
          "type": "address"
        },
        {
          "indexed": false,
          "name": "_tokenId",
          "type": "uint256"
        }
      ],
      "name": "Transfer",
      "type": "event"
    },
    {
      "anonymous": false,
      "inputs": [
        {
          "indexed": true,
          "name": "_owner",
          "type": "address"
        },
        {
          "indexed": true,
          "name": "_approved",
          "type": "address"
        },
        {
          "indexed": false,
          "name": "_tokenId",
          "type": "uint256"
        }
      ],
      "name": "Approval",
      "type": "event"
    },
    {
      "anonymous": false,
      "inputs": [
        {
          "indexed": true,
          "name": "_owner",
          "type": "address"
        },
        {
          "indexed": true,
          "name": "_operator",
          "type": "address"
        },
        {
          "indexed": false,
          "name": "_approved",
          "type": "bool"
        }
      ],
      "name": "ApprovalForAll",
      "type": "event"
    },
    {
      "constant": true,
      "inputs": [],
      "name": "implementation",
      "outputs": [
        {
          "name": "",
          "type": "address"
        }
      ],
      "payable": false,
      "stateMutability": "view",
      "type": "function"
    },
    {
      "constant": true,
      "inputs": [
        {
          "name": "_tokenId",
          "type": "uint256"
        }
      ],
      "name": "tokenURI",
      "outputs": [
        {
          "name": "_infoUrl",
          "type": "string"
        }
      ],
      "payable": false,
      "stateMutability": "view",
      "type": "function"
    },
    {
      "constant": true,
      "inputs": [
        {
          "name": "_tokenId",
          "type": "uint256"
        }
      ],
      "name": "getWorkFromToken",
      "outputs": [
        {
          "name": "",
          "type": "uint256"
        }
      ],
      "payable": false,
      "stateMutability": "pure",
      "type": "function"
    },
    {
      "constant": true,
      "inputs": [],
      "name": "getController",
      "outputs": [
        {
          "name": "",
          "type": "address"
        }
      ],
      "payable": false,
      "stateMutability": "view",
      "type": "function"
    },
    {
      "constant": true,
      "inputs": [],
      "name": "getMetadata",
      "outputs": [
        {
          "name": "",
          "type": "address"
        }
      ],
      "payable": false,
      "stateMutability": "view",
      "type": "function"
    },
    {
      "constant": true,
      "inputs": [],
      "name": "getWallet",
      "outputs": [
        {
          "name": "",
          "type": "address"
        }
      ],
      "payable": false,
      "stateMutability": "view",
      "type": "function"
    },
    {
      "constant": true,
      "inputs": [],
      "name": "getBilly",
      "outputs": [
        {
          "name": "",
          "type": "address"
        }
      ],
      "payable": false,
      "stateMutability": "view",
      "type": "function"
    },
    {
      "constant": true,
      "inputs": [
        {
          "name": "_workId",
          "type": "uint256"
        }
      ],
      "name": "workExists",
      "outputs": [
        {
          "name": "",
          "type": "bool"
        }
      ],
      "payable": false,
      "stateMutability": "view",
      "type": "function"
    },
    {
      "constant": true,
      "inputs": [
        {
          "name": "_workId",
          "type": "uint256"
        }
      ],
      "name": "workArtist",
      "outputs": [
        {
          "name": "",
          "type": "address"
        }
      ],
      "payable": false,
      "stateMutability": "view",
      "type": "function"
    },
    {
      "constant": true,
      "inputs": [
        {
          "name": "_workId",
          "type": "uint256"
        }
      ],
      "name": "workSold",
      "outputs": [
        {
          "name": "",
          "type": "uint256"
        }
      ],
      "payable": false,
      "stateMutability": "view",
      "type": "function"
    },
    {
      "constant": true,
      "inputs": [
        {
          "name": "_workId",
          "type": "uint256"
        }
      ],
      "name": "workHash",
      "outputs": [
        {
          "name": "",
          "type": "bytes32"
        }
      ],
      "payable": false,
      "stateMutability": "view",
      "type": "function"
    },
    {
      "constant": true,
      "inputs": [
        {
          "name": "work",
          "type": "string"
        }
      ],
      "name": "hashWork",
      "outputs": [
        {
          "name": "",
          "type": "bytes32"
        }
      ],
      "payable": false,
      "stateMutability": "view",
      "type": "function"
    },
    {
      "constant": false,
      "inputs": [
        {
          "name": "_workId",
          "type": "uint256"
        },
        {
          "name": "_artist",
          "type": "address"
        },
        {
          "name": "_hash",
          "type": "bytes32"
        }
      ],
      "name": "addWork",
      "outputs": [
        {
          "name": "",
          "type": "bool"
        }
      ],
      "payable": false,
      "stateMutability": "nonpayable",
      "type": "function"
    },
    {
      "constant": false,
      "inputs": [
        {
          "name": "_to",
          "type": "address"
        },
        {
          "name": "amount",
          "type": "uint256"
        }
      ],
      "name": "moveEth",
      "outputs": [
        {
          "name": "",
          "type": "bool"
        }
      ],
      "payable": false,
      "stateMutability": "nonpayable",
      "type": "function"
    },
    {
      "constant": false,
      "inputs": [
        {
          "name": "amount",
          "type": "uint256"
        },
        {
          "name": "_to",
          "type": "address"
        },
        {
          "name": "token",
          "type": "address"
        }
      ],
      "name": "moveToken",
      "outputs": [
        {
          "name": "",
          "type": "bool"
        }
      ],
      "payable": false,
      "stateMutability": "nonpayable",
      "type": "function"
    },
    {
      "constant": false,
      "inputs": [
        {
          "name": "amount",
          "type": "uint256"
        },
        {
          "name": "_to",
          "type": "address"
        },
        {
          "name": "token",
          "type": "address"
        }
      ],
      "name": "approveToken",
      "outputs": [
        {
          "name": "",
          "type": "bool"
        }
      ],
      "payable": false,
      "stateMutability": "nonpayable",
      "type": "function"
    },
    {
      "constant": false,
      "inputs": [
        {
          "name": "_workId",
          "type": "uint256"
        },
        {
          "name": "_artist",
          "type": "address"
        }
      ],
      "name": "updateArtistAddress",
      "outputs": [],
      "payable": false,
      "stateMutability": "nonpayable",
      "type": "function"
    },
    {
      "constant": false,
      "inputs": [
        {
          "name": "_wallet",
          "type": "address"
        }
      ],
      "name": "updateWalletAddress",
      "outputs": [],
      "payable": false,
      "stateMutability": "nonpayable",
      "type": "function"
    },
    {
      "constant": false,
      "inputs": [
        {
          "name": "_billy",
          "type": "address"
        }
      ],
      "name": "updateBillyAddress",
      "outputs": [],
      "payable": false,
      "stateMutability": "nonpayable",
      "type": "function"
    },
    {
      "constant": false,
      "inputs": [
        {
          "name": "_controller",
          "type": "address"
        }
      ],
      "name": "updateControllerAddress",
      "outputs": [],
      "payable": false,
      "stateMutability": "nonpayable",
      "type": "function"
    },
    {
      "constant": false,
      "inputs": [
        {
          "name": "_metadata",
          "type": "address"
        }
      ],
      "name": "updateMetadataAddress",
      "outputs": [],
      "payable": false,
      "stateMutability": "nonpayable",
      "type": "function"
    },
    {
      "constant": false,
      "inputs": [
        {
          "name": "_to",
          "type": "address"
        },
        {
          "name": "_tokenId",
          "type": "uint256"
        }
      ],
      "name": "mint",
      "outputs": [],
      "payable": false,
      "stateMutability": "nonpayable",
      "type": "function"
    },
    {
      "constant": false,
      "inputs": [
        {
          "name": "_tokenId",
          "type": "uint256"
        }
      ],
      "name": "unmint",
      "outputs": [],
      "payable": false,
      "stateMutability": "nonpayable",
      "type": "function"
    }
  ],
  "bytecode": "0x60806040523480156200001157600080fd5b5060405162003c5a38038062003c5a8339810180604052620000379190810190620001c3565b8181816004908051906020019062000051929190620000b6565b5080600590805190602001906200006a929190620000b6565b50505033600b60006101000a81548173ffffffffffffffffffffffffffffffffffffffff021916908373ffffffffffffffffffffffffffffffffffffffff1602179055505050620002c7565b828054600181600116156101000203166002900490600052602060002090601f016020900481019282601f10620000f957805160ff19168380011785556200012a565b828001600101855582156200012a579182015b82811115620001295782518255916020019190600101906200010c565b5b5090506200013991906200013d565b5090565b6200016291905b808211156200015e57600081600090555060010162000144565b5090565b90565b600082601f83011215156200017957600080fd5b8151620001906200018a8262000264565b62000236565b91508082526020830160208301858383011115620001ad57600080fd5b620001ba83828462000291565b50505092915050565b60008060408385031215620001d757600080fd5b600083015167ffffffffffffffff811115620001f257600080fd5b620002008582860162000165565b925050602083015167ffffffffffffffff8111156200021e57600080fd5b6200022c8582860162000165565b9150509250929050565b6000604051905081810181811067ffffffffffffffff821117156200025a57600080fd5b8060405250919050565b600067ffffffffffffffff8211156200027c57600080fd5b601f19601f8301169050602081019050919050565b60005b83811015620002b157808201518184015260208101905062000294565b83811115620002c1576000848401525b50505050565b61398380620002d76000396000f3006080604052600436106101f9576000357c0100000000000000000000000000000000000000000000000000000000900463ffffffff16806306fdde03146101fb578063081812fc14610226578063095ea7b314610263578063132996041461028c57806318160ddd146102b75780631cc1472d146102e257806323b872dd1461031f5780632f745c59146103485780633018205f1461038557806340c10f19146103b057806342842e0e146103d95780634f558e79146104025780634f6ccce71461043f5780635c60da1b1461047c5780636352211e146104a757806364e779b1146104e457806370a082311461050d578063715018a61461054a5780637a5b4f59146105615780638da5cb5b1461058c57806395d89b41146105b7578063a22cb465146105e2578063a466c2cc1461060b578063a4de372f14610648578063ad11d4a714610671578063b7f8aa00146106ae578063b88d4fde146106eb578063bb3fcd9b14610714578063c86e7a1914610751578063c87b56dd1461077a578063c93c266e146107b7578063d04a050e146107e0578063d75987e41461081d578063de0280f714610848578063de6ccfa014610885578063e985e9c5146108c2578063ed892aae146108ff578063f06e8ecc14610928578063f2fde38b14610951578063f760a4e21461097a578063ffcc8d0e146109b7575b005b34801561020757600080fd5b506102106109f4565b60405161021d9190613760565b60405180910390f35b34801561023257600080fd5b5061024d600480360361024891908101906134aa565b610a96565b60405161025a919061368d565b60405180910390f35b34801561026f57600080fd5b5061028a600480360361028591908101906133db565b610ad3565b005b34801561029857600080fd5b506102a1610c99565b6040516102ae919061368d565b60405180910390f35b3480156102c357600080fd5b506102cc610cc3565b6040516102d99190613782565b60405180910390f35b3480156102ee57600080fd5b50610309600480360361030491908101906133db565b610cd0565b604051610316919061370f565b60405180910390f35b34801561032b57600080fd5b50610346600480360361034191908101906132d5565b610de9565b005b34801561035457600080fd5b5061036f600480360361036a91908101906133db565b610f00565b60405161037c9190613782565b60405180910390f35b34801561039157600080fd5b5061039a610f77565b6040516103a7919061368d565b60405180910390f35b3480156103bc57600080fd5b506103d760048036036103d291908101906133db565b610fa1565b005b3480156103e557600080fd5b5061040060048036036103fb91908101906132d5565b6110b5565b005b34801561040e57600080fd5b50610429600480360361042491908101906134aa565b6110ed565b604051610436919061370f565b60405180910390f35b34801561044b57600080fd5b50610466600480360361046191908101906134aa565b61115e565b6040516104739190613782565b60405180910390f35b34801561048857600080fd5b50610491611196565b60405161049e919061368d565b60405180910390f35b3480156104b357600080fd5b506104ce60048036036104c991908101906134aa565b6111c0565b6040516104db919061368d565b60405180910390f35b3480156104f057600080fd5b5061050b600480360361050691908101906134aa565b61123d565b005b34801561051957600080fd5b50610534600480360361052f9190810190613270565b611358565b6040516105419190613782565b60405180910390f35b34801561055657600080fd5b5061055f6113dc565b005b34801561056d57600080fd5b506105766114e1565b604051610583919061368d565b60405180910390f35b34801561059857600080fd5b506105a161150b565b6040516105ae919061368d565b60405180910390f35b3480156105c357600080fd5b506105cc611531565b6040516105d99190613760565b60405180910390f35b3480156105ee57600080fd5b506106096004803603610604919081019061339f565b6115d3565b005b34801561061757600080fd5b50610632600480360361062d91908101906134aa565b61170b565b60405161063f9190613782565b60405180910390f35b34801561065457600080fd5b5061066f600480360361066a9190810190613270565b61172b565b005b34801561067d57600080fd5b50610698600480360361069391908101906134aa565b6117f1565b6040516106a5919061368d565b60405180910390f35b3480156106ba57600080fd5b506106d560048036036106d09190810190613538565b611831565b6040516106e2919061370f565b60405180910390f35b3480156106f757600080fd5b50610712600480360361070d9190810190613324565b611999565b005b34801561072057600080fd5b5061073b600480360361073691908101906134aa565b6119d8565b604051610748919061372a565b60405180910390f35b34801561075d57600080fd5b50610778600480360361077391908101906134fc565b6119f8565b005b34801561078657600080fd5b506107a1600480360361079c91908101906134aa565b611adc565b6040516107ae9190613760565b60405180910390f35b3480156107c357600080fd5b506107de60048036036107d99190810190613270565b611b48565b005b3480156107ec57600080fd5b5061080760048036036108029190810190613587565b611c0e565b604051610814919061370f565b60405180910390f35b34801561082957600080fd5b50610832611dfb565b60405161083f919061368d565b60405180910390f35b34801561085457600080fd5b5061086f600480360361086a9190810190613469565b611e25565b60405161087c919061372a565b60405180910390f35b34801561089157600080fd5b506108ac60048036036108a791908101906134aa565b611e91565b6040516108b99190613782565b60405180910390f35b3480156108ce57600080fd5b506108e960048036036108e49190810190613299565b611ef5565b6040516108f6919061370f565b60405180910390f35b34801561090b57600080fd5b5061092660048036036109219190810190613270565b611f89565b005b34801561093457600080fd5b5061094f600480360361094a9190810190613270565b61204f565b005b34801561095d57600080fd5b5061097860048036036109739190810190613270565b612115565b005b34801561098657600080fd5b506109a1600480360361099c9190810190613538565b61217d565b6040516109ae919061370f565b60405180910390f35b3480156109c357600080fd5b506109de60048036036109d991908101906134aa565b61239a565b6040516109eb919061370f565b60405180910390f35b606060048054600181600116156101000203166002900480601f016020809104026020016040519081016040528092919081815260200182805460018160011615610100020316600290048015610a8c5780601f10610a6157610100808354040283529160200191610a8c565b820191906000526020600020905b815481529060010190602001808311610a6f57829003601f168201915b5050505050905090565b60006001600083815260200190815260200160002060009054906101000a900473ffffffffffffffffffffffffffffffffffffffff169050919050565b6000610ade826111c0565b90508073ffffffffffffffffffffffffffffffffffffffff168373ffffffffffffffffffffffffffffffffffffffff1614151515610b1b57600080fd5b8073ffffffffffffffffffffffffffffffffffffffff163373ffffffffffffffffffffffffffffffffffffffff161480610b5b5750610b5a8133611ef5565b5b1515610b6657600080fd5b600073ffffffffffffffffffffffffffffffffffffffff16610b8783610a96565b73ffffffffffffffffffffffffffffffffffffffff16141580610bd75750600073ffffffffffffffffffffffffffffffffffffffff168373ffffffffffffffffffffffffffffffffffffffff1614155b15610c9457826001600084815260200190815260200160002060006101000a81548173ffffffffffffffffffffffffffffffffffffffff021916908373ffffffffffffffffffffffffffffffffffffffff1602179055508273ffffffffffffffffffffffffffffffffffffffff168173ffffffffffffffffffffffffffffffffffffffff167f8c5be1e5ebec7d5bd14f71427d1e84f3dd0314c0f7b2291e5b200ac8c7c3b92584604051610c8b9190613782565b60405180910390a35b505050565b6000600e60009054906101000a900473ffffffffffffffffffffffffffffffffffffffff16905090565b6000600880549050905090565b6000600d60009054906101000a900473ffffffffffffffffffffffffffffffffffffffff1673ffffffffffffffffffffffffffffffffffffffff163373ffffffffffffffffffffffffffffffffffffffff161480610d7b5750600b60009054906101000a900473ffffffffffffffffffffffffffffffffffffffff1673ffffffffffffffffffffffffffffffffffffffff163373ffffffffffffffffffffffffffffffffffffffff16145b1515610d8657600080fd5b3073ffffffffffffffffffffffffffffffffffffffff16318211151515610dac57600080fd5b8273ffffffffffffffffffffffffffffffffffffffff166108fc839081150290604051600060405180830381858888f19350505050905092915050565b80610df433826123c7565b1515610dff57600080fd5b600073ffffffffffffffffffffffffffffffffffffffff168473ffffffffffffffffffffffffffffffffffffffff1614151515610e3b57600080fd5b600073ffffffffffffffffffffffffffffffffffffffff168373ffffffffffffffffffffffffffffffffffffffff1614151515610e7757600080fd5b610e81848361245c565b610e8b84836125c5565b610e9583836127dd565b8273ffffffffffffffffffffffffffffffffffffffff168473ffffffffffffffffffffffffffffffffffffffff167fddf252ad1be2c89b69c2b068fc378daa952ba7f163c4a11628f55a4df523b3ef84604051610ef29190613782565b60405180910390a350505050565b6000610f0b83611358565b82101515610f1857600080fd5b600660008473ffffffffffffffffffffffffffffffffffffffff1673ffffffffffffffffffffffffffffffffffffffff16815260200190815260200160002082815481101515610f6457fe5b9060005260206000200154905092915050565b6000600d60009054906101000a900473ffffffffffffffffffffffffffffffffffffffff16905090565b6000600d60009054906101000a900473ffffffffffffffffffffffffffffffffffffffff1673ffffffffffffffffffffffffffffffffffffffff163373ffffffffffffffffffffffffffffffffffffffff16148061104c5750600b60009054906101000a900473ffffffffffffffffffffffffffffffffffffffff1673ffffffffffffffffffffffffffffffffffffffff163373ffffffffffffffffffffffffffffffffffffffff16145b151561105757600080fd5b61106183836128b4565b61106a82611e91565b90506110966001601060008481526020019081526020016000206001015461290b90919063ffffffff16565b6010600083815260200190815260200160002060010181905550505050565b806110c033826123c7565b15156110cb57600080fd5b6110e78484846020604051908101604052806000815250611999565b50505050565b60008060008084815260200190815260200160002060009054906101000a900473ffffffffffffffffffffffffffffffffffffffff169050600073ffffffffffffffffffffffffffffffffffffffff168173ffffffffffffffffffffffffffffffffffffffff161415915050919050565b6000611168610cc3565b8210151561117557600080fd5b60088281548110151561118457fe5b90600052602060002001549050919050565b6000600c60009054906101000a900473ffffffffffffffffffffffffffffffffffffffff16905090565b60008060008084815260200190815260200160002060009054906101000a900473ffffffffffffffffffffffffffffffffffffffff169050600073ffffffffffffffffffffffffffffffffffffffff168173ffffffffffffffffffffffffffffffffffffffff161415151561123457600080fd5b80915050919050565b6000600d60009054906101000a900473ffffffffffffffffffffffffffffffffffffffff1673ffffffffffffffffffffffffffffffffffffffff163373ffffffffffffffffffffffffffffffffffffffff1614806112e85750600b60009054906101000a900473ffffffffffffffffffffffffffffffffffffffff1673ffffffffffffffffffffffffffffffffffffffff163373ffffffffffffffffffffffffffffffffffffffff16145b15156112f357600080fd5b6113056112ff836111c0565b83612927565b61130e82611e91565b905061133a60016010600084815260200190815260200160002060010154612a5f90919063ffffffff16565b60106000838152602001908152602001600020600101819055505050565b60008073ffffffffffffffffffffffffffffffffffffffff168273ffffffffffffffffffffffffffffffffffffffff161415151561139557600080fd5b600260008373ffffffffffffffffffffffffffffffffffffffff1673ffffffffffffffffffffffffffffffffffffffff168152602001908152602001600020549050919050565b600b60009054906101000a900473ffffffffffffffffffffffffffffffffffffffff1673ffffffffffffffffffffffffffffffffffffffff163373ffffffffffffffffffffffffffffffffffffffff1614151561143857600080fd5b600b60009054906101000a900473ffffffffffffffffffffffffffffffffffffffff1673ffffffffffffffffffffffffffffffffffffffff167ff8df31144d9c2f0f6b59d69b8b98abd5459d07f2742c4df920b25aae33c6482060405160405180910390a26000600b60006101000a81548173ffffffffffffffffffffffffffffffffffffffff021916908373ffffffffffffffffffffffffffffffffffffffff160217905550565b6000600c60009054906101000a900473ffffffffffffffffffffffffffffffffffffffff16905090565b600b60009054906101000a900473ffffffffffffffffffffffffffffffffffffffff1681565b606060058054600181600116156101000203166002900480601f0160208091040260200160405190810160405280929190818152602001828054600181600116156101000203166002900480156115c95780601f1061159e576101008083540402835291602001916115c9565b820191906000526020600020905b8154815290600101906020018083116115ac57829003601f168201915b5050505050905090565b3373ffffffffffffffffffffffffffffffffffffffff168273ffffffffffffffffffffffffffffffffffffffff161415151561160e57600080fd5b80600360003373ffffffffffffffffffffffffffffffffffffffff1673ffffffffffffffffffffffffffffffffffffffff16815260200190815260200160002060008473ffffffffffffffffffffffffffffffffffffffff1673ffffffffffffffffffffffffffffffffffffffff16815260200190815260200160002060006101000a81548160ff0219169083151502179055508173ffffffffffffffffffffffffffffffffffffffff163373ffffffffffffffffffffffffffffffffffffffff167f17307eab39ab6107e8899845ad3d59bd9653f200f220920489ca2b5937696c31836040516116ff919061370f565b60405180910390a35050565b600060106000838152602001908152602001600020600101549050919050565b600b60009054906101000a900473ffffffffffffffffffffffffffffffffffffffff1673ffffffffffffffffffffffffffffffffffffffff163373ffffffffffffffffffffffffffffffffffffffff1614151561178757600080fd5b60008173ffffffffffffffffffffffffffffffffffffffff16141515156117ad57600080fd5b80600d60006101000a81548173ffffffffffffffffffffffffffffffffffffffff021916908373ffffffffffffffffffffffffffffffffffffffff16021790555050565b60006010600083815260200190815260200160002060000160019054906101000a900473ffffffffffffffffffffffffffffffffffffffff169050919050565b6000600d60009054906101000a900473ffffffffffffffffffffffffffffffffffffffff1673ffffffffffffffffffffffffffffffffffffffff163373ffffffffffffffffffffffffffffffffffffffff1614806118dc5750600b60009054906101000a900473ffffffffffffffffffffffffffffffffffffffff1673ffffffffffffffffffffffffffffffffffffffff163373ffffffffffffffffffffffffffffffffffffffff16145b15156118e757600080fd5b8173ffffffffffffffffffffffffffffffffffffffff1663095ea7b384866040518363ffffffff167c010000000000000000000000000000000000000000000000000000000002815260040161193e9291906136a8565b602060405180830381600087803b15801561195857600080fd5b505af115801561196c573d6000803e3d6000fd5b505050506040513d601f19601f820116820180604052506119909190810190613417565b90509392505050565b816119a433826123c7565b15156119af57600080fd5b6119ba858585610de9565b6119c685858585612a78565b15156119d157600080fd5b5050505050565b600060106000838152602001908152602001600020600201549050919050565b600b60009054906101000a900473ffffffffffffffffffffffffffffffffffffffff1673ffffffffffffffffffffffffffffffffffffffff163373ffffffffffffffffffffffffffffffffffffffff16141515611a5457600080fd5b6010600083815260200190815260200160002060000160009054906101000a900460ff161515611a8357600080fd5b806010600084815260200190815260200160002060000160016101000a81548173ffffffffffffffffffffffffffffffffffffffff021916908373ffffffffffffffffffffffffffffffffffffffff1602179055505050565b606060006060611aea611196565b91506000368080601f0160208091040260200160405190810160405280939291908181526020018383808284378201915050505050509050600080825160208401855af43d604051816000823e8260008114611b44578282f35b8282fd5b600b60009054906101000a900473ffffffffffffffffffffffffffffffffffffffff1673ffffffffffffffffffffffffffffffffffffffff163373ffffffffffffffffffffffffffffffffffffffff16141515611ba457600080fd5b60008173ffffffffffffffffffffffffffffffffffffffff1614151515611bca57600080fd5b80600e60006101000a81548173ffffffffffffffffffffffffffffffffffffffff021916908373ffffffffffffffffffffffffffffffffffffffff16021790555050565b6000600d60009054906101000a900473ffffffffffffffffffffffffffffffffffffffff1673ffffffffffffffffffffffffffffffffffffffff163373ffffffffffffffffffffffffffffffffffffffff161480611cb95750600b60009054906101000a900473ffffffffffffffffffffffffffffffffffffffff1673ffffffffffffffffffffffffffffffffffffffff163373ffffffffffffffffffffffffffffffffffffffff16145b1515611cc457600080fd5b60008414151515611cd457600080fd5b60106000611cec600187612a5f90919063ffffffff16565b815260200190815260200160002060000160009054906101000a900460ff1680611d165750600184145b1515611d2157600080fd5b6010600085815260200190815260200160002060000160009054906101000a900460ff16151515611d5157600080fd5b60016010600086815260200190815260200160002060000160006101000a81548160ff021916908315150217905550826010600086815260200190815260200160002060000160016101000a81548173ffffffffffffffffffffffffffffffffffffffff021916908373ffffffffffffffffffffffffffffffffffffffff160217905550816010600086815260200190815260200160002060020181600019169055509392505050565b6000600f60009054906101000a900473ffffffffffffffffffffffffffffffffffffffff16905090565b6000816040518082805190602001908083835b602083101515611e5d5780518252602082019150602081019050602083039250611e38565b6001836020036101000a03801982511681845116808217855250505050505090500191505060405180910390209050919050565b6000611ea7600183612a5f90919063ffffffff16565b9150611eee6001611ee06064611ed2606487811515611ec257fe5b0687612a5f90919063ffffffff16565b612bc690919063ffffffff16565b61290b90919063ffffffff16565b9050919050565b6000600360008473ffffffffffffffffffffffffffffffffffffffff1673ffffffffffffffffffffffffffffffffffffffff16815260200190815260200160002060008373ffffffffffffffffffffffffffffffffffffffff1673ffffffffffffffffffffffffffffffffffffffff16815260200190815260200160002060009054906101000a900460ff16905092915050565b600b60009054906101000a900473ffffffffffffffffffffffffffffffffffffffff1673ffffffffffffffffffffffffffffffffffffffff163373ffffffffffffffffffffffffffffffffffffffff16141515611fe557600080fd5b60008173ffffffffffffffffffffffffffffffffffffffff161415151561200b57600080fd5b80600c60006101000a81548173ffffffffffffffffffffffffffffffffffffffff021916908373ffffffffffffffffffffffffffffffffffffffff16021790555050565b600b60009054906101000a900473ffffffffffffffffffffffffffffffffffffffff1673ffffffffffffffffffffffffffffffffffffffff163373ffffffffffffffffffffffffffffffffffffffff161415156120ab57600080fd5b60008173ffffffffffffffffffffffffffffffffffffffff16141515156120d157600080fd5b80600f60006101000a81548173ffffffffffffffffffffffffffffffffffffffff021916908373ffffffffffffffffffffffffffffffffffffffff16021790555050565b600b60009054906101000a900473ffffffffffffffffffffffffffffffffffffffff1673ffffffffffffffffffffffffffffffffffffffff163373ffffffffffffffffffffffffffffffffffffffff1614151561217157600080fd5b61217a81612bdc565b50565b6000600d60009054906101000a900473ffffffffffffffffffffffffffffffffffffffff1673ffffffffffffffffffffffffffffffffffffffff163373ffffffffffffffffffffffffffffffffffffffff1614806122285750600b60009054906101000a900473ffffffffffffffffffffffffffffffffffffffff1673ffffffffffffffffffffffffffffffffffffffff163373ffffffffffffffffffffffffffffffffffffffff16145b151561223357600080fd5b8173ffffffffffffffffffffffffffffffffffffffff166370a08231306040518263ffffffff167c01000000000000000000000000000000000000000000000000000000000281526004016122889190613745565b602060405180830381600087803b1580156122a257600080fd5b505af11580156122b6573d6000803e3d6000fd5b505050506040513d601f19601f820116820180604052506122da91908101906134d3565b84111515156122e857600080fd5b8173ffffffffffffffffffffffffffffffffffffffff1663a9059cbb84866040518363ffffffff167c010000000000000000000000000000000000000000000000000000000002815260040161233f9291906136a8565b602060405180830381600087803b15801561235957600080fd5b505af115801561236d573d6000803e3d6000fd5b505050506040513d601f19601f820116820180604052506123919190810190613417565b90509392505050565b60006010600083815260200190815260200160002060000160009054906101000a900460ff169050919050565b6000806123d3836111c0565b90508073ffffffffffffffffffffffffffffffffffffffff168473ffffffffffffffffffffffffffffffffffffffff16148061244257508373ffffffffffffffffffffffffffffffffffffffff1661242a84610a96565b73ffffffffffffffffffffffffffffffffffffffff16145b8061245357506124528185611ef5565b5b91505092915050565b8173ffffffffffffffffffffffffffffffffffffffff1661247c826111c0565b73ffffffffffffffffffffffffffffffffffffffff1614151561249e57600080fd5b600073ffffffffffffffffffffffffffffffffffffffff166001600083815260200190815260200160002060009054906101000a900473ffffffffffffffffffffffffffffffffffffffff1673ffffffffffffffffffffffffffffffffffffffff161415156125c15760006001600083815260200190815260200160002060006101000a81548173ffffffffffffffffffffffffffffffffffffffff021916908373ffffffffffffffffffffffffffffffffffffffff160217905550600073ffffffffffffffffffffffffffffffffffffffff168273ffffffffffffffffffffffffffffffffffffffff167f8c5be1e5ebec7d5bd14f71427d1e84f3dd0314c0f7b2291e5b200ac8c7c3b925836040516125b89190613782565b60405180910390a35b5050565b60008060006125d48585612cd8565b600760008581526020019081526020016000205492506126406001600660008873ffffffffffffffffffffffffffffffffffffffff1673ffffffffffffffffffffffffffffffffffffffff16815260200190815260200160002080549050612a5f90919063ffffffff16565b9150600660008673ffffffffffffffffffffffffffffffffffffffff1673ffffffffffffffffffffffffffffffffffffffff1681526020019081526020016000208281548110151561268e57fe5b9060005260206000200154905080600660008773ffffffffffffffffffffffffffffffffffffffff1673ffffffffffffffffffffffffffffffffffffffff168152602001908152602001600020848154811015156126e857fe5b90600052602060002001819055506000600660008773ffffffffffffffffffffffffffffffffffffffff1673ffffffffffffffffffffffffffffffffffffffff1681526020019081526020016000208381548110151561274457fe5b9060005260206000200181905550600660008673ffffffffffffffffffffffffffffffffffffffff1673ffffffffffffffffffffffffffffffffffffffff1681526020019081526020016000208054809190600190036127a4919061309f565b50600060076000868152602001908152602001600020819055508260076000838152602001908152602001600020819055505050505050565b60006127e98383612e06565b600660008473ffffffffffffffffffffffffffffffffffffffff1673ffffffffffffffffffffffffffffffffffffffff168152602001908152602001600020805490509050600660008473ffffffffffffffffffffffffffffffffffffffff1673ffffffffffffffffffffffffffffffffffffffff168152602001908152602001600020829080600181540180825580915050906001820390600052602060002001600090919290919091505550806007600084815260200190815260200160002081905550505050565b6128be8282612f5e565b600880549050600960008381526020019081526020016000208190555060088190806001815401808255809150509060018203906000526020600020016000909192909190915055505050565b6000818301905082811015151561291e57fe5b80905092915050565b6000806000612936858561300e565b6000600a600086815260200190815260200160002080546001816001161561010002031660029004905014151561298757600a6000858152602001908152602001600020600061298691906130cb565b5b600960008581526020019081526020016000205492506129b66001600880549050612a5f90919063ffffffff16565b91506008828154811015156129c757fe5b90600052602060002001549050806008848154811015156129e457fe5b90600052602060002001819055506000600883815481101515612a0357fe5b90600052602060002001819055506008805480919060019003612a26919061309f565b50600060096000868152602001908152602001600020819055508260096000838152602001908152602001600020819055505050505050565b6000828211151515612a6d57fe5b818303905092915050565b600080612a9a8573ffffffffffffffffffffffffffffffffffffffff1661308c565b1515612aa95760019150612bbd565b8473ffffffffffffffffffffffffffffffffffffffff1663f0b9e5ba8786866040518463ffffffff167c0100000000000000000000000000000000000000000000000000000000028152600401612b02939291906136d1565b602060405180830381600087803b158015612b1c57600080fd5b505af1158015612b30573d6000803e3d6000fd5b505050506040513d601f19601f82011682018060405250612b549190810190613440565b905063f0b9e5ba7c0100000000000000000000000000000000000000000000000000000000027bffffffffffffffffffffffffffffffffffffffffffffffffffffffff1916817bffffffffffffffffffffffffffffffffffffffffffffffffffffffff19161491505b50949350505050565b60008183811515612bd357fe5b04905092915050565b600073ffffffffffffffffffffffffffffffffffffffff168173ffffffffffffffffffffffffffffffffffffffff1614151515612c1857600080fd5b8073ffffffffffffffffffffffffffffffffffffffff16600b60009054906101000a900473ffffffffffffffffffffffffffffffffffffffff1673ffffffffffffffffffffffffffffffffffffffff167f8be0079c531659141344cd1fd0a4f28419497f9722a3daafe3b4186f6b6457e060405160405180910390a380600b60006101000a81548173ffffffffffffffffffffffffffffffffffffffff021916908373ffffffffffffffffffffffffffffffffffffffff16021790555050565b8173ffffffffffffffffffffffffffffffffffffffff16612cf8826111c0565b73ffffffffffffffffffffffffffffffffffffffff16141515612d1a57600080fd5b612d6d6001600260008573ffffffffffffffffffffffffffffffffffffffff1673ffffffffffffffffffffffffffffffffffffffff16815260200190815260200160002054612a5f90919063ffffffff16565b600260008473ffffffffffffffffffffffffffffffffffffffff1673ffffffffffffffffffffffffffffffffffffffff16815260200190815260200160002081905550600080600083815260200190815260200160002060006101000a81548173ffffffffffffffffffffffffffffffffffffffff021916908373ffffffffffffffffffffffffffffffffffffffff1602179055505050565b600073ffffffffffffffffffffffffffffffffffffffff1660008083815260200190815260200160002060009054906101000a900473ffffffffffffffffffffffffffffffffffffffff1673ffffffffffffffffffffffffffffffffffffffff16141515612e7357600080fd5b8160008083815260200190815260200160002060006101000a81548173ffffffffffffffffffffffffffffffffffffffff021916908373ffffffffffffffffffffffffffffffffffffffff160217905550612f176001600260008573ffffffffffffffffffffffffffffffffffffffff1673ffffffffffffffffffffffffffffffffffffffff1681526020019081526020016000205461290b90919063ffffffff16565b600260008473ffffffffffffffffffffffffffffffffffffffff1673ffffffffffffffffffffffffffffffffffffffff168152602001908152602001600020819055505050565b600073ffffffffffffffffffffffffffffffffffffffff168273ffffffffffffffffffffffffffffffffffffffff1614151515612f9a57600080fd5b612fa482826127dd565b8173ffffffffffffffffffffffffffffffffffffffff16600073ffffffffffffffffffffffffffffffffffffffff167fddf252ad1be2c89b69c2b068fc378daa952ba7f163c4a11628f55a4df523b3ef836040516130029190613782565b60405180910390a35050565b613018828261245c565b61302282826125c5565b600073ffffffffffffffffffffffffffffffffffffffff168273ffffffffffffffffffffffffffffffffffffffff167fddf252ad1be2c89b69c2b068fc378daa952ba7f163c4a11628f55a4df523b3ef836040516130809190613782565b60405180910390a35050565b600080823b905060008111915050919050565b8154818355818111156130c6578183600052602060002091820191016130c59190613113565b5b505050565b50805460018160011615610100020316600290046000825580601f106130f15750613110565b601f01602090049060005260206000209081019061310f9190613113565b5b50565b61313591905b80821115613131576000816000905550600101613119565b5090565b90565b60006131448235613878565b905092915050565b60006131588235613898565b905092915050565b600061316c8251613898565b905092915050565b600061318082356138a4565b905092915050565b600061319482516138ae565b905092915050565b600082601f83011215156131af57600080fd5b81356131c26131bd826137ca565b61379d565b915080825260208301602083018583830111156131de57600080fd5b6131e98382846138f6565b50505092915050565b600082601f830112151561320557600080fd5b8135613218613213826137f6565b61379d565b9150808252602083016020830185838301111561323457600080fd5b61323f8382846138f6565b50505092915050565b600061325482356138da565b905092915050565b600061326882516138da565b905092915050565b60006020828403121561328257600080fd5b600061329084828501613138565b91505092915050565b600080604083850312156132ac57600080fd5b60006132ba85828601613138565b92505060206132cb85828601613138565b9150509250929050565b6000806000606084860312156132ea57600080fd5b60006132f886828701613138565b935050602061330986828701613138565b925050604061331a86828701613248565b9150509250925092565b6000806000806080858703121561333a57600080fd5b600061334887828801613138565b945050602061335987828801613138565b935050604061336a87828801613248565b925050606085013567ffffffffffffffff81111561338757600080fd5b6133938782880161319c565b91505092959194509250565b600080604083850312156133b257600080fd5b60006133c085828601613138565b92505060206133d18582860161314c565b9150509250929050565b600080604083850312156133ee57600080fd5b60006133fc85828601613138565b925050602061340d85828601613248565b9150509250929050565b60006020828403121561342957600080fd5b600061343784828501613160565b91505092915050565b60006020828403121561345257600080fd5b600061346084828501613188565b91505092915050565b60006020828403121561347b57600080fd5b600082013567ffffffffffffffff81111561349557600080fd5b6134a1848285016131f2565b91505092915050565b6000602082840312156134bc57600080fd5b60006134ca84828501613248565b91505092915050565b6000602082840312156134e557600080fd5b60006134f38482850161325c565b91505092915050565b6000806040838503121561350f57600080fd5b600061351d85828601613248565b925050602061352e85828601613138565b9150509250929050565b60008060006060848603121561354d57600080fd5b600061355b86828701613248565b935050602061356c86828701613138565b925050604061357d86828701613138565b9150509250925092565b60008060006060848603121561359c57600080fd5b60006135aa86828701613248565b93505060206135bb86828701613138565b92505060406135cc86828701613174565b9150509250925092565b6135df81613838565b82525050565b6135ee81613858565b82525050565b6135fd81613864565b82525050565b600061360e82613822565b808452613622816020860160208601613905565b61362b81613938565b602085010191505092915050565b613642816138e4565b82525050565b60006136538261382d565b808452613667816020860160208601613905565b61367081613938565b602085010191505092915050565b6136878161386e565b82525050565b60006020820190506136a260008301846135d6565b92915050565b60006040820190506136bd60008301856135d6565b6136ca602083018461367e565b9392505050565b60006060820190506136e660008301866135d6565b6136f3602083018561367e565b81810360408301526137058184613603565b9050949350505050565b600060208201905061372460008301846135e5565b92915050565b600060208201905061373f60008301846135f4565b92915050565b600060208201905061375a6000830184613639565b92915050565b6000602082019050818103600083015261377a8184613648565b905092915050565b6000602082019050613797600083018461367e565b92915050565b6000604051905081810181811067ffffffffffffffff821117156137c057600080fd5b8060405250919050565b600067ffffffffffffffff8211156137e157600080fd5b601f19601f8301169050602081019050919050565b600067ffffffffffffffff82111561380d57600080fd5b601f19601f8301169050602081019050919050565b600081519050919050565b600081519050919050565b600073ffffffffffffffffffffffffffffffffffffffff82169050919050565b60008115159050919050565b6000819050919050565b6000819050919050565b600073ffffffffffffffffffffffffffffffffffffffff82169050919050565b60008115159050919050565b6000819050919050565b60007fffffffff0000000000000000000000000000000000000000000000000000000082169050919050565b6000819050919050565b60006138ef82613838565b9050919050565b82818337600083830152505050565b60005b83811015613923578082015181840152602081019050613908565b83811115613932576000848401525b50505050565b6000601f19601f83011690509190505600a265627a7a723058204f37e776787d64a076700b123a7152cf6af81cabe183dd771e3af92b092a92a56c6578706572696d656e74616cf50037",
  "source": "pragma solidity ^0.4.18;\npragma experimental ABIEncoderV2;\n\n/**\n * Digital Asset Registry for the Non Fungible Token AnotherCoin\n * with upgradeable contract reference for returning metadata.\n */\nimport \"./Metadata.sol\";\nimport \"zeppelin-solidity/contracts/token/ERC20/ERC20.sol\";\n\nimport \"./IPatches.sol\";\nimport \"zeppelin-solidity/contracts/token/ERC721/ERC721Token.sol\";\nimport \"zeppelin-solidity/contracts/ownership/Ownable.sol\";\n\n\ncontract Patches is IPatches, ERC721Token, Ownable {\n\n\n   modifier onlyOwnerOrController() {\n        require(\n            msg.sender == controller ||\n            msg.sender == owner\n        );\n        _;\n    }\n\n    address metadata;\n    address controller;\n    address wallet;\n    address billy;\n\n    struct Work {\n        bool exists;\n        address artist;\n        uint sold;\n        bytes32 hash;\n    }\n\n    mapping(uint => Work) works;\n\n    function Patches (string name, string symbol) public\n        ERC721Token(name, symbol)\n    { }\n\n    function () public payable {}\n\n    function implementation() public view returns (address) {\n        return metadata;\n    }\n\n    function tokenURI(uint _tokenId) public view returns (string _infoUrl) {\n        address _impl = implementation();\n        bytes memory data = msg.data;\n        assembly {\n            let result := delegatecall(gas, _impl, add(data, 0x20), mload(data), 0, 0)\n            let size := returndatasize\n            let ptr := mload(0x40)\n            returndatacopy(ptr, 0, size)\n            switch result\n            case 0 { revert(ptr, size) }\n            default { return(ptr, size) }\n        }\n    }\n\n    function getWorkFromToken(uint _tokenId) public pure returns (uint) {\n        _tokenId = _tokenId.sub(1);\n        return (_tokenId.sub(_tokenId % 100)).div(100).add(1);\n    }\n\n    function getController() public constant returns (address) {\n        return controller;\n    }\n    function getMetadata() public constant returns (address) {\n        return metadata;\n    }\n    function getWallet() public constant returns (address) {\n        return wallet;\n    }\n    function getBilly() public constant returns (address) {\n        return billy;\n    }\n    function workExists(uint _workId) public constant returns (bool) {\n        return works[_workId].exists;\n    }\n    function workArtist(uint _workId) public constant returns (address) {\n        return works[_workId].artist;\n    }\n    function workSold(uint _workId) public constant returns (uint) {\n        return works[_workId].sold;\n    }\n    function workHash(uint _workId) public constant returns (bytes32) {\n        return works[_workId].hash;\n    }\n    function hashWork(string work) public constant returns (bytes32) {\n        return sha3(work);\n    }\n\n/* ---------------------------------------------------------------------------------------------------------------------- */\n\n    function addWork(uint _workId, address _artist, bytes32 _hash) public onlyOwnerOrController returns (bool) {\n        require(_workId != 0);\n        require(works[_workId.sub(1)].exists || _workId == 1);\n        require(!works[_workId].exists);\n        works[_workId].exists = true;\n        works[_workId].artist = _artist;\n        works[_workId].hash = _hash;\n    }    \n\n    function moveEth(address _to, uint256 amount) public onlyOwnerOrController returns (bool) {\n        require(amount <= this.balance);\n        return _to.send(amount);\n    }\n    function moveToken(uint256 amount, address _to, address token) public onlyOwnerOrController returns (bool) {\n        require(amount <= ERC20(token).balanceOf(this));\n        return ERC20(token).transfer(_to, amount);\n    }\n    function approveToken(uint256 amount, address _to, address token) public onlyOwnerOrController returns (bool) {\n        return ERC20(token).approve(_to, amount);\n    }\n\n    function updateArtistAddress(uint _workId, address _artist) public onlyOwner {\n        require(works[_workId].exists);\n       works[_workId].artist = _artist;\n    }\n    function updateWalletAddress(address _wallet) public onlyOwner {\n        require(_wallet != 0);\n        wallet = _wallet;\n    }\n    function updateBillyAddress(address _billy) public onlyOwner {\n        require(_billy != 0);\n        billy = _billy;\n    }\n    function updateControllerAddress(address _controller) public onlyOwner {\n        require(_controller != 0);\n        controller = _controller;\n    }\n    function updateMetadataAddress(address _metadata) public onlyOwner {\n        require(_metadata != 0);\n        metadata = _metadata;\n    }\n\n    function mint (address _to, uint256 _tokenId) public onlyOwnerOrController {\n        super._mint(_to, _tokenId);\n        uint workId = getWorkFromToken(_tokenId);\n        works[workId].sold = works[workId].sold.add(1);\n    }\n    function unmint (uint256 _tokenId) public onlyOwnerOrController {\n        super._burn(ownerOf(_tokenId), _tokenId);\n\n        uint workId = getWorkFromToken(_tokenId);\n        works[workId].sold = works[workId].sold.sub(1);\n    }\n\n}\n",
  "sourcePath": "/Users/billy/sol/new-models-contracts/contracts/Patches.sol",
  "compiler": {
    "name": "solc",
    "version": "0.4.24+commit.e67f0147.Emscripten.clang"
  },
  "schemaVersion": "2.0.0",
  "updatedAt": "2018-06-15T11:16:10.173Z"
}