{
  "contractName": "Patches",
  "abi": [
    {
      "constant": true,
      "inputs": [],
      "name": "name",
      "outputs": [
        {
          "name": "",
          "type": "string"
        }
      ],
      "payable": false,
      "stateMutability": "view",
      "type": "function"
    },
    {
      "constant": true,
      "inputs": [
        {
          "name": "_tokenId",
          "type": "uint256"
        }
      ],
      "name": "getApproved",
      "outputs": [
        {
          "name": "",
          "type": "address"
        }
      ],
      "payable": false,
      "stateMutability": "view",
      "type": "function"
    },
    {
      "constant": false,
      "inputs": [
        {
          "name": "_to",
          "type": "address"
        },
        {
          "name": "_tokenId",
          "type": "uint256"
        }
      ],
      "name": "approve",
      "outputs": [],
      "payable": false,
      "stateMutability": "nonpayable",
      "type": "function"
    },
    {
      "constant": true,
      "inputs": [],
      "name": "totalSupply",
      "outputs": [
        {
          "name": "",
          "type": "uint256"
        }
      ],
      "payable": false,
      "stateMutability": "view",
      "type": "function"
    },
    {
      "constant": false,
      "inputs": [
        {
          "name": "_from",
          "type": "address"
        },
        {
          "name": "_to",
          "type": "address"
        },
        {
          "name": "_tokenId",
          "type": "uint256"
        }
      ],
      "name": "transferFrom",
      "outputs": [],
      "payable": false,
      "stateMutability": "nonpayable",
      "type": "function"
    },
    {
      "constant": true,
      "inputs": [
        {
          "name": "_owner",
          "type": "address"
        },
        {
          "name": "_index",
          "type": "uint256"
        }
      ],
      "name": "tokenOfOwnerByIndex",
      "outputs": [
        {
          "name": "",
          "type": "uint256"
        }
      ],
      "payable": false,
      "stateMutability": "view",
      "type": "function"
    },
    {
      "constant": false,
      "inputs": [
        {
          "name": "_from",
          "type": "address"
        },
        {
          "name": "_to",
          "type": "address"
        },
        {
          "name": "_tokenId",
          "type": "uint256"
        }
      ],
      "name": "safeTransferFrom",
      "outputs": [],
      "payable": false,
      "stateMutability": "nonpayable",
      "type": "function"
    },
    {
      "constant": true,
      "inputs": [
        {
          "name": "_tokenId",
          "type": "uint256"
        }
      ],
      "name": "exists",
      "outputs": [
        {
          "name": "",
          "type": "bool"
        }
      ],
      "payable": false,
      "stateMutability": "view",
      "type": "function"
    },
    {
      "constant": true,
      "inputs": [
        {
          "name": "_index",
          "type": "uint256"
        }
      ],
      "name": "tokenByIndex",
      "outputs": [
        {
          "name": "",
          "type": "uint256"
        }
      ],
      "payable": false,
      "stateMutability": "view",
      "type": "function"
    },
    {
      "constant": true,
      "inputs": [
        {
          "name": "_tokenId",
          "type": "uint256"
        }
      ],
      "name": "ownerOf",
      "outputs": [
        {
          "name": "",
          "type": "address"
        }
      ],
      "payable": false,
      "stateMutability": "view",
      "type": "function"
    },
    {
      "constant": true,
      "inputs": [
        {
          "name": "_owner",
          "type": "address"
        }
      ],
      "name": "balanceOf",
      "outputs": [
        {
          "name": "",
          "type": "uint256"
        }
      ],
      "payable": false,
      "stateMutability": "view",
      "type": "function"
    },
    {
      "constant": true,
      "inputs": [],
      "name": "owner",
      "outputs": [
        {
          "name": "",
          "type": "address"
        }
      ],
      "payable": false,
      "stateMutability": "view",
      "type": "function"
    },
    {
      "constant": true,
      "inputs": [],
      "name": "symbol",
      "outputs": [
        {
          "name": "",
          "type": "string"
        }
      ],
      "payable": false,
      "stateMutability": "view",
      "type": "function"
    },
    {
      "constant": false,
      "inputs": [
        {
          "name": "_to",
          "type": "address"
        },
        {
          "name": "_approved",
          "type": "bool"
        }
      ],
      "name": "setApprovalForAll",
      "outputs": [],
      "payable": false,
      "stateMutability": "nonpayable",
      "type": "function"
    },
    {
      "constant": false,
      "inputs": [
        {
          "name": "_from",
          "type": "address"
        },
        {
          "name": "_to",
          "type": "address"
        },
        {
          "name": "_tokenId",
          "type": "uint256"
        },
        {
          "name": "_data",
          "type": "bytes"
        }
      ],
      "name": "safeTransferFrom",
      "outputs": [],
      "payable": false,
      "stateMutability": "nonpayable",
      "type": "function"
    },
    {
      "constant": true,
      "inputs": [
        {
          "name": "_owner",
          "type": "address"
        },
        {
          "name": "_operator",
          "type": "address"
        }
      ],
      "name": "isApprovedForAll",
      "outputs": [
        {
          "name": "",
          "type": "bool"
        }
      ],
      "payable": false,
      "stateMutability": "view",
      "type": "function"
    },
    {
      "constant": false,
      "inputs": [
        {
          "name": "newOwner",
          "type": "address"
        }
      ],
      "name": "transferOwnership",
      "outputs": [],
      "payable": false,
      "stateMutability": "nonpayable",
      "type": "function"
    },
    {
      "inputs": [
        {
          "name": "name",
          "type": "string"
        },
        {
          "name": "symbol",
          "type": "string"
        }
      ],
      "payable": false,
      "stateMutability": "nonpayable",
      "type": "constructor"
    },
    {
      "payable": true,
      "stateMutability": "payable",
      "type": "fallback"
    },
    {
      "anonymous": false,
      "inputs": [
        {
          "indexed": true,
          "name": "previousOwner",
          "type": "address"
        },
        {
          "indexed": true,
          "name": "newOwner",
          "type": "address"
        }
      ],
      "name": "OwnershipTransferred",
      "type": "event"
    },
    {
      "anonymous": false,
      "inputs": [
        {
          "indexed": true,
          "name": "_from",
          "type": "address"
        },
        {
          "indexed": true,
          "name": "_to",
          "type": "address"
        },
        {
          "indexed": false,
          "name": "_tokenId",
          "type": "uint256"
        }
      ],
      "name": "Transfer",
      "type": "event"
    },
    {
      "anonymous": false,
      "inputs": [
        {
          "indexed": true,
          "name": "_owner",
          "type": "address"
        },
        {
          "indexed": true,
          "name": "_approved",
          "type": "address"
        },
        {
          "indexed": false,
          "name": "_tokenId",
          "type": "uint256"
        }
      ],
      "name": "Approval",
      "type": "event"
    },
    {
      "anonymous": false,
      "inputs": [
        {
          "indexed": true,
          "name": "_owner",
          "type": "address"
        },
        {
          "indexed": true,
          "name": "_operator",
          "type": "address"
        },
        {
          "indexed": false,
          "name": "_approved",
          "type": "bool"
        }
      ],
      "name": "ApprovalForAll",
      "type": "event"
    },
    {
      "constant": true,
      "inputs": [],
      "name": "implementation",
      "outputs": [
        {
          "name": "",
          "type": "address"
        }
      ],
      "payable": false,
      "stateMutability": "view",
      "type": "function"
    },
    {
      "constant": true,
      "inputs": [
        {
          "name": "_tokenId",
          "type": "uint256"
        }
      ],
      "name": "tokenURI",
      "outputs": [
        {
          "name": "_infoUrl",
          "type": "string"
        }
      ],
      "payable": false,
      "stateMutability": "view",
      "type": "function"
    },
    {
      "constant": true,
      "inputs": [
        {
          "name": "_tokenId",
          "type": "uint256"
        }
      ],
      "name": "getWorkFromToken",
      "outputs": [
        {
          "name": "",
          "type": "uint256"
        }
      ],
      "payable": false,
      "stateMutability": "pure",
      "type": "function"
    },
    {
      "constant": true,
      "inputs": [],
      "name": "getController",
      "outputs": [
        {
          "name": "",
          "type": "address"
        }
      ],
      "payable": false,
      "stateMutability": "view",
      "type": "function"
    },
    {
      "constant": true,
      "inputs": [],
      "name": "getMetadata",
      "outputs": [
        {
          "name": "",
          "type": "address"
        }
      ],
      "payable": false,
      "stateMutability": "view",
      "type": "function"
    },
    {
      "constant": true,
      "inputs": [],
      "name": "getWallet",
      "outputs": [
        {
          "name": "",
          "type": "address"
        }
      ],
      "payable": false,
      "stateMutability": "view",
      "type": "function"
    },
    {
      "constant": true,
      "inputs": [],
      "name": "getBilly",
      "outputs": [
        {
          "name": "",
          "type": "address"
        }
      ],
      "payable": false,
      "stateMutability": "view",
      "type": "function"
    },
    {
      "constant": true,
      "inputs": [
        {
          "name": "_workId",
          "type": "uint256"
        }
      ],
      "name": "workExists",
      "outputs": [
        {
          "name": "",
          "type": "bool"
        }
      ],
      "payable": false,
      "stateMutability": "view",
      "type": "function"
    },
    {
      "constant": true,
      "inputs": [
        {
          "name": "_workId",
          "type": "uint256"
        }
      ],
      "name": "workArtist",
      "outputs": [
        {
          "name": "",
          "type": "address"
        }
      ],
      "payable": false,
      "stateMutability": "view",
      "type": "function"
    },
    {
      "constant": true,
      "inputs": [
        {
          "name": "_workId",
          "type": "uint256"
        }
      ],
      "name": "workSold",
      "outputs": [
        {
          "name": "",
          "type": "uint256"
        }
      ],
      "payable": false,
      "stateMutability": "view",
      "type": "function"
    },
    {
      "constant": false,
      "inputs": [
        {
          "name": "_workId",
          "type": "uint256"
        },
        {
          "name": "_artist",
          "type": "address"
        }
      ],
      "name": "addWork",
      "outputs": [
        {
          "name": "",
          "type": "bool"
        }
      ],
      "payable": false,
      "stateMutability": "nonpayable",
      "type": "function"
    },
    {
      "constant": false,
      "inputs": [
        {
          "name": "_to",
          "type": "address"
        },
        {
          "name": "amount",
          "type": "uint256"
        }
      ],
      "name": "moveEth",
      "outputs": [
        {
          "name": "",
          "type": "bool"
        }
      ],
      "payable": false,
      "stateMutability": "nonpayable",
      "type": "function"
    },
    {
      "constant": false,
      "inputs": [
        {
          "name": "amount",
          "type": "uint256"
        },
        {
          "name": "_to",
          "type": "address"
        },
        {
          "name": "token",
          "type": "address"
        }
      ],
      "name": "moveToken",
      "outputs": [
        {
          "name": "",
          "type": "bool"
        }
      ],
      "payable": false,
      "stateMutability": "nonpayable",
      "type": "function"
    },
    {
      "constant": false,
      "inputs": [
        {
          "name": "amount",
          "type": "uint256"
        },
        {
          "name": "_to",
          "type": "address"
        },
        {
          "name": "token",
          "type": "address"
        }
      ],
      "name": "approveToken",
      "outputs": [
        {
          "name": "",
          "type": "bool"
        }
      ],
      "payable": false,
      "stateMutability": "nonpayable",
      "type": "function"
    },
    {
      "constant": false,
      "inputs": [
        {
          "name": "_workId",
          "type": "uint256"
        },
        {
          "name": "_artist",
          "type": "address"
        }
      ],
      "name": "updateArtistAddress",
      "outputs": [],
      "payable": false,
      "stateMutability": "nonpayable",
      "type": "function"
    },
    {
      "constant": false,
      "inputs": [
        {
          "name": "_wallet",
          "type": "address"
        }
      ],
      "name": "updateWalletAddress",
      "outputs": [],
      "payable": false,
      "stateMutability": "nonpayable",
      "type": "function"
    },
    {
      "constant": false,
      "inputs": [
        {
          "name": "_billy",
          "type": "address"
        }
      ],
      "name": "updateBillyAddress",
      "outputs": [],
      "payable": false,
      "stateMutability": "nonpayable",
      "type": "function"
    },
    {
      "constant": false,
      "inputs": [
        {
          "name": "_controller",
          "type": "address"
        }
      ],
      "name": "updateControllerAddress",
      "outputs": [],
      "payable": false,
      "stateMutability": "nonpayable",
      "type": "function"
    },
    {
      "constant": false,
      "inputs": [
        {
          "name": "_metadata",
          "type": "address"
        }
      ],
      "name": "updateMetadataAddress",
      "outputs": [],
      "payable": false,
      "stateMutability": "nonpayable",
      "type": "function"
    },
    {
      "constant": false,
      "inputs": [
        {
          "name": "_to",
          "type": "address"
        },
        {
          "name": "_tokenId",
          "type": "uint256"
        }
      ],
      "name": "mint",
      "outputs": [],
      "payable": false,
      "stateMutability": "nonpayable",
      "type": "function"
    },
    {
      "constant": false,
      "inputs": [
        {
          "name": "_tokenId",
          "type": "uint256"
        }
      ],
      "name": "unmint",
      "outputs": [],
      "payable": false,
      "stateMutability": "nonpayable",
      "type": "function"
    }
  ],
  "bytecode": "0x60806040523480156200001157600080fd5b5060405162003817380380620038178339810180604052620000379190810190620001c3565b8181816004908051906020019062000051929190620000b6565b5080600590805190602001906200006a929190620000b6565b50505033600b60006101000a81548173ffffffffffffffffffffffffffffffffffffffff021916908373ffffffffffffffffffffffffffffffffffffffff1602179055505050620002c7565b828054600181600116156101000203166002900490600052602060002090601f016020900481019282601f10620000f957805160ff19168380011785556200012a565b828001600101855582156200012a579182015b82811115620001295782518255916020019190600101906200010c565b5b5090506200013991906200013d565b5090565b6200016291905b808211156200015e57600081600090555060010162000144565b5090565b90565b600082601f83011215156200017957600080fd5b8151620001906200018a8262000264565b62000236565b91508082526020830160208301858383011115620001ad57600080fd5b620001ba83828462000291565b50505092915050565b60008060408385031215620001d757600080fd5b600083015167ffffffffffffffff811115620001f257600080fd5b620002008582860162000165565b925050602083015167ffffffffffffffff8111156200021e57600080fd5b6200022c8582860162000165565b9150509250929050565b6000604051905081810181811067ffffffffffffffff821117156200025a57600080fd5b8060405250919050565b600067ffffffffffffffff8211156200027c57600080fd5b601f19601f8301169050602081019050919050565b60005b83811015620002b157808201518184015260208101905062000294565b83811115620002c1576000848401525b50505050565b61354080620002d76000396000f3006080604052600436106101d8576000357c0100000000000000000000000000000000000000000000000000000000900463ffffffff16806306fdde03146101da578063081812fc14610205578063095ea7b314610242578063132996041461026b57806318160ddd146102965780631cc1472d146102c157806323b872dd146102fe5780632f745c59146103275780633018205f1461036457806340c10f191461038f57806342842e0e146103b85780634f558e79146103e15780634f6ccce71461041e5780635c60da1b1461045b5780635d85f3cb146104865780636352211e146104c357806364e779b11461050057806370a08231146105295780637a5b4f59146105665780638da5cb5b1461059157806395d89b41146105bc578063a22cb465146105e7578063a466c2cc14610610578063a4de372f1461064d578063ad11d4a714610676578063b7f8aa00146106b3578063b88d4fde146106f0578063c86e7a1914610719578063c87b56dd14610742578063c93c266e1461077f578063d75987e4146107a8578063de6ccfa0146107d3578063e985e9c514610810578063ed892aae1461084d578063f06e8ecc14610876578063f2fde38b1461089f578063f760a4e2146108c8578063ffcc8d0e14610905575b005b3480156101e657600080fd5b506101ef610942565b6040516101fc919061335d565b60405180910390f35b34801561021157600080fd5b5061022c60048036036102279190810190613120565b6109e4565b60405161023991906132a5565b60405180910390f35b34801561024e57600080fd5b5061026960048036036102649190810190613092565b610a21565b005b34801561027757600080fd5b50610280610be7565b60405161028d91906132a5565b60405180910390f35b3480156102a257600080fd5b506102ab610c11565b6040516102b8919061337f565b60405180910390f35b3480156102cd57600080fd5b506102e860048036036102e39190810190613092565b610c1e565b6040516102f59190613327565b60405180910390f35b34801561030a57600080fd5b5061032560048036036103209190810190612f8c565b610d37565b005b34801561033357600080fd5b5061034e60048036036103499190810190613092565b610e4e565b60405161035b919061337f565b60405180910390f35b34801561037057600080fd5b50610379610ec5565b60405161038691906132a5565b60405180910390f35b34801561039b57600080fd5b506103b660048036036103b19190810190613092565b610eef565b005b3480156103c457600080fd5b506103df60048036036103da9190810190612f8c565b611003565b005b3480156103ed57600080fd5b5061040860048036036104039190810190613120565b61103b565b6040516104159190613327565b60405180910390f35b34801561042a57600080fd5b5061044560048036036104409190810190613120565b6110ac565b604051610452919061337f565b60405180910390f35b34801561046757600080fd5b506104706110e4565b60405161047d91906132a5565b60405180910390f35b34801561049257600080fd5b506104ad60048036036104a89190810190613172565b61110e565b6040516104ba9190613327565b60405180910390f35b3480156104cf57600080fd5b506104ea60048036036104e59190810190613120565b61127e565b6040516104f791906132a5565b60405180910390f35b34801561050c57600080fd5b5061052760048036036105229190810190613120565b6112fb565b005b34801561053557600080fd5b50610550600480360361054b9190810190612f27565b611416565b60405161055d919061337f565b60405180910390f35b34801561057257600080fd5b5061057b61149a565b60405161058891906132a5565b60405180910390f35b34801561059d57600080fd5b506105a66114c4565b6040516105b391906132a5565b60405180910390f35b3480156105c857600080fd5b506105d16114ea565b6040516105de919061335d565b60405180910390f35b3480156105f357600080fd5b5061060e60048036036106099190810190613056565b61158c565b005b34801561061c57600080fd5b5061063760048036036106329190810190613120565b6116c4565b604051610644919061337f565b60405180910390f35b34801561065957600080fd5b50610674600480360361066f9190810190612f27565b6116e4565b005b34801561068257600080fd5b5061069d60048036036106989190810190613120565b6117aa565b6040516106aa91906132a5565b60405180910390f35b3480156106bf57600080fd5b506106da60048036036106d591908101906131ae565b6117ea565b6040516106e79190613327565b60405180910390f35b3480156106fc57600080fd5b5061071760048036036107129190810190612fdb565b611952565b005b34801561072557600080fd5b50610740600480360361073b9190810190613172565b611991565b005b34801561074e57600080fd5b5061076960048036036107649190810190613120565b611a75565b604051610776919061335d565b60405180910390f35b34801561078b57600080fd5b506107a660048036036107a19190810190612f27565b611ae1565b005b3480156107b457600080fd5b506107bd611ba7565b6040516107ca91906132a5565b60405180910390f35b3480156107df57600080fd5b506107fa60048036036107f59190810190613120565b611bd1565b604051610807919061337f565b60405180910390f35b34801561081c57600080fd5b5061083760048036036108329190810190612f50565b611c22565b6040516108449190613327565b60405180910390f35b34801561085957600080fd5b50610874600480360361086f9190810190612f27565b611cb6565b005b34801561088257600080fd5b5061089d60048036036108989190810190612f27565b611d7c565b005b3480156108ab57600080fd5b506108c660048036036108c19190810190612f27565b611e42565b005b3480156108d457600080fd5b506108ef60048036036108ea91908101906131ae565b611f9a565b6040516108fc9190613327565b60405180910390f35b34801561091157600080fd5b5061092c60048036036109279190810190613120565b6121b7565b6040516109399190613327565b60405180910390f35b606060048054600181600116156101000203166002900480601f0160208091040260200160405190810160405280929190818152602001828054600181600116156101000203166002900480156109da5780601f106109af576101008083540402835291602001916109da565b820191906000526020600020905b8154815290600101906020018083116109bd57829003601f168201915b5050505050905090565b60006001600083815260200190815260200160002060009054906101000a900473ffffffffffffffffffffffffffffffffffffffff169050919050565b6000610a2c8261127e565b90508073ffffffffffffffffffffffffffffffffffffffff168373ffffffffffffffffffffffffffffffffffffffff1614151515610a6957600080fd5b8073ffffffffffffffffffffffffffffffffffffffff163373ffffffffffffffffffffffffffffffffffffffff161480610aa95750610aa88133611c22565b5b1515610ab457600080fd5b600073ffffffffffffffffffffffffffffffffffffffff16610ad5836109e4565b73ffffffffffffffffffffffffffffffffffffffff16141580610b255750600073ffffffffffffffffffffffffffffffffffffffff168373ffffffffffffffffffffffffffffffffffffffff1614155b15610be257826001600084815260200190815260200160002060006101000a81548173ffffffffffffffffffffffffffffffffffffffff021916908373ffffffffffffffffffffffffffffffffffffffff1602179055508273ffffffffffffffffffffffffffffffffffffffff168173ffffffffffffffffffffffffffffffffffffffff167f8c5be1e5ebec7d5bd14f71427d1e84f3dd0314c0f7b2291e5b200ac8c7c3b92584604051610bd9919061337f565b60405180910390a35b505050565b6000600e60009054906101000a900473ffffffffffffffffffffffffffffffffffffffff16905090565b6000600880549050905090565b6000600d60009054906101000a900473ffffffffffffffffffffffffffffffffffffffff1673ffffffffffffffffffffffffffffffffffffffff163373ffffffffffffffffffffffffffffffffffffffff161480610cc95750600b60009054906101000a900473ffffffffffffffffffffffffffffffffffffffff1673ffffffffffffffffffffffffffffffffffffffff163373ffffffffffffffffffffffffffffffffffffffff16145b1515610cd457600080fd5b3073ffffffffffffffffffffffffffffffffffffffff16318211151515610cfa57600080fd5b8273ffffffffffffffffffffffffffffffffffffffff166108fc839081150290604051600060405180830381858888f19350505050905092915050565b80610d4233826121e4565b1515610d4d57600080fd5b600073ffffffffffffffffffffffffffffffffffffffff168473ffffffffffffffffffffffffffffffffffffffff1614151515610d8957600080fd5b600073ffffffffffffffffffffffffffffffffffffffff168373ffffffffffffffffffffffffffffffffffffffff1614151515610dc557600080fd5b610dcf8483612279565b610dd984836123e2565b610de383836125fa565b8273ffffffffffffffffffffffffffffffffffffffff168473ffffffffffffffffffffffffffffffffffffffff167fddf252ad1be2c89b69c2b068fc378daa952ba7f163c4a11628f55a4df523b3ef84604051610e40919061337f565b60405180910390a350505050565b6000610e5983611416565b82101515610e6657600080fd5b600660008473ffffffffffffffffffffffffffffffffffffffff1673ffffffffffffffffffffffffffffffffffffffff16815260200190815260200160002082815481101515610eb257fe5b9060005260206000200154905092915050565b6000600d60009054906101000a900473ffffffffffffffffffffffffffffffffffffffff16905090565b6000600d60009054906101000a900473ffffffffffffffffffffffffffffffffffffffff1673ffffffffffffffffffffffffffffffffffffffff163373ffffffffffffffffffffffffffffffffffffffff161480610f9a5750600b60009054906101000a900473ffffffffffffffffffffffffffffffffffffffff1673ffffffffffffffffffffffffffffffffffffffff163373ffffffffffffffffffffffffffffffffffffffff16145b1515610fa557600080fd5b610faf83836126d1565b610fb882611bd1565b9050610fe46001601060008481526020019081526020016000206001015461272890919063ffffffff16565b6010600083815260200190815260200160002060010181905550505050565b8061100e33826121e4565b151561101957600080fd5b6110358484846020604051908101604052806000815250611952565b50505050565b60008060008084815260200190815260200160002060009054906101000a900473ffffffffffffffffffffffffffffffffffffffff169050600073ffffffffffffffffffffffffffffffffffffffff168173ffffffffffffffffffffffffffffffffffffffff161415915050919050565b60006110b6610c11565b821015156110c357600080fd5b6008828154811015156110d257fe5b90600052602060002001549050919050565b6000600c60009054906101000a900473ffffffffffffffffffffffffffffffffffffffff16905090565b6000600d60009054906101000a900473ffffffffffffffffffffffffffffffffffffffff1673ffffffffffffffffffffffffffffffffffffffff163373ffffffffffffffffffffffffffffffffffffffff1614806111b95750600b60009054906101000a900473ffffffffffffffffffffffffffffffffffffffff1673ffffffffffffffffffffffffffffffffffffffff163373ffffffffffffffffffffffffffffffffffffffff16145b15156111c457600080fd5b6010600084815260200190815260200160002060000160009054906101000a900460ff161515156111f457600080fd5b60016010600085815260200190815260200160002060000160006101000a81548160ff021916908315150217905550816010600085815260200190815260200160002060000160016101000a81548173ffffffffffffffffffffffffffffffffffffffff021916908373ffffffffffffffffffffffffffffffffffffffff16021790555092915050565b60008060008084815260200190815260200160002060009054906101000a900473ffffffffffffffffffffffffffffffffffffffff169050600073ffffffffffffffffffffffffffffffffffffffff168173ffffffffffffffffffffffffffffffffffffffff16141515156112f257600080fd5b80915050919050565b6000600d60009054906101000a900473ffffffffffffffffffffffffffffffffffffffff1673ffffffffffffffffffffffffffffffffffffffff163373ffffffffffffffffffffffffffffffffffffffff1614806113a65750600b60009054906101000a900473ffffffffffffffffffffffffffffffffffffffff1673ffffffffffffffffffffffffffffffffffffffff163373ffffffffffffffffffffffffffffffffffffffff16145b15156113b157600080fd5b6113c36113bd8361127e565b83612744565b6113cc82611bd1565b90506113f86001601060008481526020019081526020016000206001015461287c90919063ffffffff16565b60106000838152602001908152602001600020600101819055505050565b60008073ffffffffffffffffffffffffffffffffffffffff168273ffffffffffffffffffffffffffffffffffffffff161415151561145357600080fd5b600260008373ffffffffffffffffffffffffffffffffffffffff1673ffffffffffffffffffffffffffffffffffffffff168152602001908152602001600020549050919050565b6000600c60009054906101000a900473ffffffffffffffffffffffffffffffffffffffff16905090565b600b60009054906101000a900473ffffffffffffffffffffffffffffffffffffffff1681565b606060058054600181600116156101000203166002900480601f0160208091040260200160405190810160405280929190818152602001828054600181600116156101000203166002900480156115825780601f1061155757610100808354040283529160200191611582565b820191906000526020600020905b81548152906001019060200180831161156557829003601f168201915b5050505050905090565b3373ffffffffffffffffffffffffffffffffffffffff168273ffffffffffffffffffffffffffffffffffffffff16141515156115c757600080fd5b80600360003373ffffffffffffffffffffffffffffffffffffffff1673ffffffffffffffffffffffffffffffffffffffff16815260200190815260200160002060008473ffffffffffffffffffffffffffffffffffffffff1673ffffffffffffffffffffffffffffffffffffffff16815260200190815260200160002060006101000a81548160ff0219169083151502179055508173ffffffffffffffffffffffffffffffffffffffff163373ffffffffffffffffffffffffffffffffffffffff167f17307eab39ab6107e8899845ad3d59bd9653f200f220920489ca2b5937696c31836040516116b89190613327565b60405180910390a35050565b600060106000838152602001908152602001600020600101549050919050565b600b60009054906101000a900473ffffffffffffffffffffffffffffffffffffffff1673ffffffffffffffffffffffffffffffffffffffff163373ffffffffffffffffffffffffffffffffffffffff1614151561174057600080fd5b60008173ffffffffffffffffffffffffffffffffffffffff161415151561176657600080fd5b80600d60006101000a81548173ffffffffffffffffffffffffffffffffffffffff021916908373ffffffffffffffffffffffffffffffffffffffff16021790555050565b60006010600083815260200190815260200160002060000160019054906101000a900473ffffffffffffffffffffffffffffffffffffffff169050919050565b6000600d60009054906101000a900473ffffffffffffffffffffffffffffffffffffffff1673ffffffffffffffffffffffffffffffffffffffff163373ffffffffffffffffffffffffffffffffffffffff1614806118955750600b60009054906101000a900473ffffffffffffffffffffffffffffffffffffffff1673ffffffffffffffffffffffffffffffffffffffff163373ffffffffffffffffffffffffffffffffffffffff16145b15156118a057600080fd5b8173ffffffffffffffffffffffffffffffffffffffff1663095ea7b384866040518363ffffffff167c01000000000000000000000000000000000000000000000000000000000281526004016118f79291906132c0565b602060405180830381600087803b15801561191157600080fd5b505af1158015611925573d6000803e3d6000fd5b505050506040513d601f19601f8201168201806040525061194991908101906130ce565b90509392505050565b8161195d33826121e4565b151561196857600080fd5b611973858585610d37565b61197f85858585612895565b151561198a57600080fd5b5050505050565b600b60009054906101000a900473ffffffffffffffffffffffffffffffffffffffff1673ffffffffffffffffffffffffffffffffffffffff163373ffffffffffffffffffffffffffffffffffffffff161415156119ed57600080fd5b6010600083815260200190815260200160002060000160009054906101000a900460ff161515611a1c57600080fd5b806010600084815260200190815260200160002060000160016101000a81548173ffffffffffffffffffffffffffffffffffffffff021916908373ffffffffffffffffffffffffffffffffffffffff1602179055505050565b606060006060611a836110e4565b91506000368080601f0160208091040260200160405190810160405280939291908181526020018383808284378201915050505050509050600080825160208401855af43d604051816000823e8260008114611add578282f35b8282fd5b600b60009054906101000a900473ffffffffffffffffffffffffffffffffffffffff1673ffffffffffffffffffffffffffffffffffffffff163373ffffffffffffffffffffffffffffffffffffffff16141515611b3d57600080fd5b60008173ffffffffffffffffffffffffffffffffffffffff1614151515611b6357600080fd5b80600e60006101000a81548173ffffffffffffffffffffffffffffffffffffffff021916908373ffffffffffffffffffffffffffffffffffffffff16021790555050565b6000600f60009054906101000a900473ffffffffffffffffffffffffffffffffffffffff16905090565b6000611be760018361287c90919063ffffffff16565b9150611c1b6064611c0d606485811515611bfd57fe5b068561287c90919063ffffffff16565b6129e390919063ffffffff16565b9050919050565b6000600360008473ffffffffffffffffffffffffffffffffffffffff1673ffffffffffffffffffffffffffffffffffffffff16815260200190815260200160002060008373ffffffffffffffffffffffffffffffffffffffff1673ffffffffffffffffffffffffffffffffffffffff16815260200190815260200160002060009054906101000a900460ff16905092915050565b600b60009054906101000a900473ffffffffffffffffffffffffffffffffffffffff1673ffffffffffffffffffffffffffffffffffffffff163373ffffffffffffffffffffffffffffffffffffffff16141515611d1257600080fd5b60008173ffffffffffffffffffffffffffffffffffffffff1614151515611d3857600080fd5b80600c60006101000a81548173ffffffffffffffffffffffffffffffffffffffff021916908373ffffffffffffffffffffffffffffffffffffffff16021790555050565b600b60009054906101000a900473ffffffffffffffffffffffffffffffffffffffff1673ffffffffffffffffffffffffffffffffffffffff163373ffffffffffffffffffffffffffffffffffffffff16141515611dd857600080fd5b60008173ffffffffffffffffffffffffffffffffffffffff1614151515611dfe57600080fd5b80600f60006101000a81548173ffffffffffffffffffffffffffffffffffffffff021916908373ffffffffffffffffffffffffffffffffffffffff16021790555050565b600b60009054906101000a900473ffffffffffffffffffffffffffffffffffffffff1673ffffffffffffffffffffffffffffffffffffffff163373ffffffffffffffffffffffffffffffffffffffff16141515611e9e57600080fd5b600073ffffffffffffffffffffffffffffffffffffffff168173ffffffffffffffffffffffffffffffffffffffff1614151515611eda57600080fd5b8073ffffffffffffffffffffffffffffffffffffffff16600b60009054906101000a900473ffffffffffffffffffffffffffffffffffffffff1673ffffffffffffffffffffffffffffffffffffffff167f8be0079c531659141344cd1fd0a4f28419497f9722a3daafe3b4186f6b6457e060405160405180910390a380600b60006101000a81548173ffffffffffffffffffffffffffffffffffffffff021916908373ffffffffffffffffffffffffffffffffffffffff16021790555050565b6000600d60009054906101000a900473ffffffffffffffffffffffffffffffffffffffff1673ffffffffffffffffffffffffffffffffffffffff163373ffffffffffffffffffffffffffffffffffffffff1614806120455750600b60009054906101000a900473ffffffffffffffffffffffffffffffffffffffff1673ffffffffffffffffffffffffffffffffffffffff163373ffffffffffffffffffffffffffffffffffffffff16145b151561205057600080fd5b8173ffffffffffffffffffffffffffffffffffffffff166370a08231306040518263ffffffff167c01000000000000000000000000000000000000000000000000000000000281526004016120a59190613342565b602060405180830381600087803b1580156120bf57600080fd5b505af11580156120d3573d6000803e3d6000fd5b505050506040513d601f19601f820116820180604052506120f79190810190613149565b841115151561210557600080fd5b8173ffffffffffffffffffffffffffffffffffffffff1663a9059cbb84866040518363ffffffff167c010000000000000000000000000000000000000000000000000000000002815260040161215c9291906132c0565b602060405180830381600087803b15801561217657600080fd5b505af115801561218a573d6000803e3d6000fd5b505050506040513d601f19601f820116820180604052506121ae91908101906130ce565b90509392505050565b60006010600083815260200190815260200160002060000160009054906101000a900460ff169050919050565b6000806121f08361127e565b90508073ffffffffffffffffffffffffffffffffffffffff168473ffffffffffffffffffffffffffffffffffffffff16148061225f57508373ffffffffffffffffffffffffffffffffffffffff16612247846109e4565b73ffffffffffffffffffffffffffffffffffffffff16145b80612270575061226f8185611c22565b5b91505092915050565b8173ffffffffffffffffffffffffffffffffffffffff166122998261127e565b73ffffffffffffffffffffffffffffffffffffffff161415156122bb57600080fd5b600073ffffffffffffffffffffffffffffffffffffffff166001600083815260200190815260200160002060009054906101000a900473ffffffffffffffffffffffffffffffffffffffff1673ffffffffffffffffffffffffffffffffffffffff161415156123de5760006001600083815260200190815260200160002060006101000a81548173ffffffffffffffffffffffffffffffffffffffff021916908373ffffffffffffffffffffffffffffffffffffffff160217905550600073ffffffffffffffffffffffffffffffffffffffff168273ffffffffffffffffffffffffffffffffffffffff167f8c5be1e5ebec7d5bd14f71427d1e84f3dd0314c0f7b2291e5b200ac8c7c3b925836040516123d5919061337f565b60405180910390a35b5050565b60008060006123f185856129f9565b6007600085815260200190815260200160002054925061245d6001600660008873ffffffffffffffffffffffffffffffffffffffff1673ffffffffffffffffffffffffffffffffffffffff1681526020019081526020016000208054905061287c90919063ffffffff16565b9150600660008673ffffffffffffffffffffffffffffffffffffffff1673ffffffffffffffffffffffffffffffffffffffff168152602001908152602001600020828154811015156124ab57fe5b9060005260206000200154905080600660008773ffffffffffffffffffffffffffffffffffffffff1673ffffffffffffffffffffffffffffffffffffffff1681526020019081526020016000208481548110151561250557fe5b90600052602060002001819055506000600660008773ffffffffffffffffffffffffffffffffffffffff1673ffffffffffffffffffffffffffffffffffffffff1681526020019081526020016000208381548110151561256157fe5b9060005260206000200181905550600660008673ffffffffffffffffffffffffffffffffffffffff1673ffffffffffffffffffffffffffffffffffffffff1681526020019081526020016000208054809190600190036125c19190612dc0565b50600060076000868152602001908152602001600020819055508260076000838152602001908152602001600020819055505050505050565b60006126068383612b27565b600660008473ffffffffffffffffffffffffffffffffffffffff1673ffffffffffffffffffffffffffffffffffffffff168152602001908152602001600020805490509050600660008473ffffffffffffffffffffffffffffffffffffffff1673ffffffffffffffffffffffffffffffffffffffff168152602001908152602001600020829080600181540180825580915050906001820390600052602060002001600090919290919091505550806007600084815260200190815260200160002081905550505050565b6126db8282612c7f565b600880549050600960008381526020019081526020016000208190555060088190806001815401808255809150509060018203906000526020600020016000909192909190915055505050565b6000818301905082811015151561273b57fe5b80905092915050565b60008060006127538585612d2f565b6000600a60008681526020019081526020016000208054600181600116156101000203166002900490501415156127a457600a600085815260200190815260200160002060006127a39190612dec565b5b600960008581526020019081526020016000205492506127d3600160088054905061287c90919063ffffffff16565b91506008828154811015156127e457fe5b906000526020600020015490508060088481548110151561280157fe5b9060005260206000200181905550600060088381548110151561282057fe5b906000526020600020018190555060088054809190600190036128439190612dc0565b50600060096000868152602001908152602001600020819055508260096000838152602001908152602001600020819055505050505050565b600082821115151561288a57fe5b818303905092915050565b6000806128b78573ffffffffffffffffffffffffffffffffffffffff16612dad565b15156128c657600191506129da565b8473ffffffffffffffffffffffffffffffffffffffff1663f0b9e5ba8786866040518463ffffffff167c010000000000000000000000000000000000000000000000000000000002815260040161291f939291906132e9565b602060405180830381600087803b15801561293957600080fd5b505af115801561294d573d6000803e3d6000fd5b505050506040513d601f19601f8201168201806040525061297191908101906130f7565b905063f0b9e5ba7c0100000000000000000000000000000000000000000000000000000000027bffffffffffffffffffffffffffffffffffffffffffffffffffffffff1916817bffffffffffffffffffffffffffffffffffffffffffffffffffffffff19161491505b50949350505050565b600081838115156129f057fe5b04905092915050565b8173ffffffffffffffffffffffffffffffffffffffff16612a198261127e565b73ffffffffffffffffffffffffffffffffffffffff16141515612a3b57600080fd5b612a8e6001600260008573ffffffffffffffffffffffffffffffffffffffff1673ffffffffffffffffffffffffffffffffffffffff1681526020019081526020016000205461287c90919063ffffffff16565b600260008473ffffffffffffffffffffffffffffffffffffffff1673ffffffffffffffffffffffffffffffffffffffff16815260200190815260200160002081905550600080600083815260200190815260200160002060006101000a81548173ffffffffffffffffffffffffffffffffffffffff021916908373ffffffffffffffffffffffffffffffffffffffff1602179055505050565b600073ffffffffffffffffffffffffffffffffffffffff1660008083815260200190815260200160002060009054906101000a900473ffffffffffffffffffffffffffffffffffffffff1673ffffffffffffffffffffffffffffffffffffffff16141515612b9457600080fd5b8160008083815260200190815260200160002060006101000a81548173ffffffffffffffffffffffffffffffffffffffff021916908373ffffffffffffffffffffffffffffffffffffffff160217905550612c386001600260008573ffffffffffffffffffffffffffffffffffffffff1673ffffffffffffffffffffffffffffffffffffffff1681526020019081526020016000205461272890919063ffffffff16565b600260008473ffffffffffffffffffffffffffffffffffffffff1673ffffffffffffffffffffffffffffffffffffffff168152602001908152602001600020819055505050565b600073ffffffffffffffffffffffffffffffffffffffff168273ffffffffffffffffffffffffffffffffffffffff1614151515612cbb57600080fd5b612cc582826125fa565b8173ffffffffffffffffffffffffffffffffffffffff16600073ffffffffffffffffffffffffffffffffffffffff167fddf252ad1be2c89b69c2b068fc378daa952ba7f163c4a11628f55a4df523b3ef83604051612d23919061337f565b60405180910390a35050565b612d398282612279565b612d4382826123e2565b600073ffffffffffffffffffffffffffffffffffffffff168273ffffffffffffffffffffffffffffffffffffffff167fddf252ad1be2c89b69c2b068fc378daa952ba7f163c4a11628f55a4df523b3ef83604051612da1919061337f565b60405180910390a35050565b600080823b905060008111915050919050565b815481835581811115612de757818360005260206000209182019101612de69190612e34565b5b505050565b50805460018160011615610100020316600290046000825580601f10612e125750612e31565b601f016020900490600052602060002090810190612e309190612e34565b5b50565b612e5691905b80821115612e52576000816000905550600101612e3a565b5090565b90565b6000612e65823561343f565b905092915050565b6000612e79823561345f565b905092915050565b6000612e8d825161345f565b905092915050565b6000612ea1825161346b565b905092915050565b600082601f8301121515612ebc57600080fd5b8135612ecf612eca826133c7565b61339a565b91508082526020830160208301858383011115612eeb57600080fd5b612ef68382846134b3565b50505092915050565b6000612f0b8235613497565b905092915050565b6000612f1f8251613497565b905092915050565b600060208284031215612f3957600080fd5b6000612f4784828501612e59565b91505092915050565b60008060408385031215612f6357600080fd5b6000612f7185828601612e59565b9250506020612f8285828601612e59565b9150509250929050565b600080600060608486031215612fa157600080fd5b6000612faf86828701612e59565b9350506020612fc086828701612e59565b9250506040612fd186828701612eff565b9150509250925092565b60008060008060808587031215612ff157600080fd5b6000612fff87828801612e59565b945050602061301087828801612e59565b935050604061302187828801612eff565b925050606085013567ffffffffffffffff81111561303e57600080fd5b61304a87828801612ea9565b91505092959194509250565b6000806040838503121561306957600080fd5b600061307785828601612e59565b925050602061308885828601612e6d565b9150509250929050565b600080604083850312156130a557600080fd5b60006130b385828601612e59565b92505060206130c485828601612eff565b9150509250929050565b6000602082840312156130e057600080fd5b60006130ee84828501612e81565b91505092915050565b60006020828403121561310957600080fd5b600061311784828501612e95565b91505092915050565b60006020828403121561313257600080fd5b600061314084828501612eff565b91505092915050565b60006020828403121561315b57600080fd5b600061316984828501612f13565b91505092915050565b6000806040838503121561318557600080fd5b600061319385828601612eff565b92505060206131a485828601612e59565b9150509250929050565b6000806000606084860312156131c357600080fd5b60006131d186828701612eff565b93505060206131e286828701612e59565b92505060406131f386828701612e59565b9150509250925092565b61320681613409565b82525050565b61321581613429565b82525050565b6000613226826133f3565b80845261323a8160208601602086016134c2565b613243816134f5565b602085010191505092915050565b61325a816134a1565b82525050565b600061326b826133fe565b80845261327f8160208601602086016134c2565b613288816134f5565b602085010191505092915050565b61329f81613435565b82525050565b60006020820190506132ba60008301846131fd565b92915050565b60006040820190506132d560008301856131fd565b6132e26020830184613296565b9392505050565b60006060820190506132fe60008301866131fd565b61330b6020830185613296565b818103604083015261331d818461321b565b9050949350505050565b600060208201905061333c600083018461320c565b92915050565b60006020820190506133576000830184613251565b92915050565b600060208201905081810360008301526133778184613260565b905092915050565b60006020820190506133946000830184613296565b92915050565b6000604051905081810181811067ffffffffffffffff821117156133bd57600080fd5b8060405250919050565b600067ffffffffffffffff8211156133de57600080fd5b601f19601f8301169050602081019050919050565b600081519050919050565b600081519050919050565b600073ffffffffffffffffffffffffffffffffffffffff82169050919050565b60008115159050919050565b6000819050919050565b600073ffffffffffffffffffffffffffffffffffffffff82169050919050565b60008115159050919050565b60007fffffffff0000000000000000000000000000000000000000000000000000000082169050919050565b6000819050919050565b60006134ac82613409565b9050919050565b82818337600083830152505050565b60005b838110156134e05780820151818401526020810190506134c5565b838111156134ef576000848401525b50505050565b6000601f19601f83011690509190505600a265627a7a723058208461a4649162d1bc42a8f2e61ae58ddfcf7eb029c94be34a087c43472b3e1b106c6578706572696d656e74616cf50037",
  "source": "pragma solidity ^0.4.18;\npragma experimental ABIEncoderV2;\n\n/**\n * Digital Asset Registry for the Non Fungible Token AnotherCoin\n * with upgradeable contract reference for returning metadata.\n */\nimport \"./Metadata.sol\";\nimport \"zeppelin-solidity/contracts/token/ERC20/ERC20.sol\";\n\nimport \"./IPatches.sol\";\nimport \"zeppelin-solidity/contracts/token/ERC721/ERC721Token.sol\";\nimport \"zeppelin-solidity/contracts/ownership/Ownable.sol\";\n\n\ncontract Patches is IPatches, ERC721Token, Ownable {\n\n\n   modifier onlyOwnerOrController() {\n        require(\n            msg.sender == controller ||\n            msg.sender == owner\n        );\n        _;\n    }\n\n    address metadata;\n    address controller;\n    address wallet;\n    address billy;\n\n    struct Work {\n        bool exists;\n        address artist;\n        uint sold;\n    }\n\n    mapping(uint => Work) works;\n\n    function Patches (string name, string symbol) public\n        ERC721Token(name, symbol)\n    { }\n\n    function () public payable {}\n\n    function implementation() public view returns (address) {\n        return metadata;\n    }\n\n    function tokenURI(uint _tokenId) public view returns (string _infoUrl) {\n        address _impl = implementation();\n        bytes memory data = msg.data;\n        assembly {\n            let result := delegatecall(gas, _impl, add(data, 0x20), mload(data), 0, 0)\n            let size := returndatasize\n            let ptr := mload(0x40)\n            returndatacopy(ptr, 0, size)\n            switch result\n            case 0 { revert(ptr, size) }\n            default { return(ptr, size) }\n        }\n    }\n\n    function getWorkFromToken(uint _tokenId) public pure returns (uint) {\n        _tokenId = _tokenId.sub(1);\n        return (_tokenId.sub(_tokenId % 100)).div(100);\n    }\n\n    function getController() public constant returns (address) {\n        return controller;\n    }\n    function getMetadata() public constant returns (address) {\n        return metadata;\n    }\n    function getWallet() public constant returns (address) {\n        return wallet;\n    }\n    function getBilly() public constant returns (address) {\n        return billy;\n    }\n    function workExists(uint _workId) public constant returns (bool) {\n        return works[_workId].exists;\n    }\n    function workArtist(uint _workId) public constant returns (address) {\n        return works[_workId].artist;\n    }\n    function workSold(uint _workId) public constant returns (uint) {\n        return works[_workId].sold;\n    }\n\n/* ---------------------------------------------------------------------------------------------------------------------- */\n\n    function addWork(uint _workId, address _artist) public onlyOwnerOrController returns (bool) {\n        require(!works[_workId].exists);\n        works[_workId].exists = true;\n        works[_workId].artist = _artist;\n    }    \n\n    function moveEth(address _to, uint256 amount) public onlyOwnerOrController returns (bool) {\n        require(amount <= this.balance);\n        return _to.send(amount);\n    }\n    function moveToken(uint256 amount, address _to, address token) public onlyOwnerOrController returns (bool) {\n        require(amount <= ERC20(token).balanceOf(this));\n        return ERC20(token).transfer(_to, amount);\n    }\n    function approveToken(uint256 amount, address _to, address token) public onlyOwnerOrController returns (bool) {\n        return ERC20(token).approve(_to, amount);\n    }\n\n    function updateArtistAddress(uint _workId, address _artist) public onlyOwner {\n        require(works[_workId].exists);\n       works[_workId].artist = _artist;\n    }\n    function updateWalletAddress(address _wallet) public onlyOwner {\n        require(_wallet != 0);\n        wallet = _wallet;\n    }\n    function updateBillyAddress(address _billy) public onlyOwner {\n        require(_billy != 0);\n        billy = _billy;\n    }\n    function updateControllerAddress(address _controller) public onlyOwner {\n        require(_controller != 0);\n        controller = _controller;\n    }\n    function updateMetadataAddress(address _metadata) public onlyOwner {\n        require(_metadata != 0);\n        metadata = _metadata;\n    }\n\n    function mint (address _to, uint256 _tokenId) public onlyOwnerOrController {\n        super._mint(_to, _tokenId);\n        uint workId = getWorkFromToken(_tokenId);\n        works[workId].sold = works[workId].sold.add(1);\n    }\n    function unmint (uint256 _tokenId) public onlyOwnerOrController {\n        super._burn(ownerOf(_tokenId), _tokenId);\n\n        uint workId = getWorkFromToken(_tokenId);\n        works[workId].sold = works[workId].sold.sub(1);\n    }\n\n}\n",
  "sourcePath": "/Users/billy/sol/new-models/contracts/Patches.sol",
  "compiler": {
    "name": "solc",
    "version": "0.4.24+commit.e67f0147.Emscripten.clang"
  },
  "schemaVersion": "2.0.0",
  "updatedAt": "2018-05-31T17:15:59.461Z"
}