{
  "contractName": "Patches",
  "abi": [
    {
      "constant": true,
      "inputs": [],
      "name": "name",
      "outputs": [
        {
          "name": "",
          "type": "string"
        }
      ],
      "payable": false,
      "stateMutability": "view",
      "type": "function"
    },
    {
      "constant": true,
      "inputs": [
        {
          "name": "_tokenId",
          "type": "uint256"
        }
      ],
      "name": "getApproved",
      "outputs": [
        {
          "name": "",
          "type": "address"
        }
      ],
      "payable": false,
      "stateMutability": "view",
      "type": "function"
    },
    {
      "constant": false,
      "inputs": [
        {
          "name": "_to",
          "type": "address"
        },
        {
          "name": "_tokenId",
          "type": "uint256"
        }
      ],
      "name": "approve",
      "outputs": [],
      "payable": false,
      "stateMutability": "nonpayable",
      "type": "function"
    },
    {
      "constant": true,
      "inputs": [],
      "name": "totalSupply",
      "outputs": [
        {
          "name": "",
          "type": "uint256"
        }
      ],
      "payable": false,
      "stateMutability": "view",
      "type": "function"
    },
    {
      "constant": false,
      "inputs": [
        {
          "name": "_from",
          "type": "address"
        },
        {
          "name": "_to",
          "type": "address"
        },
        {
          "name": "_tokenId",
          "type": "uint256"
        }
      ],
      "name": "transferFrom",
      "outputs": [],
      "payable": false,
      "stateMutability": "nonpayable",
      "type": "function"
    },
    {
      "constant": true,
      "inputs": [
        {
          "name": "_owner",
          "type": "address"
        },
        {
          "name": "_index",
          "type": "uint256"
        }
      ],
      "name": "tokenOfOwnerByIndex",
      "outputs": [
        {
          "name": "",
          "type": "uint256"
        }
      ],
      "payable": false,
      "stateMutability": "view",
      "type": "function"
    },
    {
      "constant": false,
      "inputs": [
        {
          "name": "_from",
          "type": "address"
        },
        {
          "name": "_to",
          "type": "address"
        },
        {
          "name": "_tokenId",
          "type": "uint256"
        }
      ],
      "name": "safeTransferFrom",
      "outputs": [],
      "payable": false,
      "stateMutability": "nonpayable",
      "type": "function"
    },
    {
      "constant": true,
      "inputs": [
        {
          "name": "_tokenId",
          "type": "uint256"
        }
      ],
      "name": "exists",
      "outputs": [
        {
          "name": "",
          "type": "bool"
        }
      ],
      "payable": false,
      "stateMutability": "view",
      "type": "function"
    },
    {
      "constant": true,
      "inputs": [
        {
          "name": "_index",
          "type": "uint256"
        }
      ],
      "name": "tokenByIndex",
      "outputs": [
        {
          "name": "",
          "type": "uint256"
        }
      ],
      "payable": false,
      "stateMutability": "view",
      "type": "function"
    },
    {
      "constant": true,
      "inputs": [
        {
          "name": "_tokenId",
          "type": "uint256"
        }
      ],
      "name": "ownerOf",
      "outputs": [
        {
          "name": "",
          "type": "address"
        }
      ],
      "payable": false,
      "stateMutability": "view",
      "type": "function"
    },
    {
      "constant": true,
      "inputs": [
        {
          "name": "_owner",
          "type": "address"
        }
      ],
      "name": "balanceOf",
      "outputs": [
        {
          "name": "",
          "type": "uint256"
        }
      ],
      "payable": false,
      "stateMutability": "view",
      "type": "function"
    },
    {
      "constant": true,
      "inputs": [],
      "name": "owner",
      "outputs": [
        {
          "name": "",
          "type": "address"
        }
      ],
      "payable": false,
      "stateMutability": "view",
      "type": "function"
    },
    {
      "constant": true,
      "inputs": [],
      "name": "symbol",
      "outputs": [
        {
          "name": "",
          "type": "string"
        }
      ],
      "payable": false,
      "stateMutability": "view",
      "type": "function"
    },
    {
      "constant": false,
      "inputs": [
        {
          "name": "_to",
          "type": "address"
        },
        {
          "name": "_approved",
          "type": "bool"
        }
      ],
      "name": "setApprovalForAll",
      "outputs": [],
      "payable": false,
      "stateMutability": "nonpayable",
      "type": "function"
    },
    {
      "constant": false,
      "inputs": [
        {
          "name": "_from",
          "type": "address"
        },
        {
          "name": "_to",
          "type": "address"
        },
        {
          "name": "_tokenId",
          "type": "uint256"
        },
        {
          "name": "_data",
          "type": "bytes"
        }
      ],
      "name": "safeTransferFrom",
      "outputs": [],
      "payable": false,
      "stateMutability": "nonpayable",
      "type": "function"
    },
    {
      "constant": true,
      "inputs": [
        {
          "name": "_owner",
          "type": "address"
        },
        {
          "name": "_operator",
          "type": "address"
        }
      ],
      "name": "isApprovedForAll",
      "outputs": [
        {
          "name": "",
          "type": "bool"
        }
      ],
      "payable": false,
      "stateMutability": "view",
      "type": "function"
    },
    {
      "constant": false,
      "inputs": [
        {
          "name": "newOwner",
          "type": "address"
        }
      ],
      "name": "transferOwnership",
      "outputs": [],
      "payable": false,
      "stateMutability": "nonpayable",
      "type": "function"
    },
    {
      "inputs": [
        {
          "name": "name",
          "type": "string"
        },
        {
          "name": "symbol",
          "type": "string"
        }
      ],
      "payable": false,
      "stateMutability": "nonpayable",
      "type": "constructor"
    },
    {
      "payable": true,
      "stateMutability": "payable",
      "type": "fallback"
    },
    {
      "anonymous": false,
      "inputs": [
        {
          "indexed": true,
          "name": "previousOwner",
          "type": "address"
        },
        {
          "indexed": true,
          "name": "newOwner",
          "type": "address"
        }
      ],
      "name": "OwnershipTransferred",
      "type": "event"
    },
    {
      "anonymous": false,
      "inputs": [
        {
          "indexed": true,
          "name": "_from",
          "type": "address"
        },
        {
          "indexed": true,
          "name": "_to",
          "type": "address"
        },
        {
          "indexed": false,
          "name": "_tokenId",
          "type": "uint256"
        }
      ],
      "name": "Transfer",
      "type": "event"
    },
    {
      "anonymous": false,
      "inputs": [
        {
          "indexed": true,
          "name": "_owner",
          "type": "address"
        },
        {
          "indexed": true,
          "name": "_approved",
          "type": "address"
        },
        {
          "indexed": false,
          "name": "_tokenId",
          "type": "uint256"
        }
      ],
      "name": "Approval",
      "type": "event"
    },
    {
      "anonymous": false,
      "inputs": [
        {
          "indexed": true,
          "name": "_owner",
          "type": "address"
        },
        {
          "indexed": true,
          "name": "_operator",
          "type": "address"
        },
        {
          "indexed": false,
          "name": "_approved",
          "type": "bool"
        }
      ],
      "name": "ApprovalForAll",
      "type": "event"
    },
    {
      "constant": true,
      "inputs": [],
      "name": "implementation",
      "outputs": [
        {
          "name": "",
          "type": "address"
        }
      ],
      "payable": false,
      "stateMutability": "view",
      "type": "function"
    },
    {
      "constant": true,
      "inputs": [
        {
          "name": "_tokenId",
          "type": "uint256"
        }
      ],
      "name": "tokenURI",
      "outputs": [
        {
          "name": "_infoUrl",
          "type": "string"
        }
      ],
      "payable": false,
      "stateMutability": "view",
      "type": "function"
    },
    {
      "constant": true,
      "inputs": [
        {
          "name": "_tokenId",
          "type": "uint256"
        }
      ],
      "name": "getWorkFromToken",
      "outputs": [
        {
          "name": "",
          "type": "uint256"
        }
      ],
      "payable": false,
      "stateMutability": "pure",
      "type": "function"
    },
    {
      "constant": true,
      "inputs": [],
      "name": "getController",
      "outputs": [
        {
          "name": "",
          "type": "address"
        }
      ],
      "payable": false,
      "stateMutability": "view",
      "type": "function"
    },
    {
      "constant": true,
      "inputs": [],
      "name": "getMetadata",
      "outputs": [
        {
          "name": "",
          "type": "address"
        }
      ],
      "payable": false,
      "stateMutability": "view",
      "type": "function"
    },
    {
      "constant": true,
      "inputs": [],
      "name": "getWallet",
      "outputs": [
        {
          "name": "",
          "type": "address"
        }
      ],
      "payable": false,
      "stateMutability": "view",
      "type": "function"
    },
    {
      "constant": true,
      "inputs": [],
      "name": "getBilly",
      "outputs": [
        {
          "name": "",
          "type": "address"
        }
      ],
      "payable": false,
      "stateMutability": "view",
      "type": "function"
    },
    {
      "constant": true,
      "inputs": [
        {
          "name": "_workId",
          "type": "uint256"
        }
      ],
      "name": "workExists",
      "outputs": [
        {
          "name": "",
          "type": "bool"
        }
      ],
      "payable": false,
      "stateMutability": "view",
      "type": "function"
    },
    {
      "constant": true,
      "inputs": [
        {
          "name": "_workId",
          "type": "uint256"
        }
      ],
      "name": "workArtist",
      "outputs": [
        {
          "name": "",
          "type": "address"
        }
      ],
      "payable": false,
      "stateMutability": "view",
      "type": "function"
    },
    {
      "constant": true,
      "inputs": [
        {
          "name": "_workId",
          "type": "uint256"
        }
      ],
      "name": "workSold",
      "outputs": [
        {
          "name": "",
          "type": "uint256"
        }
      ],
      "payable": false,
      "stateMutability": "view",
      "type": "function"
    },
    {
      "constant": true,
      "inputs": [
        {
          "name": "_workId",
          "type": "uint256"
        }
      ],
      "name": "workHash",
      "outputs": [
        {
          "name": "",
          "type": "bytes32"
        }
      ],
      "payable": false,
      "stateMutability": "view",
      "type": "function"
    },
    {
      "constant": true,
      "inputs": [
        {
          "name": "work",
          "type": "string"
        }
      ],
      "name": "testHash",
      "outputs": [
        {
          "name": "",
          "type": "bytes32"
        }
      ],
      "payable": false,
      "stateMutability": "view",
      "type": "function"
    },
    {
      "constant": false,
      "inputs": [
        {
          "name": "_workId",
          "type": "uint256"
        },
        {
          "name": "_artist",
          "type": "address"
        },
        {
          "name": "_hash",
          "type": "bytes32"
        }
      ],
      "name": "addWork",
      "outputs": [
        {
          "name": "",
          "type": "bool"
        }
      ],
      "payable": false,
      "stateMutability": "nonpayable",
      "type": "function"
    },
    {
      "constant": false,
      "inputs": [
        {
          "name": "_to",
          "type": "address"
        },
        {
          "name": "amount",
          "type": "uint256"
        }
      ],
      "name": "moveEth",
      "outputs": [
        {
          "name": "",
          "type": "bool"
        }
      ],
      "payable": false,
      "stateMutability": "nonpayable",
      "type": "function"
    },
    {
      "constant": false,
      "inputs": [
        {
          "name": "amount",
          "type": "uint256"
        },
        {
          "name": "_to",
          "type": "address"
        },
        {
          "name": "token",
          "type": "address"
        }
      ],
      "name": "moveToken",
      "outputs": [
        {
          "name": "",
          "type": "bool"
        }
      ],
      "payable": false,
      "stateMutability": "nonpayable",
      "type": "function"
    },
    {
      "constant": false,
      "inputs": [
        {
          "name": "amount",
          "type": "uint256"
        },
        {
          "name": "_to",
          "type": "address"
        },
        {
          "name": "token",
          "type": "address"
        }
      ],
      "name": "approveToken",
      "outputs": [
        {
          "name": "",
          "type": "bool"
        }
      ],
      "payable": false,
      "stateMutability": "nonpayable",
      "type": "function"
    },
    {
      "constant": false,
      "inputs": [
        {
          "name": "_workId",
          "type": "uint256"
        },
        {
          "name": "_artist",
          "type": "address"
        }
      ],
      "name": "updateArtistAddress",
      "outputs": [],
      "payable": false,
      "stateMutability": "nonpayable",
      "type": "function"
    },
    {
      "constant": false,
      "inputs": [
        {
          "name": "_wallet",
          "type": "address"
        }
      ],
      "name": "updateWalletAddress",
      "outputs": [],
      "payable": false,
      "stateMutability": "nonpayable",
      "type": "function"
    },
    {
      "constant": false,
      "inputs": [
        {
          "name": "_billy",
          "type": "address"
        }
      ],
      "name": "updateBillyAddress",
      "outputs": [],
      "payable": false,
      "stateMutability": "nonpayable",
      "type": "function"
    },
    {
      "constant": false,
      "inputs": [
        {
          "name": "_controller",
          "type": "address"
        }
      ],
      "name": "updateControllerAddress",
      "outputs": [],
      "payable": false,
      "stateMutability": "nonpayable",
      "type": "function"
    },
    {
      "constant": false,
      "inputs": [
        {
          "name": "_metadata",
          "type": "address"
        }
      ],
      "name": "updateMetadataAddress",
      "outputs": [],
      "payable": false,
      "stateMutability": "nonpayable",
      "type": "function"
    },
    {
      "constant": false,
      "inputs": [
        {
          "name": "_to",
          "type": "address"
        },
        {
          "name": "_tokenId",
          "type": "uint256"
        }
      ],
      "name": "mint",
      "outputs": [],
      "payable": false,
      "stateMutability": "nonpayable",
      "type": "function"
    },
    {
      "constant": false,
      "inputs": [
        {
          "name": "_tokenId",
          "type": "uint256"
        }
      ],
      "name": "unmint",
      "outputs": [],
      "payable": false,
      "stateMutability": "nonpayable",
      "type": "function"
    }
  ],
  "bytecode": "0x60806040523480156200001157600080fd5b5060405162003b2738038062003b278339810180604052620000379190810190620001c3565b8181816004908051906020019062000051929190620000b6565b5080600590805190602001906200006a929190620000b6565b50505033600b60006101000a81548173ffffffffffffffffffffffffffffffffffffffff021916908373ffffffffffffffffffffffffffffffffffffffff1602179055505050620002c7565b828054600181600116156101000203166002900490600052602060002090601f016020900481019282601f10620000f957805160ff19168380011785556200012a565b828001600101855582156200012a579182015b82811115620001295782518255916020019190600101906200010c565b5b5090506200013991906200013d565b5090565b6200016291905b808211156200015e57600081600090555060010162000144565b5090565b90565b600082601f83011215156200017957600080fd5b8151620001906200018a8262000264565b62000236565b91508082526020830160208301858383011115620001ad57600080fd5b620001ba83828462000291565b50505092915050565b60008060408385031215620001d757600080fd5b600083015167ffffffffffffffff811115620001f257600080fd5b620002008582860162000165565b925050602083015167ffffffffffffffff8111156200021e57600080fd5b6200022c8582860162000165565b9150509250929050565b6000604051905081810181811067ffffffffffffffff821117156200025a57600080fd5b8060405250919050565b600067ffffffffffffffff8211156200027c57600080fd5b601f19601f8301169050602081019050919050565b60005b83811015620002b157808201518184015260208101905062000294565b83811115620002c1576000848401525b50505050565b61385080620002d76000396000f3006080604052600436106101ee576000357c0100000000000000000000000000000000000000000000000000000000900463ffffffff16806306fdde03146101f0578063081812fc1461021b578063095ea7b314610258578063132996041461028157806318160ddd146102ac5780631cc1472d146102d757806323b872dd146103145780632f745c591461033d5780633018205f1461037a57806340c10f19146103a557806342842e0e146103ce5780634f558e79146103f75780634f6ccce7146104345780635c60da1b146104715780636352211e1461049c57806364e779b1146104d957806370a08231146105025780637a5b4f591461053f5780638da5cb5b1461056a5780638ec5a3091461059557806395d89b41146105d2578063a22cb465146105fd578063a466c2cc14610626578063a4de372f14610663578063ad11d4a71461068c578063b7f8aa00146106c9578063b88d4fde14610706578063bb3fcd9b1461072f578063c86e7a191461076c578063c87b56dd14610795578063c93c266e146107d2578063d04a050e146107fb578063d75987e414610838578063de6ccfa014610863578063e985e9c5146108a0578063ed892aae146108dd578063f06e8ecc14610906578063f2fde38b1461092f578063f760a4e214610958578063ffcc8d0e14610995575b005b3480156101fc57600080fd5b506102056109d2565b604051610212919061362d565b60405180910390f35b34801561022757600080fd5b50610242600480360361023d9190810190613377565b610a74565b60405161024f919061355a565b60405180910390f35b34801561026457600080fd5b5061027f600480360361027a91908101906132a8565b610ab1565b005b34801561028d57600080fd5b50610296610c77565b6040516102a3919061355a565b60405180910390f35b3480156102b857600080fd5b506102c1610ca1565b6040516102ce919061364f565b60405180910390f35b3480156102e357600080fd5b506102fe60048036036102f991908101906132a8565b610cae565b60405161030b91906135dc565b60405180910390f35b34801561032057600080fd5b5061033b600480360361033691908101906131a2565b610dc7565b005b34801561034957600080fd5b50610364600480360361035f91908101906132a8565b610ede565b604051610371919061364f565b60405180910390f35b34801561038657600080fd5b5061038f610f55565b60405161039c919061355a565b60405180910390f35b3480156103b157600080fd5b506103cc60048036036103c791908101906132a8565b610f7f565b005b3480156103da57600080fd5b506103f560048036036103f091908101906131a2565b611093565b005b34801561040357600080fd5b5061041e60048036036104199190810190613377565b6110cb565b60405161042b91906135dc565b60405180910390f35b34801561044057600080fd5b5061045b60048036036104569190810190613377565b61113c565b604051610468919061364f565b60405180910390f35b34801561047d57600080fd5b50610486611174565b604051610493919061355a565b60405180910390f35b3480156104a857600080fd5b506104c360048036036104be9190810190613377565b61119e565b6040516104d0919061355a565b60405180910390f35b3480156104e557600080fd5b5061050060048036036104fb9190810190613377565b61121b565b005b34801561050e57600080fd5b506105296004803603610524919081019061313d565b611336565b604051610536919061364f565b60405180910390f35b34801561054b57600080fd5b506105546113ba565b604051610561919061355a565b60405180910390f35b34801561057657600080fd5b5061057f6113e4565b60405161058c919061355a565b60405180910390f35b3480156105a157600080fd5b506105bc60048036036105b79190810190613336565b61140a565b6040516105c991906135f7565b60405180910390f35b3480156105de57600080fd5b506105e7611476565b6040516105f4919061362d565b60405180910390f35b34801561060957600080fd5b50610624600480360361061f919081019061326c565b611518565b005b34801561063257600080fd5b5061064d60048036036106489190810190613377565b611650565b60405161065a919061364f565b60405180910390f35b34801561066f57600080fd5b5061068a6004803603610685919081019061313d565b611670565b005b34801561069857600080fd5b506106b360048036036106ae9190810190613377565b611736565b6040516106c0919061355a565b60405180910390f35b3480156106d557600080fd5b506106f060048036036106eb9190810190613405565b611776565b6040516106fd91906135dc565b60405180910390f35b34801561071257600080fd5b5061072d600480360361072891908101906131f1565b6118de565b005b34801561073b57600080fd5b5061075660048036036107519190810190613377565b61191d565b60405161076391906135f7565b60405180910390f35b34801561077857600080fd5b50610793600480360361078e91908101906133c9565b61193d565b005b3480156107a157600080fd5b506107bc60048036036107b79190810190613377565b611a21565b6040516107c9919061362d565b60405180910390f35b3480156107de57600080fd5b506107f960048036036107f4919081019061313d565b611a8d565b005b34801561080757600080fd5b50610822600480360361081d9190810190613454565b611b53565b60405161082f91906135dc565b60405180910390f35b34801561084457600080fd5b5061084d611d40565b60405161085a919061355a565b60405180910390f35b34801561086f57600080fd5b5061088a60048036036108859190810190613377565b611d6a565b604051610897919061364f565b60405180910390f35b3480156108ac57600080fd5b506108c760048036036108c29190810190613166565b611dce565b6040516108d491906135dc565b60405180910390f35b3480156108e957600080fd5b5061090460048036036108ff919081019061313d565b611e62565b005b34801561091257600080fd5b5061092d6004803603610928919081019061313d565b611f28565b005b34801561093b57600080fd5b506109566004803603610951919081019061313d565b611fee565b005b34801561096457600080fd5b5061097f600480360361097a9190810190613405565b612146565b60405161098c91906135dc565b60405180910390f35b3480156109a157600080fd5b506109bc60048036036109b79190810190613377565b612363565b6040516109c991906135dc565b60405180910390f35b606060048054600181600116156101000203166002900480601f016020809104026020016040519081016040528092919081815260200182805460018160011615610100020316600290048015610a6a5780601f10610a3f57610100808354040283529160200191610a6a565b820191906000526020600020905b815481529060010190602001808311610a4d57829003601f168201915b5050505050905090565b60006001600083815260200190815260200160002060009054906101000a900473ffffffffffffffffffffffffffffffffffffffff169050919050565b6000610abc8261119e565b90508073ffffffffffffffffffffffffffffffffffffffff168373ffffffffffffffffffffffffffffffffffffffff1614151515610af957600080fd5b8073ffffffffffffffffffffffffffffffffffffffff163373ffffffffffffffffffffffffffffffffffffffff161480610b395750610b388133611dce565b5b1515610b4457600080fd5b600073ffffffffffffffffffffffffffffffffffffffff16610b6583610a74565b73ffffffffffffffffffffffffffffffffffffffff16141580610bb55750600073ffffffffffffffffffffffffffffffffffffffff168373ffffffffffffffffffffffffffffffffffffffff1614155b15610c7257826001600084815260200190815260200160002060006101000a81548173ffffffffffffffffffffffffffffffffffffffff021916908373ffffffffffffffffffffffffffffffffffffffff1602179055508273ffffffffffffffffffffffffffffffffffffffff168173ffffffffffffffffffffffffffffffffffffffff167f8c5be1e5ebec7d5bd14f71427d1e84f3dd0314c0f7b2291e5b200ac8c7c3b92584604051610c69919061364f565b60405180910390a35b505050565b6000600e60009054906101000a900473ffffffffffffffffffffffffffffffffffffffff16905090565b6000600880549050905090565b6000600d60009054906101000a900473ffffffffffffffffffffffffffffffffffffffff1673ffffffffffffffffffffffffffffffffffffffff163373ffffffffffffffffffffffffffffffffffffffff161480610d595750600b60009054906101000a900473ffffffffffffffffffffffffffffffffffffffff1673ffffffffffffffffffffffffffffffffffffffff163373ffffffffffffffffffffffffffffffffffffffff16145b1515610d6457600080fd5b3073ffffffffffffffffffffffffffffffffffffffff16318211151515610d8a57600080fd5b8273ffffffffffffffffffffffffffffffffffffffff166108fc839081150290604051600060405180830381858888f19350505050905092915050565b80610dd23382612390565b1515610ddd57600080fd5b600073ffffffffffffffffffffffffffffffffffffffff168473ffffffffffffffffffffffffffffffffffffffff1614151515610e1957600080fd5b600073ffffffffffffffffffffffffffffffffffffffff168373ffffffffffffffffffffffffffffffffffffffff1614151515610e5557600080fd5b610e5f8483612425565b610e69848361258e565b610e7383836127a6565b8273ffffffffffffffffffffffffffffffffffffffff168473ffffffffffffffffffffffffffffffffffffffff167fddf252ad1be2c89b69c2b068fc378daa952ba7f163c4a11628f55a4df523b3ef84604051610ed0919061364f565b60405180910390a350505050565b6000610ee983611336565b82101515610ef657600080fd5b600660008473ffffffffffffffffffffffffffffffffffffffff1673ffffffffffffffffffffffffffffffffffffffff16815260200190815260200160002082815481101515610f4257fe5b9060005260206000200154905092915050565b6000600d60009054906101000a900473ffffffffffffffffffffffffffffffffffffffff16905090565b6000600d60009054906101000a900473ffffffffffffffffffffffffffffffffffffffff1673ffffffffffffffffffffffffffffffffffffffff163373ffffffffffffffffffffffffffffffffffffffff16148061102a5750600b60009054906101000a900473ffffffffffffffffffffffffffffffffffffffff1673ffffffffffffffffffffffffffffffffffffffff163373ffffffffffffffffffffffffffffffffffffffff16145b151561103557600080fd5b61103f838361287d565b61104882611d6a565b9050611074600160106000848152602001908152602001600020600101546128d490919063ffffffff16565b6010600083815260200190815260200160002060010181905550505050565b8061109e3382612390565b15156110a957600080fd5b6110c584848460206040519081016040528060008152506118de565b50505050565b60008060008084815260200190815260200160002060009054906101000a900473ffffffffffffffffffffffffffffffffffffffff169050600073ffffffffffffffffffffffffffffffffffffffff168173ffffffffffffffffffffffffffffffffffffffff161415915050919050565b6000611146610ca1565b8210151561115357600080fd5b60088281548110151561116257fe5b90600052602060002001549050919050565b6000600c60009054906101000a900473ffffffffffffffffffffffffffffffffffffffff16905090565b60008060008084815260200190815260200160002060009054906101000a900473ffffffffffffffffffffffffffffffffffffffff169050600073ffffffffffffffffffffffffffffffffffffffff168173ffffffffffffffffffffffffffffffffffffffff161415151561121257600080fd5b80915050919050565b6000600d60009054906101000a900473ffffffffffffffffffffffffffffffffffffffff1673ffffffffffffffffffffffffffffffffffffffff163373ffffffffffffffffffffffffffffffffffffffff1614806112c65750600b60009054906101000a900473ffffffffffffffffffffffffffffffffffffffff1673ffffffffffffffffffffffffffffffffffffffff163373ffffffffffffffffffffffffffffffffffffffff16145b15156112d157600080fd5b6112e36112dd8361119e565b836128f0565b6112ec82611d6a565b905061131860016010600084815260200190815260200160002060010154612a2890919063ffffffff16565b60106000838152602001908152602001600020600101819055505050565b60008073ffffffffffffffffffffffffffffffffffffffff168273ffffffffffffffffffffffffffffffffffffffff161415151561137357600080fd5b600260008373ffffffffffffffffffffffffffffffffffffffff1673ffffffffffffffffffffffffffffffffffffffff168152602001908152602001600020549050919050565b6000600c60009054906101000a900473ffffffffffffffffffffffffffffffffffffffff16905090565b600b60009054906101000a900473ffffffffffffffffffffffffffffffffffffffff1681565b6000816040518082805190602001908083835b602083101515611442578051825260208201915060208101905060208303925061141d565b6001836020036101000a03801982511681845116808217855250505050505090500191505060405180910390209050919050565b606060058054600181600116156101000203166002900480601f01602080910402602001604051908101604052809291908181526020018280546001816001161561010002031660029004801561150e5780601f106114e35761010080835404028352916020019161150e565b820191906000526020600020905b8154815290600101906020018083116114f157829003601f168201915b5050505050905090565b3373ffffffffffffffffffffffffffffffffffffffff168273ffffffffffffffffffffffffffffffffffffffff161415151561155357600080fd5b80600360003373ffffffffffffffffffffffffffffffffffffffff1673ffffffffffffffffffffffffffffffffffffffff16815260200190815260200160002060008473ffffffffffffffffffffffffffffffffffffffff1673ffffffffffffffffffffffffffffffffffffffff16815260200190815260200160002060006101000a81548160ff0219169083151502179055508173ffffffffffffffffffffffffffffffffffffffff163373ffffffffffffffffffffffffffffffffffffffff167f17307eab39ab6107e8899845ad3d59bd9653f200f220920489ca2b5937696c318360405161164491906135dc565b60405180910390a35050565b600060106000838152602001908152602001600020600101549050919050565b600b60009054906101000a900473ffffffffffffffffffffffffffffffffffffffff1673ffffffffffffffffffffffffffffffffffffffff163373ffffffffffffffffffffffffffffffffffffffff161415156116cc57600080fd5b60008173ffffffffffffffffffffffffffffffffffffffff16141515156116f257600080fd5b80600d60006101000a81548173ffffffffffffffffffffffffffffffffffffffff021916908373ffffffffffffffffffffffffffffffffffffffff16021790555050565b60006010600083815260200190815260200160002060000160019054906101000a900473ffffffffffffffffffffffffffffffffffffffff169050919050565b6000600d60009054906101000a900473ffffffffffffffffffffffffffffffffffffffff1673ffffffffffffffffffffffffffffffffffffffff163373ffffffffffffffffffffffffffffffffffffffff1614806118215750600b60009054906101000a900473ffffffffffffffffffffffffffffffffffffffff1673ffffffffffffffffffffffffffffffffffffffff163373ffffffffffffffffffffffffffffffffffffffff16145b151561182c57600080fd5b8173ffffffffffffffffffffffffffffffffffffffff1663095ea7b384866040518363ffffffff167c0100000000000000000000000000000000000000000000000000000000028152600401611883929190613575565b602060405180830381600087803b15801561189d57600080fd5b505af11580156118b1573d6000803e3d6000fd5b505050506040513d601f19601f820116820180604052506118d591908101906132e4565b90509392505050565b816118e93382612390565b15156118f457600080fd5b6118ff858585610dc7565b61190b85858585612a41565b151561191657600080fd5b5050505050565b600060106000838152602001908152602001600020600201549050919050565b600b60009054906101000a900473ffffffffffffffffffffffffffffffffffffffff1673ffffffffffffffffffffffffffffffffffffffff163373ffffffffffffffffffffffffffffffffffffffff1614151561199957600080fd5b6010600083815260200190815260200160002060000160009054906101000a900460ff1615156119c857600080fd5b806010600084815260200190815260200160002060000160016101000a81548173ffffffffffffffffffffffffffffffffffffffff021916908373ffffffffffffffffffffffffffffffffffffffff1602179055505050565b606060006060611a2f611174565b91506000368080601f0160208091040260200160405190810160405280939291908181526020018383808284378201915050505050509050600080825160208401855af43d604051816000823e8260008114611a89578282f35b8282fd5b600b60009054906101000a900473ffffffffffffffffffffffffffffffffffffffff1673ffffffffffffffffffffffffffffffffffffffff163373ffffffffffffffffffffffffffffffffffffffff16141515611ae957600080fd5b60008173ffffffffffffffffffffffffffffffffffffffff1614151515611b0f57600080fd5b80600e60006101000a81548173ffffffffffffffffffffffffffffffffffffffff021916908373ffffffffffffffffffffffffffffffffffffffff16021790555050565b6000600d60009054906101000a900473ffffffffffffffffffffffffffffffffffffffff1673ffffffffffffffffffffffffffffffffffffffff163373ffffffffffffffffffffffffffffffffffffffff161480611bfe5750600b60009054906101000a900473ffffffffffffffffffffffffffffffffffffffff1673ffffffffffffffffffffffffffffffffffffffff163373ffffffffffffffffffffffffffffffffffffffff16145b1515611c0957600080fd5b60008414151515611c1957600080fd5b60106000611c31600187612a2890919063ffffffff16565b815260200190815260200160002060000160009054906101000a900460ff1680611c5b5750600184145b1515611c6657600080fd5b6010600085815260200190815260200160002060000160009054906101000a900460ff16151515611c9657600080fd5b60016010600086815260200190815260200160002060000160006101000a81548160ff021916908315150217905550826010600086815260200190815260200160002060000160016101000a81548173ffffffffffffffffffffffffffffffffffffffff021916908373ffffffffffffffffffffffffffffffffffffffff160217905550816010600086815260200190815260200160002060020181600019169055509392505050565b6000600f60009054906101000a900473ffffffffffffffffffffffffffffffffffffffff16905090565b6000611d80600183612a2890919063ffffffff16565b9150611dc76001611db96064611dab606487811515611d9b57fe5b0687612a2890919063ffffffff16565b612b8f90919063ffffffff16565b6128d490919063ffffffff16565b9050919050565b6000600360008473ffffffffffffffffffffffffffffffffffffffff1673ffffffffffffffffffffffffffffffffffffffff16815260200190815260200160002060008373ffffffffffffffffffffffffffffffffffffffff1673ffffffffffffffffffffffffffffffffffffffff16815260200190815260200160002060009054906101000a900460ff16905092915050565b600b60009054906101000a900473ffffffffffffffffffffffffffffffffffffffff1673ffffffffffffffffffffffffffffffffffffffff163373ffffffffffffffffffffffffffffffffffffffff16141515611ebe57600080fd5b60008173ffffffffffffffffffffffffffffffffffffffff1614151515611ee457600080fd5b80600c60006101000a81548173ffffffffffffffffffffffffffffffffffffffff021916908373ffffffffffffffffffffffffffffffffffffffff16021790555050565b600b60009054906101000a900473ffffffffffffffffffffffffffffffffffffffff1673ffffffffffffffffffffffffffffffffffffffff163373ffffffffffffffffffffffffffffffffffffffff16141515611f8457600080fd5b60008173ffffffffffffffffffffffffffffffffffffffff1614151515611faa57600080fd5b80600f60006101000a81548173ffffffffffffffffffffffffffffffffffffffff021916908373ffffffffffffffffffffffffffffffffffffffff16021790555050565b600b60009054906101000a900473ffffffffffffffffffffffffffffffffffffffff1673ffffffffffffffffffffffffffffffffffffffff163373ffffffffffffffffffffffffffffffffffffffff1614151561204a57600080fd5b600073ffffffffffffffffffffffffffffffffffffffff168173ffffffffffffffffffffffffffffffffffffffff161415151561208657600080fd5b8073ffffffffffffffffffffffffffffffffffffffff16600b60009054906101000a900473ffffffffffffffffffffffffffffffffffffffff1673ffffffffffffffffffffffffffffffffffffffff167f8be0079c531659141344cd1fd0a4f28419497f9722a3daafe3b4186f6b6457e060405160405180910390a380600b60006101000a81548173ffffffffffffffffffffffffffffffffffffffff021916908373ffffffffffffffffffffffffffffffffffffffff16021790555050565b6000600d60009054906101000a900473ffffffffffffffffffffffffffffffffffffffff1673ffffffffffffffffffffffffffffffffffffffff163373ffffffffffffffffffffffffffffffffffffffff1614806121f15750600b60009054906101000a900473ffffffffffffffffffffffffffffffffffffffff1673ffffffffffffffffffffffffffffffffffffffff163373ffffffffffffffffffffffffffffffffffffffff16145b15156121fc57600080fd5b8173ffffffffffffffffffffffffffffffffffffffff166370a08231306040518263ffffffff167c01000000000000000000000000000000000000000000000000000000000281526004016122519190613612565b602060405180830381600087803b15801561226b57600080fd5b505af115801561227f573d6000803e3d6000fd5b505050506040513d601f19601f820116820180604052506122a391908101906133a0565b84111515156122b157600080fd5b8173ffffffffffffffffffffffffffffffffffffffff1663a9059cbb84866040518363ffffffff167c0100000000000000000000000000000000000000000000000000000000028152600401612308929190613575565b602060405180830381600087803b15801561232257600080fd5b505af1158015612336573d6000803e3d6000fd5b505050506040513d601f19601f8201168201806040525061235a91908101906132e4565b90509392505050565b60006010600083815260200190815260200160002060000160009054906101000a900460ff169050919050565b60008061239c8361119e565b90508073ffffffffffffffffffffffffffffffffffffffff168473ffffffffffffffffffffffffffffffffffffffff16148061240b57508373ffffffffffffffffffffffffffffffffffffffff166123f384610a74565b73ffffffffffffffffffffffffffffffffffffffff16145b8061241c575061241b8185611dce565b5b91505092915050565b8173ffffffffffffffffffffffffffffffffffffffff166124458261119e565b73ffffffffffffffffffffffffffffffffffffffff1614151561246757600080fd5b600073ffffffffffffffffffffffffffffffffffffffff166001600083815260200190815260200160002060009054906101000a900473ffffffffffffffffffffffffffffffffffffffff1673ffffffffffffffffffffffffffffffffffffffff1614151561258a5760006001600083815260200190815260200160002060006101000a81548173ffffffffffffffffffffffffffffffffffffffff021916908373ffffffffffffffffffffffffffffffffffffffff160217905550600073ffffffffffffffffffffffffffffffffffffffff168273ffffffffffffffffffffffffffffffffffffffff167f8c5be1e5ebec7d5bd14f71427d1e84f3dd0314c0f7b2291e5b200ac8c7c3b92583604051612581919061364f565b60405180910390a35b5050565b600080600061259d8585612ba5565b600760008581526020019081526020016000205492506126096001600660008873ffffffffffffffffffffffffffffffffffffffff1673ffffffffffffffffffffffffffffffffffffffff16815260200190815260200160002080549050612a2890919063ffffffff16565b9150600660008673ffffffffffffffffffffffffffffffffffffffff1673ffffffffffffffffffffffffffffffffffffffff1681526020019081526020016000208281548110151561265757fe5b9060005260206000200154905080600660008773ffffffffffffffffffffffffffffffffffffffff1673ffffffffffffffffffffffffffffffffffffffff168152602001908152602001600020848154811015156126b157fe5b90600052602060002001819055506000600660008773ffffffffffffffffffffffffffffffffffffffff1673ffffffffffffffffffffffffffffffffffffffff1681526020019081526020016000208381548110151561270d57fe5b9060005260206000200181905550600660008673ffffffffffffffffffffffffffffffffffffffff1673ffffffffffffffffffffffffffffffffffffffff16815260200190815260200160002080548091906001900361276d9190612f6c565b50600060076000868152602001908152602001600020819055508260076000838152602001908152602001600020819055505050505050565b60006127b28383612cd3565b600660008473ffffffffffffffffffffffffffffffffffffffff1673ffffffffffffffffffffffffffffffffffffffff168152602001908152602001600020805490509050600660008473ffffffffffffffffffffffffffffffffffffffff1673ffffffffffffffffffffffffffffffffffffffff168152602001908152602001600020829080600181540180825580915050906001820390600052602060002001600090919290919091505550806007600084815260200190815260200160002081905550505050565b6128878282612e2b565b600880549050600960008381526020019081526020016000208190555060088190806001815401808255809150509060018203906000526020600020016000909192909190915055505050565b600081830190508281101515156128e757fe5b80905092915050565b60008060006128ff8585612edb565b6000600a600086815260200190815260200160002080546001816001161561010002031660029004905014151561295057600a6000858152602001908152602001600020600061294f9190612f98565b5b6009600085815260200190815260200160002054925061297f6001600880549050612a2890919063ffffffff16565b915060088281548110151561299057fe5b90600052602060002001549050806008848154811015156129ad57fe5b906000526020600020018190555060006008838154811015156129cc57fe5b906000526020600020018190555060088054809190600190036129ef9190612f6c565b50600060096000868152602001908152602001600020819055508260096000838152602001908152602001600020819055505050505050565b6000828211151515612a3657fe5b818303905092915050565b600080612a638573ffffffffffffffffffffffffffffffffffffffff16612f59565b1515612a725760019150612b86565b8473ffffffffffffffffffffffffffffffffffffffff1663f0b9e5ba8786866040518463ffffffff167c0100000000000000000000000000000000000000000000000000000000028152600401612acb9392919061359e565b602060405180830381600087803b158015612ae557600080fd5b505af1158015612af9573d6000803e3d6000fd5b505050506040513d601f19601f82011682018060405250612b1d919081019061330d565b905063f0b9e5ba7c0100000000000000000000000000000000000000000000000000000000027bffffffffffffffffffffffffffffffffffffffffffffffffffffffff1916817bffffffffffffffffffffffffffffffffffffffffffffffffffffffff19161491505b50949350505050565b60008183811515612b9c57fe5b04905092915050565b8173ffffffffffffffffffffffffffffffffffffffff16612bc58261119e565b73ffffffffffffffffffffffffffffffffffffffff16141515612be757600080fd5b612c3a6001600260008573ffffffffffffffffffffffffffffffffffffffff1673ffffffffffffffffffffffffffffffffffffffff16815260200190815260200160002054612a2890919063ffffffff16565b600260008473ffffffffffffffffffffffffffffffffffffffff1673ffffffffffffffffffffffffffffffffffffffff16815260200190815260200160002081905550600080600083815260200190815260200160002060006101000a81548173ffffffffffffffffffffffffffffffffffffffff021916908373ffffffffffffffffffffffffffffffffffffffff1602179055505050565b600073ffffffffffffffffffffffffffffffffffffffff1660008083815260200190815260200160002060009054906101000a900473ffffffffffffffffffffffffffffffffffffffff1673ffffffffffffffffffffffffffffffffffffffff16141515612d4057600080fd5b8160008083815260200190815260200160002060006101000a81548173ffffffffffffffffffffffffffffffffffffffff021916908373ffffffffffffffffffffffffffffffffffffffff160217905550612de46001600260008573ffffffffffffffffffffffffffffffffffffffff1673ffffffffffffffffffffffffffffffffffffffff168152602001908152602001600020546128d490919063ffffffff16565b600260008473ffffffffffffffffffffffffffffffffffffffff1673ffffffffffffffffffffffffffffffffffffffff168152602001908152602001600020819055505050565b600073ffffffffffffffffffffffffffffffffffffffff168273ffffffffffffffffffffffffffffffffffffffff1614151515612e6757600080fd5b612e7182826127a6565b8173ffffffffffffffffffffffffffffffffffffffff16600073ffffffffffffffffffffffffffffffffffffffff167fddf252ad1be2c89b69c2b068fc378daa952ba7f163c4a11628f55a4df523b3ef83604051612ecf919061364f565b60405180910390a35050565b612ee58282612425565b612eef828261258e565b600073ffffffffffffffffffffffffffffffffffffffff168273ffffffffffffffffffffffffffffffffffffffff167fddf252ad1be2c89b69c2b068fc378daa952ba7f163c4a11628f55a4df523b3ef83604051612f4d919061364f565b60405180910390a35050565b600080823b905060008111915050919050565b815481835581811115612f9357818360005260206000209182019101612f929190612fe0565b5b505050565b50805460018160011615610100020316600290046000825580601f10612fbe5750612fdd565b601f016020900490600052602060002090810190612fdc9190612fe0565b5b50565b61300291905b80821115612ffe576000816000905550600101612fe6565b5090565b90565b60006130118235613745565b905092915050565b60006130258235613765565b905092915050565b60006130398251613765565b905092915050565b600061304d8235613771565b905092915050565b6000613061825161377b565b905092915050565b600082601f830112151561307c57600080fd5b813561308f61308a82613697565b61366a565b915080825260208301602083018583830111156130ab57600080fd5b6130b68382846137c3565b50505092915050565b600082601f83011215156130d257600080fd5b81356130e56130e0826136c3565b61366a565b9150808252602083016020830185838301111561310157600080fd5b61310c8382846137c3565b50505092915050565b600061312182356137a7565b905092915050565b600061313582516137a7565b905092915050565b60006020828403121561314f57600080fd5b600061315d84828501613005565b91505092915050565b6000806040838503121561317957600080fd5b600061318785828601613005565b925050602061319885828601613005565b9150509250929050565b6000806000606084860312156131b757600080fd5b60006131c586828701613005565b93505060206131d686828701613005565b92505060406131e786828701613115565b9150509250925092565b6000806000806080858703121561320757600080fd5b600061321587828801613005565b945050602061322687828801613005565b935050604061323787828801613115565b925050606085013567ffffffffffffffff81111561325457600080fd5b61326087828801613069565b91505092959194509250565b6000806040838503121561327f57600080fd5b600061328d85828601613005565b925050602061329e85828601613019565b9150509250929050565b600080604083850312156132bb57600080fd5b60006132c985828601613005565b92505060206132da85828601613115565b9150509250929050565b6000602082840312156132f657600080fd5b60006133048482850161302d565b91505092915050565b60006020828403121561331f57600080fd5b600061332d84828501613055565b91505092915050565b60006020828403121561334857600080fd5b600082013567ffffffffffffffff81111561336257600080fd5b61336e848285016130bf565b91505092915050565b60006020828403121561338957600080fd5b600061339784828501613115565b91505092915050565b6000602082840312156133b257600080fd5b60006133c084828501613129565b91505092915050565b600080604083850312156133dc57600080fd5b60006133ea85828601613115565b92505060206133fb85828601613005565b9150509250929050565b60008060006060848603121561341a57600080fd5b600061342886828701613115565b935050602061343986828701613005565b925050604061344a86828701613005565b9150509250925092565b60008060006060848603121561346957600080fd5b600061347786828701613115565b935050602061348886828701613005565b925050604061349986828701613041565b9150509250925092565b6134ac81613705565b82525050565b6134bb81613725565b82525050565b6134ca81613731565b82525050565b60006134db826136ef565b8084526134ef8160208601602086016137d2565b6134f881613805565b602085010191505092915050565b61350f816137b1565b82525050565b6000613520826136fa565b8084526135348160208601602086016137d2565b61353d81613805565b602085010191505092915050565b6135548161373b565b82525050565b600060208201905061356f60008301846134a3565b92915050565b600060408201905061358a60008301856134a3565b613597602083018461354b565b9392505050565b60006060820190506135b360008301866134a3565b6135c0602083018561354b565b81810360408301526135d281846134d0565b9050949350505050565b60006020820190506135f160008301846134b2565b92915050565b600060208201905061360c60008301846134c1565b92915050565b60006020820190506136276000830184613506565b92915050565b600060208201905081810360008301526136478184613515565b905092915050565b6000602082019050613664600083018461354b565b92915050565b6000604051905081810181811067ffffffffffffffff8211171561368d57600080fd5b8060405250919050565b600067ffffffffffffffff8211156136ae57600080fd5b601f19601f8301169050602081019050919050565b600067ffffffffffffffff8211156136da57600080fd5b601f19601f8301169050602081019050919050565b600081519050919050565b600081519050919050565b600073ffffffffffffffffffffffffffffffffffffffff82169050919050565b60008115159050919050565b6000819050919050565b6000819050919050565b600073ffffffffffffffffffffffffffffffffffffffff82169050919050565b60008115159050919050565b6000819050919050565b60007fffffffff0000000000000000000000000000000000000000000000000000000082169050919050565b6000819050919050565b60006137bc82613705565b9050919050565b82818337600083830152505050565b60005b838110156137f05780820151818401526020810190506137d5565b838111156137ff576000848401525b50505050565b6000601f19601f83011690509190505600a265627a7a72305820904b018dd5b13a770e01bca4310b0011b12b43b1eb0cb4c9ef3aa9ecbad838726c6578706572696d656e74616cf50037",
  "source": "pragma solidity ^0.4.18;\npragma experimental ABIEncoderV2;\n\n/**\n * Digital Asset Registry for the Non Fungible Token AnotherCoin\n * with upgradeable contract reference for returning metadata.\n */\nimport \"./Metadata.sol\";\nimport \"zeppelin-solidity/contracts/token/ERC20/ERC20.sol\";\n\nimport \"./IPatches.sol\";\nimport \"zeppelin-solidity/contracts/token/ERC721/ERC721Token.sol\";\nimport \"zeppelin-solidity/contracts/ownership/Ownable.sol\";\n\n\ncontract Patches is IPatches, ERC721Token, Ownable {\n\n\n   modifier onlyOwnerOrController() {\n        require(\n            msg.sender == controller ||\n            msg.sender == owner\n        );\n        _;\n    }\n\n    address metadata;\n    address controller;\n    address wallet;\n    address billy;\n\n    struct Work {\n        bool exists;\n        address artist;\n        uint sold;\n        bytes32 hash;\n    }\n\n    mapping(uint => Work) works;\n\n    function Patches (string name, string symbol) public\n        ERC721Token(name, symbol)\n    { }\n\n    function () public payable {}\n\n    function implementation() public view returns (address) {\n        return metadata;\n    }\n\n    function tokenURI(uint _tokenId) public view returns (string _infoUrl) {\n        address _impl = implementation();\n        bytes memory data = msg.data;\n        assembly {\n            let result := delegatecall(gas, _impl, add(data, 0x20), mload(data), 0, 0)\n            let size := returndatasize\n            let ptr := mload(0x40)\n            returndatacopy(ptr, 0, size)\n            switch result\n            case 0 { revert(ptr, size) }\n            default { return(ptr, size) }\n        }\n    }\n\n    function getWorkFromToken(uint _tokenId) public pure returns (uint) {\n        _tokenId = _tokenId.sub(1);\n        return (_tokenId.sub(_tokenId % 100)).div(100).add(1);\n    }\n\n    function getController() public constant returns (address) {\n        return controller;\n    }\n    function getMetadata() public constant returns (address) {\n        return metadata;\n    }\n    function getWallet() public constant returns (address) {\n        return wallet;\n    }\n    function getBilly() public constant returns (address) {\n        return billy;\n    }\n    function workExists(uint _workId) public constant returns (bool) {\n        return works[_workId].exists;\n    }\n    function workArtist(uint _workId) public constant returns (address) {\n        return works[_workId].artist;\n    }\n    function workSold(uint _workId) public constant returns (uint) {\n        return works[_workId].sold;\n    }\n    function workHash(uint _workId) public constant returns (bytes32) {\n        return works[_workId].hash;\n    }\n    function testHash(string work) public constant returns (bytes32) {\n        return sha3(work);\n    }\n\n/* ---------------------------------------------------------------------------------------------------------------------- */\n\n    function addWork(uint _workId, address _artist, bytes32 _hash) public onlyOwnerOrController returns (bool) {\n        require(_workId != 0);\n        require(works[_workId.sub(1)].exists || _workId == 1);\n        require(!works[_workId].exists);\n        works[_workId].exists = true;\n        works[_workId].artist = _artist;\n        works[_workId].hash = _hash;\n    }    \n\n    function moveEth(address _to, uint256 amount) public onlyOwnerOrController returns (bool) {\n        require(amount <= this.balance);\n        return _to.send(amount);\n    }\n    function moveToken(uint256 amount, address _to, address token) public onlyOwnerOrController returns (bool) {\n        require(amount <= ERC20(token).balanceOf(this));\n        return ERC20(token).transfer(_to, amount);\n    }\n    function approveToken(uint256 amount, address _to, address token) public onlyOwnerOrController returns (bool) {\n        return ERC20(token).approve(_to, amount);\n    }\n\n    function updateArtistAddress(uint _workId, address _artist) public onlyOwner {\n        require(works[_workId].exists);\n       works[_workId].artist = _artist;\n    }\n    function updateWalletAddress(address _wallet) public onlyOwner {\n        require(_wallet != 0);\n        wallet = _wallet;\n    }\n    function updateBillyAddress(address _billy) public onlyOwner {\n        require(_billy != 0);\n        billy = _billy;\n    }\n    function updateControllerAddress(address _controller) public onlyOwner {\n        require(_controller != 0);\n        controller = _controller;\n    }\n    function updateMetadataAddress(address _metadata) public onlyOwner {\n        require(_metadata != 0);\n        metadata = _metadata;\n    }\n\n    function mint (address _to, uint256 _tokenId) public onlyOwnerOrController {\n        super._mint(_to, _tokenId);\n        uint workId = getWorkFromToken(_tokenId);\n        works[workId].sold = works[workId].sold.add(1);\n    }\n    function unmint (uint256 _tokenId) public onlyOwnerOrController {\n        super._burn(ownerOf(_tokenId), _tokenId);\n\n        uint workId = getWorkFromToken(_tokenId);\n        works[workId].sold = works[workId].sold.sub(1);\n    }\n\n}\n",
  "sourcePath": "/Users/billy/sol/new-models-contracts/contracts/Patches.sol",
  "compiler": {
    "name": "solc",
    "version": "0.4.24+commit.e67f0147.Emscripten.clang"
  },
  "schemaVersion": "2.0.0",
  "updatedAt": "2018-06-15T10:41:01.097Z"
}